:1000000000000420752101005D2101005F21010035
:100010006121010063210100652101000000000051
:100020000000000000000000000000006721010047
:1000300069210100000000006B2101006D21010019
:100040006F2101006F2101003127020025310200DC
:100050006F2101006F210100A93F02006F21010003
:100060006F2101006F2101006F2101006F2101004C
:100070006F2101006F2101006F2101006F2101003C
:100080006F2101006F2101006F2101006F2101002C
:100090006F2101006F2101006F2101006F2101001C
:1000A0006F2101006F2101006F2101006F2101000C
:1000B0006F2101006F21010000000000000000001E
:1000C0006F2101006F2101006F2101003D3102000D
:1000D0006F2101006F2101006F2101006F210100DC
:1000E0006F2101006F2101006F210100000000005D
:1000F000000000006F2101000000000055310200E7
:1001000000000000000000000000000000000000EF
:1001100000000000000000000000000000000000DF
:1001200000000000000000000000000000000000CF
:1001300000000000000000000000000000000000BF
:1001400000000000000000000000000000000000AF
:10015000000000000000000000000000000000009F
:10016000000000000000000000000000000000008F
:10017000000000000000000000000000000000007F
:10018000000000000000000000000000000000006F
:10019000000000000000000000000000000000005F
:1001A000000000000000000000000000000000004F
:1001B000000000000000000000000000000000003F
:1001C000000000000000000000000000000000002F
:1001D000000000000000000000000000000000001F
:1001E000000000000000000000000000000000000F
:1001F00000000000000000000000000000000000FF
:020000021000EC
:10200000354936480A1A02D0072291438D46344991
:1020100034480A1A06D00722914381F30988022224
:1020200082F3148830483149314A00F044F831488D
:102030003149324A00F03FF831483249324A00F023
:102040003AF832483249334A00F035F832483349D9
:10205000334A00F030F833483349344A00F02BF863
:1020600033483449344A00F026F8344834490022D1
:1020700000F02CF833483449002200F027F83348A8
:102080003349091A082902DB002202604160314A03
:1020900090471F481F49884205D00268043003B4A6
:1020A000904703BCF7E700208646EC46002000215D
:1020B000294A9047FEE7884207D0521A05D0037894
:1020C00001300B700131013AF9D17047884202D0DA
:1020D00002700130FAE770470000042000E003209E
:1020E0000000042000000420106E02000000002008
:1020F00060000020D0210100D02101006C600200AE
:10210000106E02000000002000000020F0600200BD
:10211000F0600200F0600200F0600200F060020077
:10212000F0600200F0600200F0600200106E020039
:10213000706E02006000002060000020600000203F
:102140004C0D00204C0D0020500D0020640D00208F
:10215000642D00209D21010025080200FEE7FEE716
:10216000FEE7FEE7FEE7FEE7FEE7FEE7FEE7FEE747
:1021700000F002B8FFF7FCBF0F484FF0070188439B
:1021800085460E4880470E48016841F470010160A1
:10219000BFF34F8FBFF36F8FFFF732BF09480A4974
:1021A0000A4A884207D0521A05D0037801300B70D2
:1021B0000131013AF9D1704700000420A921020041
:1021C00088ED00E0F0600200000000200000002028
:1021D0002DE9F04385B005461C4683685E69E2B18F
:1021E00002911FFA82F8ADF80C804FF00009ADF8AB
:1021F0000E90776B02AB4A462021B847ADF80080BD
:10220000ADF80290E368C3F380138DF80430776B68
:102210006B464A4637212846B847E36813F01D0F3E
:1022200005D0776B2346002205212846B84763680E
:10223000002B0CDB776B231D002210212846B847AA
:10224000776B04F10803002251212846B847766BCA
:1022500004F10C03002204212846B04705B0BDE874
:10226000F08330B583B002AB0024002563E902455A
:1022700082685269546B00225F21A047DDE90001AA
:1022800003B030BD10B583685B695C6B00231A46F0
:102290000321A04710BD00002DE9F04784B004469B
:1022A00083685D69D1F808A00B6803934A6804ABA2
:1022B00043F8082D6F6B00224F21B847074618B12D
:1022C000384604B0BDE8F087A3685A6994F94C30E9
:1022D000002B3CDB576B01AB002257212046B8474F
:1022E000A8BB9DF807209DF806301B0443EA026353
:1022F0009DF8042013439DF8052043EA0223BAF118
:10230000000F31D103F5783303F5207303934FF0B9
:10231000010AA3685F690DF1020300227B212046B8
:102320007E6BB04794F94D30012B4ED094F94C3070
:10233000012202FA03F3BDF8022022EA030204ABF1
:1023400023F80E2D7F6B00226B212046B847BAF18F
:10235000000F4AD16D6B00231A461F212046A84763
:102360000746002850D1ABE7039AD31A98464FEAA4
:10237000E3794FEA4912580142EAD361C01A61EB8E
:1023800009014B0243EAD053420212EB080043EB2F
:1023900009018B0143EA90638201121A63EB010386
:1023A00016461F46314A002316EB080047EB090189
:1023B00011F083FEB0F57F7FABDDA3685F69B0F5F8
:1023C0007F70A8D00DF042FDA5E794F94C300122B2
:1023D0009A40BDF802301A4304AB23F80E2D7F6BF0
:1023E00000226B212046B847B1E76E6B03AB002299
:1023F00005212046B047074630B96D6B0023012206
:102400001F212046A847074694F94C30002BFFF6C1
:1024100057AFA3685D696E6B01AB00227B2120463C
:10242000B04794F94D308BB194F94C30012202FA47
:1024300003F3BDF8042022EA030204AB23F80C2DB9
:102440006D6B00226B212046A84739E794F94C3088
:1024500001229A40BDF804301A4304AB23F80C2D36
:102460006D6B00226B212046A84729E70098E00EFB
:1024700010B582B00091ADF804200022ADF806201E
:1024800083685B695C6B6B462121A04702B010BD7D
:10249000F0B583B00368002B37D01F4A13601E4B82
:1024A0001B6842681A6082685A6000228DF8032017
:1024B0001B681C6801AB04220DF103010120A04739
:1024C0009DF807309DF80610090441EA03619DF864
:1024D000043019439DF8053041EA03210F4A104B9F
:1024E0009A4216D20C4B1F6813464FF0FF3000265D
:1024F0000B4D1A684A405C68224204BFBB603046FC
:102500001C33AB42F5D303B0F0BD034B054A1A6050
:10251000C5E74FF0FF30F6E7600000206C60020076
:10252000C06002006400002038B5054B1C68A36839
:102530001B69DD6A0023024613212046A84738BDE7
:102540006000002008B5044B1B689A681269526A43
:1025500001461846904708BD6000002008B5044BAE
:102560001B689A681269126801461846904708BDB0
:102570006000002008B5044B1B689A6812699269D4
:1025800001461846904708BD6000002010B582B093
:1025900002AB23F8020D054A106882681269D46AFA
:1025A00000221B21A04702B010BD00BF6000002028
:1025B00010B582B002AB23F8020D054A106882689C
:1025C0001269D46A00221D21A04702B010BD00BFCD
:1025D0006000002038B5054B1C68A3681B695D6866
:1025E00013460A4601462046A84738BD6000002031
:1025F00038B5054B1C68A3681B699D6813460A46DD
:1026000001462046A84738BD6000002010B582B0C2
:1026100002AB03F8010D054A106882681269D46A9A
:1026200000220421A04702B010BD00BF60000020BE
:1026300010B582B002AB43F8040D054A10688268F9
:102640001269D46A00220521A04702B010BD00BF64
:102650006000002038B5054B1C68A3681B69DD6A63
:102660000346002232212046A84738BD60000020E2
:1026700008B5044B1B689A681269526901461846EE
:10268000904708BD6000002010B5054B18688368AE
:102690001B69DC6A00231A460321A04710BD00BF56
:1026A0006000002008B5044B1B689A681269126A22
:1026B00001461846904708BD6000002010B582B062
:1026C00002AB43F8040D054A106882681269D46AA7
:1026D00000225121A04702B010BD00BF60000020C1
:1026E00010B582B002AB23F8020D054A106882686B
:1026F0001269D46A00224F21A04702B010BD00BF6A
:102700006000002010B582B0002202AB03F8012D5A
:102710000549086881680969CC6A5821A0479DF875
:10272000070002B010BD00BF6000002000290DDDD1
:1027300010B4431E19441046054C13F8012F5040A5
:10274000205C8B42F9D15DF8044B7047104670470E
:10275000F060020010B582B002AB43F8040D054AE8
:10276000106882681269D46A00221021A04702B062
:1027700010BD00BF6000002038B5054B1C68A36881
:102780001B69DD6813460A4601462046A84738BD46
:102790006000002010B582B002AB43F8040D054A7A
:1027A000106882681269D46A00227421A04702B0BE
:1027B00010BD00BF6000002010B582B0002202AB47
:1027C00043F8042D0449086881680969CC6A7621B8
:1027D000A047019802B010BD6000002010B582B083
:1027E000002202AB43F8042D044908688168096996
:1027F000CC6A7721A047019802B010BD600000208C
:1028000010B582B0002202AB23F8022D05490868FA
:1028100081680969CC6A7A21A047BDF8060002B038
:1028200010BD00BF600000209829024818BF00209A
:10283000704700BFE862020070472DE9F04184B0A4
:1028400005460E46BDF82C10901900F07F0032446A
:10285000C2F30442840044EA422441EA0402120A18
:102860008DF80C2001F003073C438DF80D401F4606
:1028700073B900295CD0730063F07E038DF80C30CF
:10288000012400292FD0A1F5004103290AD9FEE730
:1028900000284FD1B1F5004F03D000294AD10124BF
:1028A00021E001242B6D9B7D4BB92B685D680A9B51
:1028B0003A4603A92046A84704B0BDE8F0810022AB
:1028C000214603A8FFF732FF024639460A98FFF770
:1028D0002DFF2B6800909D680A9B3A4603A920466D
:1028E000A847E9E701242B68D3F800800A9B3A4601
:1028F00003A92046C0472B6D9B7D022BDCD1182EEF
:10290000DAD00022214603A8FFF710FF024639461D
:102910000A98FFF70BFF044600221821284600F012
:1029200041F88442C8D0EB68002BC5D09847C3E774
:102930000028D7D042F040028DF80C200224A0E7F6
:1029400010B582B000240194049C0094FFF775FF39
:1029500002B010BD00B585B003AB0093042392B262
:10296000FFF7EEFF0DF10F030DF10B01002013F83F
:10297000012902EB00208B42F9D105B05DF804FB80
:1029800000B585B003AB0093022392B2FFF7D8FFE6
:102990009DF80D309DF80C0000EB032080B205B0CF
:1029A0005DF804FB00B585B00DF10F030093012322
:1029B00092B2FFF7C5FF9DF80F0005B05DF804FB6C
:1029C00030B5BDB005460C46036DDA7B012A1CD03C
:1029D000032A40F0D4811B7E13F0080F0CD113F0B2
:1029E000040F02AB009314BF3823202300224FF4BE
:1029F000F011FFF7A5FF19E002AB0093E8230022D6
:102A00004FF4F011FFF79CFF10E01B7E13F0080F4E
:102A100040F0AC8113F0040F02AB009314BF3823D5
:102A2000202300224FF4C011FFF78AFF0DF1170297
:102A300004F11A0304F1200012F8011F03F8011B2E
:102A40008342F9D19DF815209DF8143043EA022302
:102A5000C3F30C0363849DF81F209DF81E3043EAE6
:102A60000223C3F30D0313F4005F1CBF6FEA83431B
:102A70006FEA934323849DF825209DF8243043EA90
:102A80000223C3F30B03E3872B6D1B7E13F0020FAE
:102A900040F06A810AAA631E201D12F8011B03F888
:102AA000011FD1791972D17B59748342F5D19DF8F8
:102AB0002F3063719DF82E209DF82D3043EA0223BC
:102AC000E3809DF837209DF8363003EB0223C3F3F3
:102AD000CF13A4F80D309DF832209DF8313043EA31
:102AE0000223A4F80F309DF83F209DF83E3003EB01
:102AF0000223C3F3CF13E3829DF83A209DF83930C7
:102B000043EA022323832B6D1B7E13F0040F40F056
:102B10002B819DF843209DF842301B0443EA026359
:102B20009DF8402013439DF8412043EA022323F0FF
:102B3000604363629DF847209DF846301B0443EADA
:102B400002639DF8442013439DF8452043EA022385
:102B500023F00043A3629DF84B209DF84A301B04EC
:102B600043EA02639DF8482013439DF8492043EA55
:102B70000223C3F31003E3629DF84F209DF84E300B
:102B80001B0443EA02639DF84C2013439DF84D203B
:102B900043EA0223C3F3150323639DF853209DF8F2
:102BA00052301B0443EA02639DF8502013439DF802
:102BB000512043EA0223C3F3150363639DF85720B2
:102BC0009DF856301B0443EA02639DF854201343DA
:102BD0009DF8552043EA0223C3F31503A3639DF830
:102BE00065209DF8643043EA0223A3879DF877208F
:102BF0009DF876301B0443EA02639DF8742013436A
:102C00009DF8752043EA022323F0404323649DF896
:102C100079209DF8783043EA022363649DF87F2091
:102C20009DF87E301B0443EA02639DF87C20134329
:102C30009DF87D2043EA0223C3F31503A3649DF8A6
:102C400083209DF882301B0443EA02639DF88020B4
:102C500013439DF8812043EA0223C3F31503E36481
:102C60009DF887209DF886301B0443EA02639DF897
:102C7000842013439DF8852043EA0223C3F3150300
:102C800023659DF895209DF8943043EA0223C3F311
:102C90000E03A4F854309DF8A5209DF8A43043EA13
:102CA0000223C3F30B03A4F856309DF8BF209DF810
:102CB000BE301B0443EA02639DF8BC2013439DF819
:102CC000BD2043EA022323F04043A3659DF8C120C1
:102CD0009DF8C03043EA0223E3659DF8C7209DF8C4
:102CE000C6301B0443EA02639DF8C42013439DF8D9
:102CF000C52043EA0223C3F3150323669DF8CB20C6
:102D00009DF8CA301B0443EA02639DF8C8201343B0
:102D10009DF8C92043EA0223C3F3150363669DF8B7
:102D2000CF209DF8CE301B0443EA02639DF8CC20EF
:102D300013439DF8CD2043EA0223C3F31503A36692
:102D40009DF8DD209DF8DC3043EA0223C3F30E0337
:102D5000A4F86C309DF8ED209DF8EC3043EA022396
:102D6000C3F30B03A4F86E303DB030BD02AB00934B
:102D7000E82300224FF4C011FFF7E2FD56E61B7E68
:102D800013F0010F00F09F8102AB00936C2300222F
:102D90004FF44021FFF7D4FD1DAB00936C230022BC
:102DA0004FF450212846FFF7CBFD02AA631E201DD9
:102DB00012F8011B03F8011FD1791972D17B5974E4
:102DC000D17D99768342F3D19DF82530E3779DF844
:102DD0000F3063719DF80E209DF80D3043EA0223F9
:102DE000E3809DF816309DF8172043EA0222C2F3D3
:102DF000CF12A4F80D209DF8152042EA0322A4F872
:102E00000F209DF81F2043EA0223C3F3CF13E38270
:102E10009DF81E209DF81D3043EA022323839DF870
:102E200027209DF8263043EA0223C3F30D0313F451
:102E3000005F1CBF6FEA83436FEA934323849DF8CE
:102E400029209DF8283043EA0223C3F30C0363844E
:102E50009DF82F209DF82E301B0443EA02639DF855
:102E60002C2013439DF82D2043EA022323F06043D6
:102E700063622B6D1B7E13F0010F3FF475AF9DF85D
:102E800033209DF832301B0443EA02639DF8302062
:102E900013439DF8312043EA022323F00043A36249
:102EA0009DF837209DF836301B0443EA02639DF8F5
:102EB000342013439DF8352043EA0223C3F3100363
:102EC000E3629DF83B209DF83A301B0443EA02631D
:102ED0009DF8382013439DF8392043EA0223C3F3B9
:102EE000150323639DF83F209DF83E301B0443EA01
:102EF00002639DF83C2013439DF83D2043EA0223E2
:102F0000C3F3150363639DF843209DF842301B040F
:102F100043EA02639DF8402013439DF8412043EAB1
:102F20000223C3F31503A3639DF851209DF850308D
:102F300043EA0223A3879DF861209DF8603043EAAD
:102F40000223C3F30B03E3879DF867209DF86630E7
:102F50001B0443EA02639DF8642013439DF8652037
:102F600043EA022323F0404323649DF869209DF83F
:102F7000683043EA022363649DF86F209DF86E3049
:102F80001B0443EA02639DF86C2013439DF86D20F7
:102F900043EA0223C3F31503A3649DF873209DF84D
:102FA00072301B0443EA02639DF8702013439DF8BE
:102FB000712043EA0223C3F31503E3649DF87720ED
:102FC0009DF876301B0443EA02639DF87420134396
:102FD0009DF8752043EA0223C3F3150323659DF88A
:102FE00085209DF8843043EA0223C3F30E03A4F83E
:102FF00054309DF895209DF8943043EA0223C3F3A2
:103000000B03A4F856309DF8AF209DF8AE301B049A
:1030100043EA02639DF8AC2013439DF8AD2043EAD8
:10302000022323F04043A3659DF8B1209DF8B03002
:1030300043EA0223E3659DF8B7209DF8B6301B04F0
:1030400043EA02639DF8B42013439DF8B52043EA98
:103050000223C3F3150323669DF8BB209DF8BA3005
:103060001B0443EA02639DF8B82013439DF8B9207E
:1030700043EA0223C3F3150363669DF8BF209DF85E
:10308000BE301B0443EA02639DF8BC2013439DF845
:10309000BD2043EA0223C3F31503A3669DF8CD20A8
:1030A0009DF8CC3043EA0223C3F30E03A4F86C303E
:1030B0009DF8DD209DF8DC3043EA0223C3F30B03C7
:1030C000A4F86E3050E602AB0093282300224FF4A0
:1030D0004021FFF735FC68E600B583B0036DDB7B6C
:1030E000012B0BD0032B10D10091052304224FF4A8
:1030F000F011FFF725FC03B05DF804FB00910523F8
:1031000000220549FFF71CFCF5E70091052300228A
:103110006421FFF715FCEEE70400180010B582B03B
:103120004FF400440194049C0094FFF786FB02B026
:1031300010BD10B584B004AC04F8013D0094012327
:1031400092B2FFF7EBFF04B010BD000010B50446CB
:10315000036DDB7B012B13D0032B1DD1F023002249
:103160001249FFF7E6FF00224FF4F0112046FFF767
:1031700007FC236D1A7BA2B1C0F30900588410BD6F
:103180000F2300220949FFF7D4FF00224FF4C0119A
:103190002046FFF7F5FBECE700224C21FFF7F0FBA0
:1031A000E7E700F07F005884E9E700BF2400010052
:1031B00038B505460C46022300224FF47021FFF774
:1031C000B8FF04B938BD012300224FF4702128460E
:1031D000FFF7AFFFF6E700B585B08DF80C301B0A9E
:1031E0008DF80D3003AB0093022392B2FFF796FFE8
:1031F00005B05DF804FB000038B5044600231A460C
:103200004FF42021FFF7E7FF00231A460849204624
:10321000FFF78FFF074D00231A4629462046FFF788
:1032200088FF0223002229462046FFF782FF38BD8F
:1032300014000A0004000A0008B5012902D005297B
:1032400007D008BD41F6220300220549FFF7C3FF5E
:10325000F7E74FF4007300220149FFF7BCFFF0E7E6
:103260000400110038B505460C4641F400739BB2CA
:1032700000224FF43021FFF7AEFFA3B200224FF43B
:1032800030212846FFF7A7FF38BD000070B504467F
:103290000E460C4D012300222946FFF79CFF3346C2
:1032A000002209492046FFF796FF02230022294603
:1032B0002046FFF790FF002204492046FFF74AFB13
:1032C00070BD00BF08000B0004000B0010000B00D5
:1032D00038B504460B4600220A49FFF77CFF0A4D29
:1032E0008823002229462046FFF723FF00231A46A1
:1032F00029462046FFF71DFF002204492046FFF71C
:1033000051FB38BD0C000A0004000A0008000A0046
:1033100070B504460B461546B1F5807F34BF0026D4
:10332000202600220B49FFF756FF2B4600220A49B0
:103330002046FFF7FEFE094D46F090030022294685
:103340002046FFF7F6FE00231A4629462046FFF7DF
:10335000F0FE70BD0C000A0010000A0004000A0014
:1033600070B504460D461646002240F20B11FFF7D9
:10337000CFFF4FF482712046FFF7AAFF00F01F0233
:103380004FF482712046FFF7C3FF236D5A8A15431D
:103390005D82236D5B8A00224FF420212046FFF7D7
:1033A0001AFF3346002202492046FFF7C2FE70BDD5
:1033B00014000A0010B582B00446002200921346A1
:1033C0001321FFF7ABFE236DDA7B032A0CBF01222A
:1033D0000322DA7302B010BD10B584B08DF80C3042
:1033E0001C0A8DF80D401C0C8DF80E401B0E8DF83C
:1033F0000F3003AB0093042392B2FFF78FFE04B0AB
:1034000010BD0000F8B5044600224FF4F811FFF794
:10341000C9FA0546002244212046FFF79BFA0646DA
:10342000236D00225A8483F82420DA611A849A6278
:10343000236D9C62236DD861226DD37D03F003035D
:10344000032B79D016F4806F05D092F8243043F026
:10345000040382F8243015F0800F74D115F0010FA9
:1034600040F0A38015F0400F0BD0636A13B1206DBC
:103470001C3098474FF4C073022244212046FFF7C6
:10348000AAFE15F0080F00F0EA80236D002283F8F1
:103490002420236DDB7B002B40F09580236DDE61C3
:1034A00016F4802F00F0A980226D92F8243043F0AA
:1034B000080382F824304FF4802716F0805F08D08C
:1034C000226D92F8243043F0100382F8243047F044
:1034D000805716F4005F06D0226DD37D03F00303FE
:1034E000032B00F0968016F4804F40F09E8047F446
:1034F000DE43002244212046FFF76EFF206D438CFF
:10350000002B40F0A180C37D03F00303032B00F0E8
:103510009B80C36923F49043C361226DD36943F454
:103520008053D361E36913B1206D1C309847236D3C
:10353000002283F824208BE010F4005F1CBF45F0CC
:103540000805EDB27EE7276D002248212046FFF7EF
:1035500017FA3884236D9A7D1AB1DA6912F0040FD4
:1035600003D11B8C03F460638BB10423002244213C
:103570002046FFF7DEFD4FF460630022482120461D
:10358000FFF729FE236A13B1206D1C309847236D85
:103590001B8C13F4807F3FF461AF4FF480730022E3
:1035A00048212046FFF717FE58E7F8230022442160
:1035B0002046FFF7BEFD2369002B3FF453AF206D7B
:1035C0001C3098474EE73B492046FFF7EBF9236D47
:1035D000DB7B032B08BFC0F3071010F0010F18BFEF
:1035E00046F4804610F0020F18BF46F4005610F063
:1035F000040F18BF46F4806650E716F4806F1FBFB3
:10360000226D92F8243043F0040382F8243000271E
:1036100053E792F8243043F0020382F82430236DFC
:1036200000225A8447F4004761E72046FFF78EFDE9
:1036300010F4004F3FF45BAF226D92F8243043F05A
:10364000010382F8243052E763690BB11C309847BC
:10365000236DDB7B53B9236D002283F8242015F002
:10366000100F07D115F0200F14D1F8BD2046FFF739
:10367000A1FEF0E7104B002244212046FFF7ACFEEC
:10368000E36913B1206D1C309847236D002283F845
:103690002420E7E7094B002244212046FFF79CFE47
:1036A000A36913B1206D1C309847236D002283F865
:1036B0002420DAE7240001000094053400042210DD
:1036C00038B5044689B900222C21FFF743F9054695
:1036D00001224FF460212046FFF764F92B1A0022E3
:1036E0002C212046FFF778FE38BD00222C21FFF761
:1036F00031F90546012205492046FFF753F92B1AF7
:1037000000222C212046FFF767FEEDE704000100B0
:1037100070B506460C46084D00222946FFF71AF9F7
:10372000000D0005C4F3130303430022294630466D
:10373000FFF752FE70BD00BF0800010038B5054616
:103740000C4600224FF4A021FFF704F90B4B034075
:1037500014F0010F18BF43F4802314F0020F18BFB8
:1037600043F4104314F0040F18BF43F01203002277
:103770004FF4A0212846FFF72FFE38BDC00FE0FF11
:1037800038B505460C460B6800220B49FFF724FEAE
:103790006368002209492846FFF71EFEA36800223D
:1037A00007492846FFF718FEE36800220549284626
:1037B000FFF712FE38BD00BF0C000200100002002F
:1037C000140002001800020038B505460C460B68CC
:1037D00000220B49FFF700FE6368002209492846D2
:1037E000FFF7FAFDA368002207492846FFF7F4FD1A
:1037F000E368002205492846FFF7EEFD38BD00BF0B
:103800001C00020020000200240002002800020028
:103810002DE9F0470446052940D0264D2E46264F77
:10382000DFF8D880DFF8D890DFF8D8A0234B00224B
:1038300023492046FFF7D0FD534600222149204668
:10384000FFF7CAFD4B4600221F492046FFF7C4FD83
:10385000434600221D492046FFF7BEFD3B4600229D
:103860001B492046FFF7B8FD334600221949204680
:10387000FFF7B2FD2B46002217492046FFF7ACFDAB
:10388000164B002216492046FFF7A6FD154B0022D5
:1038900015492046FFF7A0FDBDE8F087134D144EF3
:1038A000144FDFF86480DFF86490DFF864A0124BF7
:1038B000BDE700BFB5AF02007DAF0200FEA8020069
:1038C000380003003C0003004000030044000300F4
:1038D000480003004C0003005000030040020010A9
:1038E0001C00030089A46D1B20000300F5CF01001C
:1038F000B5CF010036CF0100FDC001003EAF020090
:10390000FEA5020036AC02007EC70100BEC6010063
:103910003EC4010008B500231A460249FFF75CFDCA
:1039200008BD00BF0400070038B504460D4600235B
:103930001A460A49FFF750FD00231A464FF4E021CA
:103940002046FFF749FD05B938BD4FF0E05300228E
:1039500003492046FFF740FDF6E700BF4800070097
:1039600014000700F0B583B0046DE47B032C0CBF9A
:103970004FF4981C4FF4901C9C18B4F5806F19DA22
:103980001D4616460F4604467F2B15D94FEA1C43A9
:1039900000220D49FFF720FD2B4600220B4920464F
:1039A000FFF71AFD0097334600224FF4E811204636
:1039B000FEF7C6FF03B0F0BD009113462A466146EC
:1039C000FEF7BEFFF6E700BF04001F0008001F005F
:1039D00030B583B005460C4671B121F00203013BBE
:1039E0000F2B56D8DFE803F01055552155555528B3
:1039F0005555555555555533002200921346022111
:103A0000FFF78CFB20460EE00022009213460421B3
:103A1000FFF784FB032244212846FEF7C3FF10F082
:103A2000080F1FD1002003B030BD002200921346C2
:103A30000A21FFF773FBEDE70021FFF741FE0022AB
:103A40000092134608212846FFF768FBE2E70121B0
:103A5000FFF736FE00220092134606212846FFF7A4
:103A60005DFBD7E7002100910B460A462846FFF789
:103A700055FB14F0020F02D04FF0FF30D3E70022C5
:103A80000092134602212846FFF748FB4FF0FF3013
:103A9000C9E74FF0FF30C6E7F0B583B05C18B4F566
:103AA000806F24DA1C4617460E4605467F2B15D933
:103AB000142300220F49FFF78FFC234600220E49F2
:103AC0002846FFF789FC0097334600224FF4E8119F
:103AD0002846FFF723FB002003B0F0BD00920B4601
:103AE00022464FF4A011FFF719FB0020F4E74FF036
:103AF000FF30F1E704001F0008001F0030B585B05B
:103B0000089C8DF808301D0A8DF809501D0C8DF8A1
:103B10000A501B0E8DF80B308DF80C40230A8DF8DF
:103B20000D30230C8DF80E30240E8DF80F4048F226
:103B30000303019302AB0093082392B2FEF77DFECC
:103B400005B030BD00B583B0052904D009290BD0DC
:103B500003B05DF804FB402300936FF40053002290
:103B60000649FFF7CBFFF3E74FF4015300936FF4DF
:103B7000005300220149FFF7C1FFE9E708000B00ED
:103B800070B582B004460E46134D4FF008230093E3
:103B90004FF0FF3300222946FFF7B0FF4FF06013CC
:103BA00000934FF0FF33002229462046FFF7A6FF7F
:103BB0000A4B00934FF0FF3300224FF4E0212046E0
:103BC000FFF79CFF0EB902B070BD054B00220549FE
:103BD0002046FFF701FCF6E748000700003C000222
:103BE000001101011400070000B583B0054B0093DC
:103BF0004FF0FF3300220449FFF780FF03B05DF868
:103C000004FB00BF003C0002040007002DE9F04364
:103C100083B004460D461746564E00223146FEF745
:103C200099FE81464FF4704300934FF0FF3300221A
:103C300031462046FFF762FFDFF83C81182300225F
:103C400041462046FFF7C7FA25212046FFF70AFB29
:103C500002212046FFF706FB4FF4FE712046FFF7D6
:103C600001FBF9B241F480712046FFF7FBFA4FF4F3
:103C700080712046FFF7F6FA00212046FFF7F2FA9E
:103C800002212046FFF7EEFA4FF4E0712046FFF7DD
:103C9000E9FAE9B241F480712046FFF7E3FAC5F38F
:103CA000072141F480712046FFF7DCFAC5F3074194
:103CB00041F480712046FFF7D5FA290E41F4807156
:103CC0002046FFF7CFFA00212046FFF7CBFA3A2132
:103CD0002046FFF7C7FA40F2FF112046FFF7C2FA6D
:103CE0004FF485712046FFF7BDFA00212046FFF70B
:103CF000B9FA3A212046FFF7B5FA40F20111204601
:103D0000FFF7B0FA022300224FF430212046FFF7DC
:103D100062FA00231A464FF430212046FFF75BFA7F
:103D200002200CF089F83A212046FFF79BFA4FF465
:103D300081712046FFF796FA022300224FF43021CA
:103D40002046FFF748FA00231A464FF43021204658
:103D5000FFF741FA00231A4641462046FFF73BFA97
:103D60004B46002231462046FFF736FB03B0BDE844
:103D7000F08300BF4400070008000B00F0B583B0DB
:103D8000002423460126072702E00134092C09D02C
:103D900006FA04F50D42F8D004EB440507FA05F5E0
:103DA0002B43F2E71A400092DB4300224FF4A0219C
:103DB000FFF7A4FE03B0F0BD2DE9F04182B0044648
:103DC000884617461D460BF0F5FF0646022D2DD0FE
:103DD000012D38D0002500956FEA08032A463C21C2
:103DE0002046FFF78BFE0095FB432A4640212046E4
:103DF000FFF784FE00223C212046FEF7ABFD034680
:103E0000002244212046FFF7E7FA00224021204605
:103E1000FEF7A0FD0346002248212046FFF7DCFA0A
:103E200030460BF0DFFF02B0BDE8F08143460022D0
:103E30003C212046FFF7D0FA3B4600224021204695
:103E4000FFF7CAFAD6E7CDF800804FF0FF33002223
:103E50003C212046FFF752FE00974FF0FF3300222F
:103E600040212046FFF74AFEC4E7000010B582B0AB
:103E700004467F2A12D9803241EAC32141EA024135
:103E800000910C4B00222421FFF738FE00224FF452
:103E900000212046FEF786FD02B010BD41EAC32195
:103EA00041EA02410091034B00222421FFF726FE44
:103EB000F2E700BF00F400FC00B583B000920B46AF
:103EC00000224421FFF71AFE002003B05DF804FB36
:103ED00000B585B08DF80C309DF818308DF80D3098
:103EE00048F20103019303AB0093022392B2FEF761
:103EF000A4FC05B05DF804FB30B583B004460D4664
:103F000011F0010F15D000230093EF2302224FF48C
:103F10006021FFF7DDFF236D1D76236D1B7E5B089F
:103F200010D06B0800220E492046FFF702F903B0BB
:103F300030BD10230093FF2302224FF46021FFF7CE
:103F4000C7FFE8E701230093FF230022044920462E
:103F5000FFF7BEFF226D137E43F002031376E6E700
:103F60002800010070B582B004460D460121FFF71C
:103F700063F900212046FFF703FE2046FFF734FED9
:103F8000C5F30B03002215492046FFF724F903234C
:103F90000093FF23002212492046FFF799FF104E9D
:103FA00000252A4631462046FEF7FCFC10F0010FA2
:103FB000F7D12046FFF7AEFC00212046FFF7B4FC06
:103FC00005212046FFF738F9002206492046FEF772
:103FD000E9FC00F03F0002B070BD00BF1C0008000B
:103FE000100008001C00070038B505460C46B1F863
:103FF000051049B1FFF7B6FFD4F80130002205499A
:104000002846FFF7E9F938BD237800220249FFF777
:1040100090F8F1E70C0001001C00070030B583B0F8
:1040200004460D4610230093FF2300220649FFF7A4
:104030004FFF2B46022D38BF022300222C212046A1
:10404000FFF7CAF903B030BD24000F0030B583B0CC
:10405000044601291DD0022930D001230093FF23FB
:1040600000222649FFF734FF254D4FF4000300934B
:104070006FF48073002229462046FFF73FFD00239E
:1040800000937F23022229462046FFF721FF03B039
:1040900030BD0521FFF7D0F84FF4817300934FF046
:1040A000FF33002217492046FFF728FD0122009226
:1040B000FF2313492046FFF70BFFE8E70323009394
:1040C000FF2300220D49FFF703FF0D4D4FF40003BE
:1040D00000936FF48073002229462046FFF70EFDFF
:1040E000002300937F23022229462046FFF7F0FE9B
:1040F00005212046FFF7A0F8C9E700BF0400110022
:10410000080011000800090030B583B005460229F7
:104110000ED000240094FE2322461021FFF7D8FE83
:104120002346224614212846FFF755F803B030BD38
:10413000144601230093FF2300221021FFF7C8FE3D
:104140002346002214212846FFF745F8EEE7000039
:104150002DE9F04182B00546294C2A4B0022214628
:10416000FFF73AF910230093FF2300222146284647
:10417000FFF7AEFE03244FF01408234F00264046FD
:104180000BF064FE324639462846FEF70BFC012848
:1041900034D0631E13F0FF04F1D16FF00204184E07
:1041A00000231A4631462846FEF7C3FF01230022AA
:1041B00015492846FEF7BDFF01230093FF23022285
:1041C00031462846FFF784FE002210492846FEF7B4
:1041D000C1FB6FF06043984208BF6FF003040022F8
:1041E0000B492846FEF7B6FB6FF06043984214BFB8
:1041F00020466FF0040002B0BDE8F0810024CEE755
:104200000C0004000100020020000400140004005F
:104210001C00040000B583B000290BBFFF23F72367
:1042200000220822009201221021FFF751FE03B064
:104230005DF804FB10B584B0BDF818408DF80C3063
:104240001B0A8DF80D308DF80E40240A8DF80F40B2
:1042500048F20203019303AB0093042392B2FEF7EA
:10426000ECFA04B010BD000010B582B004464FF463
:10427000C07300934FF6FF7300220749FFF7DAFF80
:10428000236D1B7A00934FF6E0730022034920460A
:10429000FFF7D0FF02B010BD08000B001F00110097
:1042A00030B583B0044611F0010F1FD00D464FF416
:1042B000107300936FF47C6300224FF4A021FFF78A
:1042C0001DFC4FF4040300934FF0FF330022184904
:1042D0002046FFF713FC15F0020F1AD14FF4887334
:1042E000002214492046FFF777F810E000250095DA
:1042F0006FF47C632A464FF4A021FFF7FFFB009583
:104300004FF6FF632A460B492046FFF793FF03B0A1
:1043100030BD084D084B002229462046FFF75CF8C7
:104320004FF48873002229462046FFF755F8EEE740
:10433000040011001600110010010F00F0B583B049
:104340000446012909D014200BF080FD2046FFF718
:10435000FFFE0546284603B0F0BD0F4E0022314651
:10436000FEF70EFB074640F2051300934FF6FF736E
:10437000002231462046FFF75DFF14200BF066FD5A
:104380002046FFF7E5FE0546002200923B463146F7
:104390002046FFF74FFFDDE74800070000B583B078
:1043A000012A09D0CB43002200929BB20649FFF7B5
:1043B00041FF03B05DF804FB00914FF6FF7300224C
:1043C0000149FFF737FFF4E70C000500F0B583B0B3
:1043D00004460F4616461D4648F2400300934FF62A
:1043E000FF7300221849FFF725FFAA1943F20103C2
:1043F0009A4215DC7F2D1DD9152300221349204632
:10440000FEF7EAFF2B46002211492046FEF7E4FFA3
:104410000097334600224FF4E8112046FEF790FA49
:104420000022009247F6BF7307492046FFF702FFBC
:1044300003B0F0BD009733462A464FF4A81120463A
:10444000FEF77EFAECE700BF0400110004001F0035
:1044500008001F0070B506460C4615460E4B02229A
:104460000E49FEF7B9FF0F2DA8BF0F25631E032BC2
:1044700028BF042410232341002209493046FEF7B7
:10448000ABFF631E9B0005FA03F30022054930468B
:10449000FEF7A2FF70BD00BF7408D200100011002B
:1044A00028000700180008002DE9F04F83B00446EB
:1044B0000D4691F800900B79182B14D8CF78182F4F
:1044C00094BF00270127FFB2EB79012B0CBF10210D
:1044D00000216B78013B062B10D8DFE803F0060FB4
:1044E0000F120C0F09000127EDE74FF0400A0AE018
:1044F0004FF0480A07E04FF0800A04E04FF4807A5A
:1045000001E04FF0200A226D538A23F0E00353822A
:10451000236DEA791A732E7BB31C01269E401FFA85
:1045200086F8226DC74B03FB08F3DB0B9382236DE8
:10453000EA7ADA752B7A5B0103F020036A7B43EA9F
:104540000243EA7A120302F4304213430B4300930E
:10455000BD4B002210212046FFF7D0FA002F40F07B
:10456000F680EB7AF3B16B7B012B40F21C812A7B46
:10457000B64B33F812201201D30AC2F30A0202F535
:104580008062B2F5006F28BF01339BB20AEBC80A04
:1045900003F07F0300934FF680730222AC4920465C
:1045A000FFF748FE94230093AA4B0022AA49204615
:1045B000FFF7A4FABAF1FF0F40F30881226D538A86
:1045C00043F0200353824FF4806300934EF2FF7355
:1045D0000022A2492046FFF72DFE6B7B012B00F045
:1045E0000081AB7843F010030093FC2300224FF4CA
:1045F000C0212046FFF76CFC731EDBB200224FF493
:1046000000312046FEF795FD6B78072B0CBF082381
:104610000023012228212046FEF78BFD904B00222B
:1046200090492046FEF7D8FE00228F492046FEF72B
:1046300091F920F4FF5020F01F00B9F1090F08BFD5
:1046400040F001002A79120202F4F852EB78DB0004
:10465000DBB21A436B795B0003F006031343034399
:10466000002281492046FEF7B7FEAA796B781B032A
:1046700043EA822300936FF47443002224212046EE
:10468000FFF73CFAB5F8093023B96FF07E036B727F
:104690000023AB72B5F8093002224FF4C021204646
:1046A000FEF799FD022271492046FEF77BF9236D42
:1046B0001B7C4B4500F09F80032800F0A080B9F1DF
:1046C000090F00F0A1806A4B00226A492046FEF7DC
:1046D00083FE41F63C7300224FF410212046FEF782
:1046E0007AFD1423012264492046FEF722FD0E23A1
:1046F000022262492046FEF71CFD81230022604908
:104700002046FEF716FD0223002244212046FEF734
:1047100010FD01212046FFF799FC4FF0320B4FF0BE
:1047200014080027442640460BF090FB3A463146D9
:104730002046FEF737F910F0020F40F0AB800BF186
:10474000FF3313F0FF0BEED16FF00100CFE0226DCD
:10475000538A43F0600353824FF4406300936FF435
:10476000C05300223D492046FFF7C8F940F2063306
:10477000002244492046FEF72FFE00231A464FF040
:104780000E112046FEF728FE3F4B002230492046FE
:10479000FEF722FE9D2300932E4B00222E49204639
:1047A000FFF7ACF919E72A7B284B33F812304FF4A6
:1047B000356202FB03F2930CC2F3CA1202F5806267
:1047C000B2F5006F28BF01339BB2DFE64FF4A05370
:1047D00000934EF2FF73002220492046FFF72AFD86
:1047E000FBE6AB780093EC2300224FF4C021204677
:1047F000FFF76EFB00E703287FF461AF4DE0022175
:104800002046FFF723FC5AE7204B00221949204697
:10481000FEF7E2FD40F63C7300224FF410212046E3
:10482000FEF7D9FC5DE74FFA89F12046FFF78AF9D8
:1048300040E000220092FE2315492046FFF748FB86
:1048400042E000BF68660200CF4FFCFF2063020019
:1048500012000E0000FFFFBF16000E0008000B0044
:10486000CC355FAF0C0006001400010030000F00D3
:104870003411071C1C000700500007001800070037
:10488000080009000C000E000A5A0C003400011C3C
:1048900018000300236D83F810902B79093BDBB2DD
:1048A0000F2BC6D8236D5B7A012BBCD0494620461E
:1048B000FEF7AEFF4FF4C843009348F2FF13002207
:1048C0000C492046FFF7B6FCBAF1400FCCBF4FF0C1
:1048D00000534FF0A05300936FF07F43002206492E
:1048E0002046FFF70BF901212046FFF727FD03B013
:1048F000BDE8F08F18000300100006002DE9F04F0E
:1049000091B0064615461C469C2900F29F80DFE8C0
:1049100011F06D0A780AA300A700BE0048018E01BD
:104920006B0152019E01A901B101B901C101C90187
:10493000D101D501DD016E027C0281028B02900261
:1049400095029E02A30209031B03260331033B03C6
:10495000730369035F0345035203C103F8012B028C
:1049600039024102550296099B098203DF03E303E2
:10497000EC03F103FB0305040D04370443044E0468
:1049800078035904620474048D049E04E004EA046C
:104990000B051A053505230551059705AF05CF050C
:1049A000E405F80501061D060A0673079F07ED07D3
:1049B000F307FE071708370841084B0879088208F3
:1049C000880891089E08AB08B508BE08C708D20839
:1049D000DD08E308060911091C0945096709720980
:1049E0008B09A109160A200A2B0A800A350A620AD5
:1049F0009107DF09000AEE0AE30A8D0A980AA30A62
:104A0000AE0AB90AC40ACF0AD80AD80B120C4D0C48
:104A1000700C290D3E0D190B9D009D009D009D0001
:104A20009D009D009D009D009D009D009D009D009E
:104A30009D009D009D009D009D009D009D00870C98
:104A4000A50CCE0DEF0CE40C030DFA0C4FF0FF3566
:104A5000284611B0BDE8F08F436898470025F7E776
:104A60000222B749FDF79EFF032801D80025EFE792
:104A70000BF0A0F90446002500952B462A4629464E
:104A80003046FEF74BFB20460BF0ACF9E0E7002C7C
:104A900001F01085247814F01D0F65D014F0010F7B
:104AA00026D014F0020F4FF000020092134614BFFC
:104AB0000D210321FEF732FB032244213046FDF78E
:104AC00071FF10F0080F45D100229D493046FDF7D7
:104AD00041FFB0F5502F18BF0025B9D1002100913A
:104AE0000B460A463046FEF719FB4FF0FF35AFE79D
:104AF00014F0080F0ED114F0100F1BD114F0020F98
:104B00004FF000020092134614BF10210921FEF756
:104B100005FBD1E70021FEF7D3FD14F0020F4FF0A3
:104B200000020092134614BF0F2107213046FEF702
:104B3000F5FAC1E70121FEF7C3FD14F0020F4FF0B3
:104B400000020092134614BF0E2105213046FEF7E5
:104B5000E5FAB1E7002100910B460A463046FEF720
:104B6000DDFA4FF0FF3573E714F0200F0CD014F08E
:104B7000020F4FF0000500952B462A4614BF112165
:104B80000B21FEF7CBFA63E714F0020F4FF000059C
:104B900000952B462A4614BF0C210121FEF7BEFAD0
:104BA00056E7002C01F08984236800222C21FEF7AF
:104BB00013FC00254CE7236800226249FEF70CFC39
:104BC0006368002260493046FEF706FCA3680022B5
:104BD0005E493046FEF700FCE36800225C4930463F
:104BE000FEF7FAFB002533E7002C01F069842388E7
:104BF0006568032D01F26784DFE805F002070D13F5
:104C000000225449FEF7E7FA22E702225149FEF753
:104C1000E2FA00251CE700224F49FEF7DCFA0025E6
:104C200016E702224C49FEF7D6FA002510E7002CC1
:104C300001F04C8423785B0003F0060300936FF0CF
:104C4000060300224549FEF759FF002500E74FF40F
:104C5000803300934FF0FF3300224149FEF74EFFAF
:104C60000025F5E6002C01F03484036D5B7B237096
:104C70000025EDE6002C01F02F84036D9B7A237054
:104C80000025E5E6002C01F02A84036DDB7A237011
:104C90000025DDE6002C01F02584036D1B682360F0
:104CA0000025D5E6002C01F02084036D5B682360AD
:104CB0000025CDE6FEF77EFB0025C9E6002C01F0BD
:104CC00017842168FEF724FD0025C1E6002C01F0C1
:104CD000128425785DB1646840230093FF2300228D
:104CE0001021FFF7F5F8022D07D1F46005E000224E
:104CF0000092BF231021FFF7EBF8336D9D7500255F
:104D0000A6E6002C01F0FA83656823780322154992
:104D1000FEF70FFA45B9002200924FF2FF731021FF
:104D20003046FFF787FA93E64FF4812300934FF064
:104D3000FF33002210213046FEF7E0FE002587E613
:104D400030000F0054000100580001005C00010019
:104D500060000100180001001C00010014000100A7
:104D6000040011000800010000221146FDF7F2FDC9
:104D7000B268136843405268134214BF4FF0FF35C6
:104D8000002565E6002C01F0BC832178FFF7B4F81C
:104D900000255DE63AB9002200924FF2FF73AE495A
:104DA000FFF748FA54E64FF4006300934FF6FF73A1
:104DB0000022A949FFF73EFA002549E602F0010268
:104DC0004FF6FF734FF2FF71002A08BF0B46D20265
:104DD00015F0020F12BF42F4805223F480539BB2AD
:104DE000009200229C49FFF725FA002530E62AB9F7
:104DF0009A4B02229A49FEF7EFFA29E6994B0222D2
:104E00009749FEF7E9FA002522E61146FEF796FCDF
:104E100000251DE6002C01F0778300229249FDF762
:104E2000C1FD2070002513E62146FEF7A9FC0025F0
:104E30000EE62146FEF7C8FC002509E60123009393
:104E4000FF2300228949FFF743F8002500E61146B9
:104E5000FEF7DEFC0025FBE5036D1B7A002B37D146
:104E60001423012282493046FEF763F918230022F9
:104E700080493046FEF7B0FAE82300227E493046EA
:104E8000FEF7AAFA336D5B8A03F0E003202B22D0F1
:104E9000602B2BD0336D1B7E5B0832D0002277490C
:104EA0003046FDF76DFDC0F3C403093B0F2B01F243
:104EB0002E8300F0010000280CBF05210921336D6D
:104EC0005B7A012B29D03046FEF7A2FC0025BFE516
:104ED000FFF7CAF9C4E74FF4806300936FF4C0533F
:104EE000002267493046FEF709FED3E74FF44063DE
:104EF00000936FF4C053002261493046FEF7FEFD77
:104F0000C8E7012300225F493046FEF712F9326DEF
:104F1000137E43F002031376C0E73046FEF712FE1D
:104F2000002595E5002C01F0F5822378026DD375FC
:104F30001B0303F43043009344F6FF730022102157
:104F4000FFF778F9002583E5002C01F0E68223883D
:104F500000224FF46021FEF73EF9002578E5002C91
:104F600001F0DE8200224FF46021FDF709FD208070
:104F700000256DE5002C01F0D682238800224249ED
:104F8000FEF729F9002563E5002C01F0CF8200220D
:104F90003D49FDF7F5FC2080002559E5002C01F086
:104FA000C882A388E288216800914FF4B011FEF70F
:104FB000B5F800254CE5002C01F0BE82A388E288FC
:104FC000216800914FF4B011FDF7BAFC00253FE5D0
:104FD000002C01F0B482E388A2882168FEF7C2FCAD
:104FE000002535E5002C01F0AD82E3882268A18818
:104FF000FEF752FD00252BE51146FEF7E9FC0025E2
:1050000026E5002C01F0A182237962882188FEF731
:105010002DFF00251CE5002C01F09A82036DDB7B3F
:10502000012B0CD0032B10D10C224FF4F011FDF703
:10503000A7FC00B240F30C032380002508E5002202
:105040001249FDF79DFC00B2F4E700221049FDF77C
:1050500097FC00B2EEE700BF080011007408D20010
:10506000100011007488D2041C0007000400020024
:10507000500007000C001F0010001F00140001006A
:1050800008000B0028000100040001000C001800BB
:1050900020000C00002C01F05E820CAB0093032377
:1050A0000022BB49FDF74CFC9DF832209DF83130C1
:1050B00003EB02229DF8303003EB022313F4801F30
:1050C0001CBF6FEA03336FEA133323600025BFE48C
:1050D000FEF792F80025BBE4002C01F03F826188C6
:1050E000FEF740FF20700025B2E42146FDF768FC82
:1050F0000025ADE4002C01F0348201227421FDF77B
:1051000029FC20600025A3E4002C01F02D82002260
:105110007421FDF71FFC2060002599E4009405230D
:1051200000227421FDF70CFC002591E4002C01F015
:105130001E82036DDB7B012B14D0032B19D11622A9
:105140004FF4F011FDF71CFCC0F30D0083B213F413
:10515000005F04D06FEA83436FEA934318B2208064
:10516000002575E402228B49FDF70AFCC0F30D000F
:10517000ECE702228849FDF703FCC0F30D00E5E7E8
:105180000094062300228549FDF7DAFB637903F0DA
:105190000103637100255BE4002C01F0EB81012227
:1051A0004FF00811FDF7FEFB2070002550E4002CA5
:1051B00001F0E38100224FF00811FDF7F3FB2070AE
:1051C000002545E4002C01F0DB81A2882168FEF770
:1051D0001DFD00253CE4002C01F0D5812568A48844
:1051E00022462946FEF712FD21463046FEF74EF8CC
:1051F0002D1A18BF4FF0FF352AE4022A0ED0684C52
:1052000000231A4621463046FDF793FF0223002271
:1052100021463046FDF78DFF002519E40023009359
:10522000FE2301225F49FEF753FEE8E7002C01F060
:10523000AD812488E2B24FF48171FEF769F8220A49
:1052400040F203113046FEF763F8002500E4002C1D
:1052500001F09F81DFF8588110230093FF23002283
:105260004146FEF735FE4FF482713046FEF730F8C6
:1052700000F0E0052A464FF482713046FEF748F808
:1052800045F004024FF482713046FEF741F80220E7
:105290000AF0D2FD4FF487713046FEF719F8074641
:1052A00040F20F113046FEF713F881462A464FF4BC
:1052B00082713046FEF72CF800250095EF232A4630
:1052C00041463046FEF704FE47EA09272780FFF7EC
:1052D000BFBB002C01F06081A2782188FEF740F866
:1052E0000025FFF7B5BBFDF787FF01200AF0A4FDFD
:1052F00003230093FF2300222B493046FEF7E8FDED
:1053000000231A464FF488113046FDF712FF0120A2
:105310000AF092FD336D0025DD7302225A829D75DD
:10532000DD751D74FFF794BB002C01F038812378E4
:1053300003F03F03026D937300221C49FDF7F9FE51
:105340000025FFF785BB002C01F02C81036D9B7BB2
:1053500023700025FFF77CBB0121FEF711FC3046CE
:10536000FEF742FC01213046FDF766FF0F220121C6
:105370003046FFF76FF80025FFF76ABB002C01F0FD
:10538000148162682168FFF765F80025FFF760BBAC
:1053900029000600140018001C000C0018000C0066
:1053A00004000A00080011000400110014000900A4
:1053B00048000700002C01F0FB80D64D0022294652
:1053C000FDF7F0FA804602230093FF2300222946CE
:1053D0003046FEF77DFD04230022CF493046FDF71D
:1053E000A8FE012300224FF400213046FDF7A1FE64
:1053F000CA4F00252A4639463046FDF7D3FA10F049
:10540000010FF7D000224FF008113046FDF7B8FA2F
:10541000054600231A464FF400213046FDF789FE69
:1054200000231A46BC493046FDF783FE434600225E
:10543000B8493046FDF77DFE25800025FFF708BB03
:10544000002C01F0B8802379026DD27A9B1A07EE06
:10545000903AF8EEE77A9FEDB27A67EE877AB3EE8C
:10546000067A77EE877AC4ED007A0025FFF7F0BA66
:10547000002C01F0A3802379026D927A9B1A07EE2B
:10548000903AF8EEE77A9FEDA77A67EE877AB3EE67
:10549000007A67EE877ADFEDA46A87EEA67AF0EEEF
:1054A000087A77EE277AC4ED007A0025FFF7D0BAA4
:1054B000002C01F0868024680121FEF761FB304654
:1054C000FEF792FB01213046FDF7B6FE214630463D
:1054D000FEF7A4FD0025FFF7BBBA00250095EF23DA
:1054E0002A469249FEF7F4FC05213046FDF7A4FE5A
:1054F00001213046FEF718FA3046FEF70BFAFFF7A7
:10550000A7BA00250095EF232A468849FEF7E0FC5C
:10551000FFF79EBA002C01F057802168FEF77EFD50
:105520000025FFF795BA00228149FDF729FAC0F35B
:105530000B0510F4006F18BF45F470452DB225809F
:10554000336DB3F91430ED1AFFF782BA002C01F075
:105550006D80D4F80490237A99F81320FF2A00F084
:105560003F81002B36D1D9F8003000930C23002264
:105570007049FDF7D3FD99F80C30B9F80E20D11819
:1055800099F81220002A5FD199F8100000280BBF6B
:105590007F224FF480624FF4B0154FF4A01599F8B4
:1055A0001300121A023A914200F22081D9F8042025
:1055B0000092002229463046FDF7B0FDB9F80E30C2
:1055C00099F80C20D9F80810009129463046FDF7CB
:1055D000A5FD4AE0D9F80030B9F80E109A7A8DF896
:1055E00030205A7A8DF831201A7A8DF83220DA7903
:1055F0008DF833209A798DF834205A798DF835203A
:105600001A798DF83620DA788DF837209A788DF867
:1056100038205A788DF839201A788DF83A200022EF
:105620008DF83B208DF83C10090A8DF83D10197B50
:105630008DF83E10DB7A8DF83F300CAB00931023D1
:105640003C49FDF76BFD96E7012A40F0CC8099F8C4
:105650001130002B40F2FF3308BF7F2399F813204D
:105660009B1A023B994200F2C48099F81020531E05
:10567000DBB2012B40D999F81130591EC9B201296A
:1056800064D9042B69D042EA433300222A493046C8
:10569000FDF7A2FEB9F80E30284A02EAC31299F8C3
:1056A0000C3003F07F031343002225493046FDF7F9
:1056B00093FE0123002223493046FDF73AFDDFF82F
:1056C000888000273A4641463046FDF76BF910F0D6
:1056D000050FF7D00546034600221B493046FDF76B
:1056E00028FD05F03F0525F03003012B42D06BB2B9
:1056F00023700025FFF7ACB9336DDB7B032B01F082
:105700002E8099F811305A1ED2B2012A2CD90122CA
:10571000B7E700BF48000700340007000400080096
:105720006666863FCDCCCC3E00007F4324000F0050
:1057300008000200340001004400010080FF010065
:10574000480001004C00010050000100336DDB7B7C
:10575000032B0CBF0223012395E7B9F80E10102983
:1057600091D96FF00303C3E7012213468BE70222AE
:10577000134688E799F81230012BB8D199F8112017
:10578000531EDBB2012B1BD9032A0CBF4FF4A01709
:105790004FF4B017D9F8042012B199F80C30C3B9FE
:1057A000D9F808100029A2D0B9F80E30002B9ED0ED
:1057B00099F80C20009139463046FDF7C1F896E77C
:1057C000336DDB7B032B0CBF4FF498174FF490170E
:1057D000E0E70092002239463046FDF7B1F8DFE7F6
:1057E0006FF0020384E76FF0010381E74FF0FF33AE
:1057F0007EE74FF0FF337BE7237AE179A279D2008D
:1058000042EA41021343627943EA8213227943EA6E
:10581000C213E27843EA0223A27843EAC223627801
:1058200043EA02339BB20022CD49FDF7D4FC0025A8
:10583000FFF70EB9002C00F0FC86637833B15B08EB
:10584000013BDBB223700025FFF702B90023F9E723
:105850000022C449FDF77EF8C0F30B032380C0F398
:105860000B4060800022C0493046FDF773F8C0F35A
:105870000B03A380C0F30B40E0800022BB493046FD
:10588000FDF768F82072000C60720022B8493046BB
:10589000FDF760F8C0F30B43A381C0F30B006081F8
:1058A0000022B4493046FDF755F8C0F30B43A4F885
:1058B0000F30A0730022B0493046FDF74BF86074FA
:1058C000000CA0740022AD493046FDF743F8C0F348
:1058D0000B00A4F8130000256575A5752A46A84994
:1058E0003046FDF75FF8E075FFF7B2B81146FDF7F7
:1058F0005FFC0025FFF7ACB8002C00F09D862388E4
:105900000022A049FDF767FC0025FFF7A1B8002C95
:1059100000F09586256835B900231A469A49FDF7A7
:105920005AFCFFF795B86279237943EA022323F002
:10593000F00300229449FDF74EFC0025FFF788B8DC
:10594000002C00F07F8623684BB9002500954FF6A8
:10595000FF532A461021FEF76DFCFFF779B80022AD
:105960003421FDF739FD4FF4007300934FF6FF73B8
:10597000002210213046FEF75DFC0025FFF768B8D5
:10598000002C00F062866188FDF7A2FC20700025E3
:10599000FFF75EB8002C00F05B86A2782188FDF747
:1059A000B7FC0025FFF754B8784B794A012D18BF92
:1059B0001346012D774918BF4FF00C11026DD27BB1
:1059C000012A12D0032A17D1A2F5C012013A1A44B3
:1059D0004FF4F011FCF7D4FFC00920802588003572
:1059E00018BF01256D42FFF733B802221946FCF7B4
:1059F000C7FFC0092080F1E70222FCF7C1FFC00900
:105A00002080EBE7002C00F026862178FEF748FC8A
:105A10000025FFF71DB81146FEF718FB0025FFF71C
:105A200017B80094042300221C21FCF789FF0025ED
:105A3000FFF70EB8002C00F0118602224421FCF77B
:105A40009FFFC0F3002020700025FFF701B8002C55
:105A500000F0078600224421FCF7A4FF00F00100BB
:105A600020700025FEF7F4BF002C00F0FD85628851
:105A70002188FEF749FB0025FEF7EABF00940823C2
:105A800000220421FDF74AFB0025FEF7E1BF009448
:105A9000082300220421FCF753FF0025FEF7D8BF9E
:105AA000002C00F0E485238802220C21FDF793FBF3
:105AB0000025FEF7CDBF002C00F0DC8523880022F6
:105AC0000C21FDF788FB0025FEF7C2BF2146FDF73C
:105AD00003FB0025FEF7BCBF036DDB7B012B0BD066
:105AE000032B12D10094052320224FF4F011FCF770
:105AF00027FF0025FEF7ACBF0094052300222649AE
:105B0000FCF71EFF0025FEF7A3BF0094052300222B
:105B10004FF44021FCF714FF0025FEF799BF002544
:105B200004F8015B009404232A467021FCF708FF67
:105B3000FEF78EBF002C00F0A08501226421FCF747
:105B400009FF20600025FEF783BF002C00F0988538
:105B500000226421FCF7FEFE20600025FEF778BFDE
:105B60003000010004000F0008000F000C000F00BF
:105B700010000F0014000F0018000F001C000F0091
:105B800028000F00040006001A001100340018005D
:105B90002C00180014000C0020001800036DDB7BA3
:105BA000012B0BD0032B12D10094052328224FF494
:105BB000F011FCF7C5FE0025FEF74ABF009405234F
:105BC0000022D349FCF7BCFE0025FEF741BF00943C
:105BD00005230022CF49FCF7B3FE0025FEF738BFAE
:105BE000002C00F0508500221C21FCF7B3FE206041
:105BF0000025FEF72DBF002C00F04885258867683A
:105C0000237A002B00F045853C4607EB83072946A5
:105C10003046FDF73BFB44F8040B0135ADB2BC4206
:105C2000F5D10025FEF714BF002C00F03585237850
:105C300001222821FDF77DFA0025FEF709BFFEF7B6
:105C400087FA0546FEF704BF1146FEF777FB0546C7
:105C5000FEF7FEBE002C00F02285A5780121FDF79D
:105C6000EBFA00213046FDF78BFF3046FDF7BCFF15
:105C700005F03F030022A8493046FDF75AFA0123F8
:105C80000093FF230022A5493046FEF721F9A34FD8
:105C900000252A4639463046FCF784FE10F0010FF5
:105CA000F7D100229E493046FCF76AFE0546304691
:105CB000FDF730FE00213046FDF736FE0521304667
:105CC000FDF7BAFAC5F30B0525800025FEF7C0BE27
:105CD0000221FEF7BBF901213046FEF7B7F9322465
:105CE0004FF014080027442540460AF0AFF83A4622
:105CF00029463046FCF756FE10F0020F05D1631E10
:105D000013F0FF04F0D1012500E000256D42FEF7FD
:105D10009FBE002C00F0C68423781B0303F4E043ED
:105D20006278012A08BF43F4807300936FF4E24362
:105D300000227C49FDF7E2FE0025FEF789BE002C1B
:105D400000F0B38462682168FEF718F80025FEF7BA
:105D50007FBE002C00F0AC84238800227249FDF73E
:105D60003AFA0025FEF774BE002C00F0A4846268A5
:105D70002188FEF713FB0025FEF76ABE002C00F019
:105D80009D84657823788BB1036D0022DA734FF020
:105D9000FF330822E5B123F4806300920022102132
:105DA0003046FDF7ABFE0025FEF752BE036D012223
:105DB000DA73182300225D49FDF70EFBE823002269
:105DC0005B493046FDF708FB6FF008030022E1E76E
:105DD00042F48062E1E7002C00F073842368002223
:105DE0003021FDF7F9FA0025FEF732BE002C00F055
:105DF0006B8400222946FCF7ADFD20600025FEF7EC
:105E000027BE234600222946FDF7E6FA0025FEF7C5
:105E10001FBE002C00F05B8403224649FCF7C2FD44
:105E2000C0F3021020700025FEF712BE002C00F017
:105E30005184236800224421FDF7CEFA0025FEF7A5
:105E400007BE002C00F04984238800224821FDF77A
:105E5000C2F90025FEF7FCBD002C00F041840022B1
:105E60004421FCF777FD20600025FEF7F1BD002CF2
:105E700000F0398400224821FCF782FD20600025D3
:105E8000FEF7E6BD002C00F03184237800222A4979
:105E9000FDF74FF90025FEF7DBBD002C00F029844B
:105EA00000224421FCF77EFD20700025FEF7D0BDC6
:105EB000002C00F02184FDF749F920600025FEF751
:105EC000C7BD002C00F01B8400221C49FCF758FDC4
:105ED00020800025FEF7BCBD002C00F013840022BA
:105EE0001749FCF737FD20600025FEF7B1BD002CF7
:105EF00000F00B842388C3F30D0300934FF4404359
:105F000000220F49FEF796F90025FEF7A1BD00BF5C
:105F10002800180008000C001C00070010000800F2
:105F20001400080014000700080005000C001F0002
:105F300010001F0060000300240001002C00050079
:105F40001A000E00002C00F0E383A788A3680993D1
:105F5000217B0691226904926269059203F0030293
:105F6000C3F38500052942D1B7F5B17F28BF4FF4AF
:105F7000B177DFF8E092042F05D809EB00035B78D6
:105F8000053B9F423BDB012A77D8AE4B995C3E46EE
:105F9000B94274DA551C53FA85F500230B449BB2C1
:105FA0000132D2B2022A05D015F8011BA6EB030C70
:105FB0006145F3DB9F4208BF039064D007F10508F9
:105FC0001FFA88F8802500210791039108910E4659
:105FD0004FF0050BBE465F4538BFDE46AEF1050EFD
:105FE0001FFA8EFEDFF85CA2BC460F46DDE340F2EE
:105FF00031139F4228BF1F46DFF85C92BBE70023A6
:10600000059A1380049A1146099A0A604AE000230F
:10601000059A1380049B1A46099B13604FF0FF33C7
:1060200040E01FFA81FB0792039008930127CDE31C
:10603000002F40F0A183984500F2A383002E38D0B2
:106040003F2800F0C883002719F800105B1A9BB2A4
:10605000461E06F03F0016F03F0618BF01269CE3DF
:106060000699092940F0BD833F2103910BE0B3B2AB
:106070000132D2B23F21039105E000239AE70023C9
:1060800098E70390634605990B80039B42EA8302DD
:10609000D2B2130443EA0263134343EA0223049A8D
:1060A0001360002323600025FEF7D2BC079A089BEB
:1060B000E9E70390E7E7079A089BE4E73F210391AC
:1060C000E1E7002C00F0278325786268012A15BFDC
:1060D0006FF460336FF4E043DF27EF2714BF4FF016
:1060E00020084FF010080024009422464FF4A0210D
:1060F000FDF704FD00943B46224653493046FDF728
:10610000E7FE012D03D065B10025FEF7A1BC2546B1
:1061100000943B4622464D493046FDF7D9FEFEF736
:1061200097BCCDF80080FF23002248493046FDF798
:10613000CFFEFEF78DBC002C00F0F082227812F02A
:10614000010F2DD0570107F0400740244FF4E01312
:1061500012F0040F28D043F4600344F080041201CD
:1061600002F0800217434FF400120092DB4300223A
:106170004FF4A0213046FDF7C1FCE443A4B2002552
:10618000009523462A4630493046FEF753F80097DB
:1061900023462A462D493046FEF74CF8FEF758BCF8
:1061A00000273C463B46D3E70022DEE70823009366
:1061B000FF2301224FF48021FDF78AFE244C0223A5
:1061C0000093FF23032221463046FDF781FE002580
:1061D0000095F72301224FF480213046FDF778FE29
:1061E0000095FD23032221463046FDF771FEFEF7A0
:1061F0002FBC002C00F095826388DB0003F4FF6362
:1062000022780AB143F4006300934FF2070300229F
:106210004FF480213046FEF70DF80025FEF718BC3C
:10622000002C00F08182E3B29A1C01239340013BD1
:10623000DBB200224FF40031FCF77BFF0025FEF7B4
:1062400007BC00BFE4620200080005000C00050066
:106250000800110064620200A4620200002C00F039
:106260006682E37A002B00F06582637B012B21D9E3
:10627000227BD74B33F812201201D30AC2F30A0251
:1062800002F58062B2F5006F28BF01339BB203F0C4
:106290007F0300934FF680730222CE493046FDF70C
:1062A000C9FF94230022CC493046FCF742FF002569
:1062B000FEF7CEBB227BC64B33F812304FF435626B
:1062C00002FB03F2930CC2F3CA1202F58062B2F52C
:1062D000006F28BF01339BB2D9E7002C00F02D825C
:1062E0000022BE49FCF736FB20600025FEF7B0BB5C
:1062F000002C00F025820022B949FCF72BFB20601E
:106300000025FEF7A5BB002C00F01D824FF4A8135A
:1063100023600025FEF79CBB002C00F017820025AF
:106320000B9510AF192347F8103D009704232A4618
:10633000AC49FCF7F3FE41F648730C930097042335
:106340002A46A9493046FCF7E9FE0BAB009304232B
:106350002A464FF4E8113046FCF7F2FA0B9B236013
:10636000FEF776BB002C00F0F48100229F49FCF779
:10637000F1FA80B2206000229D493046FCF7EAFA2B
:10638000430D9B019BB263600025FEF761BB002CAF
:1063900000F0E281637D2BB1012B37D0022B5ED060
:1063A000FF232FE000229349FCF7D4FAC0F30B003F
:1063B0002060002290493046FCF7CCFAC0F315006B
:1063C000606000228D493046FCF7C4FAC0F3150026
:1063D000A06000228A493046FCF7BCFAC0F31500E1
:1063E000E060002287493046FCF7B4FAC0F31000A1
:1063F0002061032279493046FCF7D4FAC0F3021039
:1064000020750023A3750025FEF722BB00227E49DC
:10641000FCF7A0FAC0F30B00206000227B49304655
:10642000FCF798FAC0F31500606000227849304606
:10643000FCF790FAC0F31500A06000224FF4502141
:106440003046FCF787FAC0F31500E060002271497E
:106450003046FCF77FFAC0F313002061C9E7002241
:106460006D49FCF777FAC0F30B00206000226B49FE
:106470003046FCF76FFAC0F31500606000226849EF
:106480003046FCF767FAC0F31500A06000226549AA
:106490003046FCF75FFAC0F31500E0600022624965
:1064A0003046FCF757FAC0F313002061A1E700253E
:1064B000FEF7CEBA0025FEF7CBBA0025FEF7C8BA24
:1064C0000025FEF7C5BA0025FEF7C2BA0025FEF783
:1064D000BFBA0025FEF7BCBA0025FEF7B9BA002501
:1064E000FEF7B6BA0025FEF7B3BA0025FEF7B0BA3C
:1064F0000025FEF7ADBA0025FEF7AABA0025FEF783
:10650000A7BA0025FEF7A4BA0025FEF7A1BA002518
:10651000FEF79EBA0025FEF79BBA0025FEF798BA53
:106520000025FEF795BA0025FEF792BA0025FEF782
:106530008FBA0025FEF78CBA0025FEF789BA002530
:10654000FEF786BA0025FEF783BA0025FEF780BA6B
:106550000025FEF77DBA0025FEF77ABA0025FEF782
:1065600077BA0025FEF774BA0025FEF771BA002548
:10657000FEF76EBA0025FEF76BBA0025FEF768BA83
:106580000025FEF765BA0025FEF762BA0025FEF782
:106590005FBA0025FEF75CBA0025FEF759BA002560
:1065A000FEF756BA0025FEF753BA0025FEF750BA9B
:1065B0000025FEF74DBA0025FEF74ABA0025FEF782
:1065C00047BA0025FEF744BA0025FEF741BA00BFDE
:1065D0002063020012000E0016000E00600003008F
:1065E00048000F0004001F0008001F0048000C00B6
:1065F00028000C0058000C0030000C0034000C0087
:1066000038000C002C000C0020000D0064000C0071
:1066100068000C0060000C0068000D0040000D00D8
:1066200044000D0048000D003C000D000025FEF761
:106630000FBA0025FEF70CBA0025FEF709BA0025AF
:10664000FEF706BA0025FEF703BA0025FEF700BAEA
:106650000025FEF7FDB90025FEF7FAB90025FEF783
:10666000F7B90025FEF7F4B90025FEF7F1B90025CA
:10667000FEF7EEB90025FEF7EBB90025FEF7E8B905
:106680000025FEF7E5B90025FEF7E2B90025FEF783
:10669000DFB90025FEF7DCB90025FEF7D9B90025E2
:1066A000FEF7D6B90025FEF7D3B90025FEF7D0B91D
:1066B0000025FEF7CDB90025FEF7CAB90025FEF783
:1066C000C7B90025FEF7C4B90025FEF7C1B90025FA
:1066D000FEF7BEB90025FEF7BBB90025FEF7B8B935
:1066E0000025FEF7B5B90025FEF7B2B90025FEF783
:1066F000AFB90025FEF7ACB90025FEF7A9B9002512
:10670000FEF7A6B90025FEF7A3B90025FEF7A0B94C
:106710000025FEF79DB90025FEF79AB90025FEF782
:1067200097B90025FEF794B90025FEF791B9002529
:10673000FEF78EB90025FEF78BB90025FEF788B964
:106740000025FEF785B90025FEF782B90025FEF782
:106750007FB90025FEF77CB90025FEF779B999F8D5
:1067600011305A1ED2B2012A7FF601A80222FEF78A
:1067700088BF002F3FF462AC19F800105B1A9BB27F
:1067800081E43F2827D0002E7FF45EAC013000F07A
:106790003F0019F800100B449BB29C453FF471ACCC
:1067A000013D15F0FF053FF432AC9E45BFF440AC0F
:1067B0009845DED9ACEB030109B20029B8BF4942C4
:1067C00059457FF72EAC002F7FF470AC3F28DAD10B
:1067D000002F7FF470AC032A3FF470AC022A3FF420
:1067E0003FAC1AF802105E1866457FF740AC0B44C8
:1067F0009BB20132D2B2002726E400BF2DE9F0415E
:1068000005460E46036D002B5CD02C6D0023E37310
:1068100002226282A375E3752374A372E3720421DA
:106820002846FCF733FD074605212846FCF72EFDD8
:1068300080460A212846FCF729FDC0F30440207257
:1068400027B1B8F1000F01D0002840D120212846FF
:10685000FCF71CFD2F4B98420CBF012300236372F1
:1068600016F0100F37D116F0200F3AD116F0400F66
:106870003DD116F0800F41D1E37A0BB98523E37245
:10688000A37A0BB97423A3721F212846FCF7FEFCE0
:1068900060731E212846FCF7F9FC10F03F0012BF80
:1068A000A0732E23A373A37B00221B492846FCF769
:1068B00040FC35212846FCF7E9FC034620BB0020BC
:1068C000BDE8F0812C200DF0CDFC28659DE7284621
:1068D000FDF7CAFCBAE706212846FCF7D7FC206082
:1068E000C1E707212846FCF7D1FC6060BEE708211C
:1068F0002846FCF7CBFC000CA072BAE70921284619
:10690000FCF7C4FCE072B7E7002204492846FCF714
:1069100063FDD4E7400200101400090004000900E0
:10692000F0B585B00446436B1968FFF767FF06466C
:1069300023681B69984703AB002211462046FDF7E8
:10694000DDFF636B9B6A19682046FDF7ADFD636B45
:106950009B6A59682046FDF747FB636B9B6ADB899E
:1069600000224FF460212046FCF735FC636B9B6AE4
:106970009B89002252492046FCF72DFC002120462D
:10698000FCF7C6FE002500954FF6FF532A4610215E
:106990002046FDF74FFC636B9B6A5A891989204694
:1069A000FDF7B2FB636B9B6A1B8A02220C21204617
:1069B000FCF711FC636B9B6A5B8A2A460C2120461C
:1069C000FCF709FC636B197A2046FDF769FC636BE1
:1069D000D9682046FCF7B2FE616B0B7E4A690969F3
:1069E0002046FDF7E9F9636B9A7F998B2046FCF707
:1069F000B7FC226D937B2E2B05D0636B93F82C3064
:106A000033F03F030AD0636B93F82C3003F03F035D
:106A1000937300222B492046FCF78BFB636B93F8A2
:106A20002D102046FDF768FA636B196A2046FCF7C3
:106A3000A7FE636B596A2046FCF7C6FE636B93F8AA
:106A40002E30A3BB636B93F82F102046FCF7B0FBEE
:106A500094F94C50002D27DB012303FA05F5AFB262
:106A60004FF0907239462046FDF788F90DF10A0380
:106A70000093022300224FF4A0212046FBF760FF81
:106A8000BDF80A3023EA0503ADF80A3000220E49AA
:106A90002046FCF7A0FB94F94D20B2FA82F252098D
:106AA00039462046FDF77AFC304605B0F0BD01239B
:106AB0000093FF23002205492046FDF709FAC1E7AC
:106AC0000400010014000900080005000400020091
:106AD0009829024818BF0020704700BF28640200B0
:106AE00070472DE9F04184B005460F461E46BDF8BB
:106AF0002C30591E89B201291CD9D01900F07F0011
:106B00003A44C2F30441820042EA412243EA0201CC
:106B1000090A8DF80C1020B9B3F5004F18D0002BDE
:106B200037D041F040018DF80C101A438DF80D203C
:106B3000022405E07A0062F07E028DF80C20012428
:106B4000022B06D026D3A3F50043032B01D9FEE781
:106B500001242B6D1B7D4BB92B685D680A9B324667
:106B600003A92046A84704B0BDE8F08100222146D1
:106B700003A8FBF7DBFD024631460A98FBF7D6FD7A
:106B80002B6800909D680A9B324603A92046A847BF
:106B9000E9E701242B68D3F800800A9B324603A959
:106BA0002046C0472B6D1B7D022BDCD1182FDAD07D
:106BB0000022214603A8FBF7B9FD024631460A9898
:106BC000FBF7B4FD044600221821284600F039F8EE
:106BD0008442C8D0EB68002BC5D09847C3E710B5F6
:106BE00082B000240194049C0094FFF77AFF02B065
:106BF00010BD00B585B003AB0093042392B2FFF73C
:106C0000EEFF0DF10F030DF10B01002013F8012928
:106C100002EB00208B42F9D105B05DF804FB00B512
:106C200085B003AB0093022392B2FFF7D8FF9DF823
:106C30000D309DF80C0000EB032080B205B05DF82C
:106C400004FB00B585B00DF10F030093012392B250
:106C5000FFF7C5FF9DF80F0005B05DF804FB30B5E8
:106C6000BDB005460C46036D9A7B012A1CD0032A51
:106C700040F0E8819B7D13F0080F0CD113F0040F56
:106C800002AB009314BF3823202300224FF4F011ED
:106C9000FFF7A5FF19E002AB0093E82300224FF4B1
:106CA000F011FFF79CFF10E09B7D13F0080F40F000
:106CB000C08113F0040F02AB009314BF38232023CC
:106CC00000224FF4C011FFF78AFF0DF1170204F103
:106CD0001A0304F1200012F8011F03F8011B83427C
:106CE000F9D19DF815209DF8143043EA0223C3F32F
:106CF0000C0363849DF81F209DF81E3043EA022395
:106D0000C3F30D0313F4005F1CBF6FEA83436FEA04
:106D1000934323849DF825209DF8243043EA0223E1
:106D2000C3F30B03E3872B6D9B7D13F0020F40F041
:106D30007E810AAA631E201D12F8011B03F8011FA1
:106D4000D1791972D17B59748342F5D19DF82F30D6
:106D500063719DF82E209DF82D3043EA0223E380D5
:106D60009DF837209DF8363003EB0223C3F3CF1391
:106D7000A4F80D309DF832209DF8313043EA02230B
:106D8000A4F80F309DF83F209DF83E3003EB02231E
:106D9000C3F3CF13E3829DF83A209DF8393043EADC
:106DA000022323832B6D9B7D13F0040F40F03F8162
:106DB0009DF843209DF842301B0443EA02639DF88E
:106DC000402013439DF8412043EA022323F060430F
:106DD00063629DF847209DF846301B0443EA026336
:106DE0009DF8442013439DF8452043EA022323F0F5
:106DF0000043A3629DF84B209DF84A301B0443EAF0
:106E000002639DF8482013439DF8492043EA02237A
:106E1000C3F31303E3629DF84F209DF84E301B042B
:106E200043EA02639DF84C2013439DF84D2043EA4A
:106E30000223C3F3150323639DF853209DF85230BA
:106E40001B0443EA02639DF8502013439DF8512030
:106E500043EA0223C3F3150363639DF857209DF8AB
:106E600056301B0443EA02639DF8542013439DF8F7
:106E7000552043EA0223C3F31503A3639DF865205D
:106E80009DF8643043EA0223A3879DF877209DF89C
:106E900076301B0443EA02639DF8742013439DF887
:106EA000752043EA022323F0404323649DF87B20AE
:106EB0009DF87A301B0443EA02639DF8782013435F
:106EC0009DF8792043EA0223C3F3130363649DF81A
:106ED0007F209DF87E301B0443EA02639DF87C20EE
:106EE00013439DF87D2043EA0223C3F31503A364F3
:106EF0009DF883209DF882301B0443EA02639DF8CD
:106F0000802013439DF8812043EA0223C3F3150335
:106F1000E3649DF887209DF886301B0443EA0263F2
:106F20009DF8842013439DF8852043EA0223C3F390
:106F3000150323659DF895209DF8943043EA0223BC
:106F4000C3F30E03A4F854309DF8A5209DF8A43097
:106F500043EA0223C3F30B03A4F856309DF8BF2085
:106F60009DF8BE301B0443EA02639DF8BC20134326
:106F70009DF8BD2043EA022323F04043A3659DF81A
:106F8000C3209DF8C2301B0443EA02639DF8C02071
:106F900013439DF8C12043EA0223C3F31303E365BF
:106FA0009DF8C7209DF8C6301B0443EA02639DF894
:106FB000C42013439DF8C52043EA0223C3F31503FD
:106FC00023669DF8CB209DF8CA301B0443EA026378
:106FD0009DF8C82013439DF8C92043EA0223C3F358
:106FE000150363669DF8CF209DF8CE301B0443EA5D
:106FF00002639DF8CC2013439DF8CD2043EA022381
:10700000C3F31503A3669DF8DD209DF8DC3043EA49
:107010000223C3F30E03A4F86C309DF8ED209DF815
:10702000EC3043EA0223C3F30B03A4F86E303DB007
:1070300030BD02AB0093E82300224FF4C011FFF7EC
:10704000CEFD42E69B7D13F0010F00F0B38102AB51
:1070500000936C2300224FF44021FFF7C0FD1DABCD
:1070600000936C2300224FF450212846FFF7B7FD10
:1070700002AA631E201D12F8011B03F8011FD1791B
:107080001972D17B5974D17D99768342F3D19DF8E1
:107090002530E3779DF80F3063719DF80E209DF841
:1070A0000D3043EA0223E3809DF816309DF8172047
:1070B00043EA0222C2F3CF12A4F80D209DF8152056
:1070C00042EA0322A4F80F209DF81F2043EA02237E
:1070D000C3F3CF13E3829DF81E209DF81D3043EAD1
:1070E000022323839DF827209DF8263043EA0223BC
:1070F000C3F30D0313F4005F1CBF6FEA83436FEA11
:10710000934323849DF829209DF8283043EA0223E5
:10711000C3F30C0363849DF82F209DF82E301B04CD
:1071200043EA02639DF82C2013439DF82D2043EA87
:10713000022323F0604363622B6D9B7D13F0010FEC
:107140003FF475AF9DF833209DF832301B0443EABD
:1071500002639DF8302013439DF8312043EA022357
:1071600023F00043A3629DF837209DF836301B04BE
:1071700043EA02639DF8342013439DF8352043EA27
:107180000223C3F31303E3629DF83B209DF83A30DA
:107190001B0443EA02639DF8382013439DF839200D
:1071A00043EA0223C3F3150323639DF83F209DF8B0
:1071B0003E301B0443EA02639DF83C2013439DF8D4
:1071C0003D2043EA0223C3F3150363639DF8432084
:1071D0009DF842301B0443EA02639DF840201343AC
:1071E0009DF8412043EA0223C3F31503A3639DF8EE
:1071F00051209DF8503043EA0223A3879DF8612077
:107200009DF8603043EA0223C3F30B03E3879DF844
:1072100067209DF866301B0443EA02639DF86420F2
:1072200013439DF8652043EA022323F0404323647F
:107230009DF86B209DF86A301B0443EA02639DF8B9
:10724000682013439DF8692043EA0223C3F3130324
:1072500063649DF86F209DF86E301B0443EA02635F
:107260009DF86C2013439DF86D2043EA0223C3F37D
:107270001503A3649DF873209DF872301B0443EA44
:1072800002639DF8702013439DF8712043EA0223A6
:10729000C3F31503E3649DF877209DF876301B0453
:1072A00043EA02639DF8742013439DF8752043EA76
:1072B0000223C3F3150323659DF885209DF88430D0
:1072C00043EA0223C3F30E03A4F854309DF895203B
:1072D0009DF8943043EA0223C3F30B03A4F856301D
:1072E0009DF8AF209DF8AE301B0443EA02639DF881
:1072F000AC2013439DF8AD2043EA022323F0404322
:10730000A3659DF8B3209DF8B2301B0443EA0263E5
:107310009DF8B02013439DF8B12043EA0223C3F344
:107320001303E3659DF8B7209DF8B6301B0443EACC
:1073300002639DF8B42013439DF8B52043EA02236D
:10734000C3F3150323669DF8BB209DF8BA301B04D8
:1073500043EA02639DF8B82013439DF8B92043EA3D
:107360000223C3F3150363669DF8BF209DF8BE306A
:107370001B0443EA02639DF8BC2013439DF8BD2023
:1073800043EA0223C3F31503A3669DF8CD209DF8BD
:10739000CC3043EA0223C3F30E03A4F86C309DF80B
:1073A000DD209DF8DC3043EA0223C3F30B03A4F88D
:1073B0006E303CE602AB0093282300224FF44021BC
:1073C000FFF70DFC54E6000000B583B0036D9B7B16
:1073D000012B0BD0032B10D10091052304224FF475
:1073E000F011FFF7FCFB03B05DF804FB00910523EF
:1073F00000220549FFF7F3FBF5E700910523002282
:107400006021FFF7ECFBEEE70400180010B582B036
:107410004FF400440194049C0094FFF762FB02B017
:1074200010BD00B585B08DF80C301B0A8DF80D30FD
:1074300003AB0093022392B2FFF7E8FF05B05DF8BB
:1074400004FB000008B5012902D0052907D008BDBA
:1074500041F6220300220549FFF7E3FFF7E74FF467
:10746000007300220149FFF7DCFFF0E70400110080
:1074700038B505460C4641F400739BB200224FF428
:107480003021FFF7CEFFA3B200224FF4302128466F
:10749000FFF7C7FF38BD000070B504460E460C4D1F
:1074A000012300222946FFF7BCFF33460022094989
:1074B0002046FFF7B6FF0223002229462046FFF7A9
:1074C000B0FF002204492046FFF793FB70BD00BFC8
:1074D00008000B0004000B0010000B0010B584B076
:1074E0008DF80C301C0A8DF80D401C0C8DF80E40E8
:1074F0001B0E8DF80F3003AB0093042392B2FFF7FD
:1075000085FF04B010BD38B5044689B90022282192
:10751000FFF76FFB054601224FF460212046FFF77D
:1075200090FB2B1A002228212046FFF7D7FF38BDF9
:1075300000222821FFF75DFB054601227C21204621
:10754000FFF77FFB2B1A002228212046FFF7C6FFFA
:10755000EDE738B505460C4600224FF48031FFF7C1
:1075600048FB000D0005C4F31303034300224FF44E
:1075700080312846FFF7B2FF38BD38B505460C46C6
:1075800000224FF4A021FFF734FB20F47C3314F0E9
:10759000010F18BF43F4803314F0020F18BF43F4F7
:1075A000005314F0040F18BF43F4903300224FF43B
:1075B000A0212846FFF792FF38BD000038B50546E8
:1075C0000C460B6800220B49FFF788FF6368002216
:1075D00009492846FFF782FFA36800220749284689
:1075E000FFF77CFFE368002205492846FFF776FF96
:1075F00038BD00BF0C0002001000020014000200A1
:107600001800020038B505460C460B6800220B49ED
:10761000FFF764FF6368002209492846FFF75EFF11
:10762000A368002207492846FFF758FFE3680022B5
:1076300005492846FFF752FF38BD00BF1C00020075
:107640002000020024000200280002002DE9F0477B
:10765000044605293AD0234D2E46234FDFF8C48037
:10766000DFF8C490DFF8C4A0204B00222049204658
:10767000FFF734FF534600221E492046FFF72EFF36
:107680004B4600221C492046FFF728FF43460022B4
:107690001A492046FFF722FF3B46002218492046A0
:1076A000FFF71CFF3346002216492046FFF716FF5E
:1076B0002B46002214492046FFF710FF134B0022EF
:1076C00013492046FFF70AFFBDE8F087114D124E1F
:1076D000124FDFF85C80DFF85C90DFF85CA0104BA5
:1076E000C3E700BFB5AF02007DAF0200FEA80200F5
:1076F000380003003C000300400003004400030086
:10770000480003004C00030050000300400200103A
:107710001C000300F5CF0100B5CF010036CF0100FA
:10772000FDC001003EAF0200FEA5020036AC020023
:107730007EC70100BEC601003EC4010008B500239B
:107740001A460249FFF7CAFE08BD00BF0400070041
:1077500038B504460D4600231A460A49FFF7BEFE17
:1077600000231A464FF4E0212046FFF7B7FE05B983
:1077700038BD4FF0E053002203492046FFF7AEFE2C
:10778000F6E700BF4800070014000700F0B583B01B
:10779000046DA47B032C0CBF4FF4981C4FF4901C79
:1077A0009C18B4F5806F19DA1D4616460F4604463C
:1077B0007F2B15D94FEA1C4300220D49FFF78EFE9F
:1077C0002B4600220B492046FFF788FE00973346E0
:1077D00000224FF4E8112046FFF701FA03B0F0BD94
:1077E000009113462A466146FFF7F9F9F6E700BF14
:1077F00004001F0008001F0010B584B004AC04F89A
:10780000013D0094012392B2FFF700FE04B010BDC9
:1078100010B50446036D9B7B012B13D0032B1DD1A8
:10782000F02300221249FFF7E7FF00224FF4F01186
:107830002046FFF7F4F9236DDA7AA2B1C0F309000C
:10784000D88310BD0F2300220949FFF7D5FF00227E
:107850004FF4C0112046FFF7E2F9ECE700224C217B
:10786000FFF7DDF9E7E700F07F00D883E9E700BF25
:107870001800010010B50446036D9B7B012B04D05A
:10788000236D9B7B032B06D010BD0F2300220549DF
:10789000FFF7B2FFF4E7F023002202492046FFF78A
:1078A000ABFFF1E71800010038B5044600231A4683
:1078B0004FF42021FFF7B5FD00231A460849204662
:1078C000FFF79AFF074D00231A4629462046FFF787
:1078D00093FF0223002229462046FFF78DFF38BD83
