:020000022000DC
:1070000000000420757302005D7302005F730200CC
:1070100061730200637302006573020000000000E8
:107020000000000000000000000000006773020084
:1070300069730200000000006B7302006D730200B0
:10704000699602006F730200499B02006F73020091
:107050006F7302006F730200C99902006F73020020
:107060006F7302006F7302006F7302006F73020090
:107070006F7302006F7302006F7302006F73020080
:107080006F730200E58702006F7302006F730200E6
:107090006F7302006F730200DDB802006F730200AD
:1070A0006F7302006F7302006F7302006F73020050
:1070B0006F7302006F730200000000000000000008
:1070C0006F7302006F7302006F7302006F73020030
:1070D0006F7302006F7302006F7302006F73020020
:1070E0006F7302006F7302006F73020000000000F4
:1070F000000000006F730200000000006F730200C8
:10710000000000000000000000000000000000007F
:10711000000000000000000000000000000000006F
:10712000000000000000000000000000000000005F
:10713000000000000000000000000000000000004F
:10714000000000000000000000000000000000003F
:10715000000000000000000000000000000000002F
:10716000000000000000000000000000000000001F
:10717000000000000000000000000000000000000F
:1071800000000000000000000000000000000000FF
:1071900000000000000000000000000000000000EF
:1071A00000000000000000000000000000000000DF
:1071B00000000000000000000000000000000000CF
:1071C00000000000000000000000000000000000BF
:1071D00000000000000000000000000000000000AF
:1071E000000000000000000000000000000000009F
:1071F000000000000000000000000000000000008F
:10720000354936480A1A02D0072291438D4634493F
:1072100034480A1A06D00722914381F309880222D2
:1072200082F3148830483149314A00F044F831483B
:107230003149324A00F03FF831483249324A00F0D1
:107240003AF832483249334A00F035F83248334987
:10725000334A00F030F833483349344A00F02BF811
:1072600033483449344A00F026F83448344900227F
:1072700000F02CF833483449002200F027F8334856
:107280003349091A082902DB002202604160314AB1
:1072900090471F481F49884205D00268043003B454
:1072A000904703BCF7E700208646EC46002000210B
:1072B000294A9047FEE7884207D0521A05D0037842
:1072C00001300B700131013AF9D17047884202D088
:1072D00002700130FAE770470000042000E003204C
:1072E0000000042000000420E0CB02000023002066
:1072F0007C230020D0730200D07302004CBD02003A
:10730000E0CB0200002300200023002038BE020052
:1073100038BE020038BE020038BE020038BE02008D
:1073200038BE020038BE020038BE0200E0CB0200C8
:107330005CCC02007C2300207C2300207C230020E6
:10734000702C0020702C0020702C0020702C00204D
:10735000704C00209D73020021A70200FEE7FEE7AB
:10736000FEE7FEE7FEE7FEE7FEE7FEE7FEE7FEE7F5
:1073700000F002B8FFF7FCBF0F484FF00701884349
:1073800085460E4880470E48016841F4700101604F
:10739000BFF34F8FBFF36F8FFFF732BF09480A4922
:1073A0000A4A884207D0521A05D0037801300B7080
:1073B0000131013AF9D17047000004203D910200EB
:1073C00088ED00E038BE02000023002000230020EA
:1073D000F0B595B01D46164608460C4601F0B4FDC2
:1073E0001A9B0D93CDE9086500252B46082205A9B7
:1073F00020460A958DF82C500C9501F0C2FD079B94
:107400000293069B03939DF814308DF8115003F0FE
:107410000302012A1DD1BDF81420059DC3F3C20348
:10742000C2F383168DF81030B20008230EA920464F
:1074300001F0A7FDC5F3952508AB0093324602ABDA
:107440000EA9284600F0AEFB204601F081FD15B0E4
:10745000F0BD022AF8D1BDF81650C3F3C203C5F33C
:1074600089158DF810300827082D2E4628BF0826CC
:107470003B4632460EA9204601F083FDAD1B08AB0A
:1074800002AA31460EA8374400F0F0FB002DEBD1E4
:10749000DAE70000014B01221A707047BD2300207B
:1074A0007047000070B5124D06460FCD88B06C468F
:1074B0000FC495E80F00002E84E80F004FF0FF3353
:1074C0004FF00602CDE90023CDE90233094A0A480C
:1074D0004FF0EB7308BF00226946069302F04AF8AA
:1074E00008B100F0B7FD054B1E7008B070BD00BFBD
:1074F00038BE020095740200002300207C23002087
:1075000007B5044B0093044A4023FFF761FF03B023
:107510005DF804FB1D7502007D23002038B50D4B7E
:107520000D4D002018700D4804782D5DD2B21C4618
:1075300065B1043002F0B2FF08B100F08BFD084BDA
:107540001A7812B12378002BFBD038BD0C3002F032
:1075500049FDF1E7BD230020502A00200023002030
:107560007C23002008B50848084A0378D35C3BB167
:10757000043002F00FFFBDE808400020FFF792BF83
:107580000C3002F0D3FCF6E700230020502A002044
:107590000120FFF787BF000008B5FFF7F9FF044897
:1075A000042100F069FA034B01225A7108BD00BFA3
:1075B00028BE020014230020037813F0040216D022
:1075C00003F00303012B03D0022B09D001207047E5
:1075D0000A6800880232C0F3831002440A60F5E7AB
:1075E0000B684288023303EB92130B60EEE7104600
:1075F000704700002DE9F04F87B000230446861C39
:107600000DF107000F4615468DF8073000F07CFF9E
:10761000404A51683960936803F580735B1A92465B
:1076200002F21C4702F5836902F21448B3421AD3EE
:107630000020002D69D004F00F039B0143F00503E7
:1076400063F30F00DAF80430DAB203321E444AF86A
:1076500022009DF80700CAF8046000F079FF0120BD
:1076600007B0BDE8F08F0121384601F098F948468F
:1076700001F0ADF9404601F0AAF9DAF808000290ED
:10768000C0B203300AEB800002A9FFF795FF029B0E
:1076900030BBDAB20AEB8202D16803919A1C013343
:1076A000DBB20AEB83030292D3F80CB001F00303C0
:1076B000012B22D0022B15D08346404601F08AF9D7
:1076C00010B1029BCAF808305946384601F067F9F4
:1076D000DAF80830DAF8042003F580739B1AA5E77E
:1076E000D8B2CEE7BDF80E30C3F3891303334FEAA7
:1076F0001B4B02EB93030293DFE7BDF80C30C3F39F
:1077000083134FEA1B4B1344F5E7A40544F006002E
:1077100098E700BF90240020064B074810B50022D0
:107720001A7001F0CAFB044610B9044801F072FC5B
:10773000204610BD902400209CBD02008CBE02009B
:1077400030B50A4C71B10A4A0A49121BD20800230B
:107750009A4201D1002030BD31F82350854202D039
:107760000133F5E7034654F83300F4E7B0BD0200F7
:1077700028BE020000230020094B013903EBC000A2
:10778000032909D8DFE801F00A0204060420704743
:107790000079704740797047002070470220704799
:1077A000B0BD020070470000034BD3E90130C31A9B
:1077B00058425841704700BF902400202DE9F04105
:1077C00086B0FFF7F1FF0546002840F0E680744CD4
:1077D000C4F81804BFF34F8FA3680293DBB20333DE
:1077E00004EB830002A9FFF7E7FE029B18B1D4F86F
:1077F0001824002A55D0DAB2991C013304EB820216
:10780000DBB204EB8303D268DB68049302F003036A
:10781000022B039202914FD1BDF80E306148C3F3A1
:107820008917502F3E4628BF502666F38F1306F166
:107830000801ADF80E3001F058FB0546002800F0B5
:10784000978001F081FB002303A90822284601F05C
:107850008EFB0299CB43DBB20133C9B20331B6EBE5
:10786000830F4FEA830804EB810122D908234246A3
:10787000A6EB0806284601F07AFBF6B24A4908F161
:1078800008033246284601F072FB029B033703EBE4
:1078900097070297D4F81834002B41D1D4F810641C
:1078A00051E062689A4299D8A260284606B0BDE8C5
:1078B000F08108233246E5E7012B59D1BDF80C30A1
:1078C0003848C3F38311062928BF062161F38913C1
:1078D00002318900ADF80C3001F007FB05460028A5
:1078E00046D001F031FB0023082203A9284601F00D
:1078F0003EFB0026BDF80C20C2F38312B300964273
:1079000003F10803C6D202994A1CC9B2033102929C
:1079100004EB81010422284601F029FB0136E9E746
:10792000284601F015FBFFF73FFF80F00100C5B2CC
:10793000BBE7F3685B7923B1336829461B6830469F
:107940009847F3681E68002EF3D1284601F000FB2B
:107950000DF107008DF8076000F0D6FDD4F818345B
:107960000BB9029BA3609DF8070000F0F1FDDAE778
:10797000D4F8104454B90D4B0D480E49C01AC00834
:10798000000440F0020000F05FF8CCE723682046D6
:107990009B689847E3681C68ECE7002585E700BF13
:1079A000902400209CBD02009C240020B0BD020059
:1079B000D8BD020075BE02002DE9F34704460E460D
:1079C000924601A9012218469946FFF713FE1C4F63
:1079D00010B3019D4FF00008AA1CC84508EB020136
:1079E00025D11848002100F0ABFF80F310000004FF
:1079F00040EA1440E4006B1C04F03804DBB2EDB242
:107A000044F0010407EB8303033544EA881444EA95
:107A10008624D86047F825403B781BB1FFF7CEFE9F
:107A20000028FBD1FFF7BEFE02B0BDE8F087C9B267
:107A300007EB81015AF82830CB6008F10108CCE748
:107A400090240020AC28002000231A46FFF7B4BF82
:107A500007B50123019201AAFFF7AEFF03B05DF85D
:107A600004FB07B5CDE9002302236A46FFF7A4FF14
:107A700003B05DF804FB000030B50F49D1F81024C5
:107A800003460020144634B9DC6820714AB9C1F8B5
:107A90001034226030BDE4682579854206D0246820
:107AA000F1E7D268116821601360F3E701300A281A
:107AB000E8D14FF0FF30EDE790240020084A38B5B8
:107AC0000123D2F8104413701D4604B938BDE36891
:107AD0005D71236820465B689847E3681C68F4E79B
:107AE0009024002007B503460846197A052911D0CD
:107AF0005B7A2BB1094A0A49019000F0CEFF019848
:107B00000849019000F0C9FF019803B05DF804EB4B
:107B100000F0B8BF002AF8D0F2E700BF98BE02001C
:107B20009DBE0200BDBE020030B5C38885B00446CC
:107B30000D4633B1144A00921449154A284600F004
:107B4000ACFF217A05291DD0637A4BB1A088FFF7DD
:107B500013FE104B104953F82020284600F09DFFDB
:107B6000227A0E4BA08853F8222003920021FFF7BF
:107B7000E7FD039A0A490346284605B0BDE83040B0
:107B800000F08BBF05B030BD98BE0200A8BE020059
:107B9000A0BE020024BF02009DBE020048BF02003A
:107BA000C0BE02002DE9F04385B01F460C9D0023A6
:107BB00095F80C902B7306460C469046294638469D
:107BC000FFF7B2FFB8F1060F09D8DFE808F004129A
:107BD000181F283340003146284600F05EFF00227F
:107BE00029463846FFF77EFF85F80C9005B0BDE8C2
:107BF000F08322683146284600F04FFFEFE7D4E9D2
:107C000000233146284600F048FFE8E7A3680093C8
:107C10003146D4E90023284600F03FFFDFE7E36860
:107C20000193A36800933146D4E90023284600F06D
:107C300034FFD4E723690293E3680193A3680093B8
:107C40003146D4E90023284600F027FFC7E76369DF
:107C5000039323690293E3680193A3680093314679
:107C6000D4E90023284600F018FFB8E708292DE9D9
:107C7000F74F80460E4617461C463CD8002593F821
:107C80000C901D7319461046FFF74EFFDFF888A0D1
:107C9000DFF888B0AE4231D918F8052059462046A1
:107CA00000F0FBFE0135082DF4D11949194DDFF81C
:107CB00070A0204600F0F1FE4FF0000B5E4522D987
:107CC00018F80B207E2A05D81046019203F0ACFF6D
:107CD000019A00B92E225146204600F0DEFE0BF13B
:107CE000010BBBF1080FE9D1012221463846FFF70D
:107CF000F9FE84F80C9003B0BDE8F08F51462046A1
:107D000000F0CBFECEE72946204600F0C6FEE6E7AF
:107D1000D4BE0200D2BE0200D0BE0200CABE020023
:107D2000D6BE0200C30710B507D4F023054A4008A9
:107D3000145C23401943115410BD0901C9B20F232B
:107D4000F4E700BF5829002030B5094B1C78094BD7
:107D5000196800239C4202DC0022104630BD11F855
:107D60003350854201EBC302F7D00133F2E700BF85
:107D7000482900207829002013B504460191FFF717
:107D8000E3FF38B143682BB10199204602B0BDE84A
:107D90001040184702B010BD034B04481968002278
:107DA000490800F07DBA00BF4C29002020230020A4
:107DB00010B5C0B2FFF7C8FF0446007801F0F6FD29
:107DC00063785A1E53425341834208D1044BD3E98E
:107DD0000023134303D1BDE81040FFF7DDBF10BD02
:107DE0005029002037B54308354AD35CC2074CBF41
:107DF0001B0903F00F0304460D46042B35D8DFE8BA
:107E000003F003252C383C0079B30121FFF78AFFEA
:107E100000230DF107008DF8073000F075FB0120FD
:107E2000A4F12003C4F12001264A20FA01F100FA4E
:107E300003F30B43A040D2E9004120430B43C2E9C6
:107E400000039DF8070000F083FB0EE0002918BF37
:107E500002212046FFF766FF07E041B10321FFF74B
:107E600061FF01212046FFF787FF03B030BD0121EC
:107E7000EFE70029F9D10421EBE709B10321E8E795
:107E8000FFF750FF29462046FFF776FF0DF1070068
:107E90008DF8075000F038FB0120A4F12003C4F155
:107EA0002001084A20FA01F100FA03F30B43A04035
:107EB000D2E9004124EA000021EA0303BFE700BF42
:107EC00058290020502900202DE9F041124E134F6F
:107ED00000243378A34208DC114BD3E90023134379
:107EE00018D0BDE8F041FFF757BF3D6805EBC40867
:107EF00015F8340001F05AFD98F801305A1E53422B
:107F00005341181A4142414115F83400FFF76AFF06
:107F10000134DEE7BDE8F0814829002078290020FF
:107F200050290020092AF7B505460C4616463CD9CB
:107F300001F04AFCD8B11E4B1E481D601E4B1F4F5E
:107F40001C701F4B002120221E6003F09BFE1D4B66
:107F500000200021C3E90001013CE4B20326FF2C0C
:107F60000BD1194A1948002100F088F903E001F00B
:107F7000E5FB0028DFD003B0F0BD9DF8063015F812
:107F800034008DF8046005EBC40223F007038DF87C
:107F9000063001A993788DF805303A4601F01EFCB1
:107FA000013CE4B20028DAD0E5E70720E3E700BFB0
:107FB000782900205829002048290020B17D02009E
:107FC0004C29002050290020C97E020068BF020011
:107FD00070B5084D084E00242B789C4201D3002038
:107FE00070BD3368012113F8340001F073FC0134D3
:107FF000F2E700BF482900207829002073B5114D11
:10800000114E00242B789C4214D300230DF107005D
:108010008DF8073000F078FA0C4B00210020C3E9FE
:1080200000019DF8070000F093FA094800F063F999
:1080300002B070BD336813F8340001F095FC0134D0
:10804000E0E700BF482900207829002050290020BF
:10805000202300201FB50021039001AA44F2010053
:10806000CDE9011100F004F805B05DF804FB000053
:1080700010B572B6FFF722FDFFF7A0FB0028FBD179
:10808000104B114C1149E41AE408240444F0010097
:10809000FFF7DAFC0E4B1B68DB0700D500BE0D496D
:1080A00044F00200FFF7D0FCBFF34F8F0A490B4B9F
:1080B000CA6802F4E0621343CB60BFF34F8F00BF86
:1080C000FDE700BFB0BD0200D8BD02006CBF0200DA
:1080D000F0ED00E078BF020000ED00E00400FA05DA
:1080E000D0E90223D1E90201994208BF90422CBF96
:1080F000012000207047000008B50B4800F05BFB32
:108100000A4B0B49D3E900231218D1E9000143F1CE
:1081100000038B4208BF824203D212F1807243F106
:1081200000031046194608BD402300208029002086
:10813000F829002037B505460C460A4801A900F089
:108140006EFB60B10570446001A9064800F091FB28
:1081500018B1054800F034FB002003B030BD042006
:10816000FBE700BFE429002040230020284B73B523
:108170001E7804461EB90026304602B070BD0028A5
:10818000F9D0FFF7B9FFD4E90223994208BF904222
:1081900038D300230DF107008DF8073000F0B4F953
:1081A00023692BB94FF0FF324FF0FF33C4E90223AC
:1081B0009DF8070000F0CCF9D4E905309847002578
:1081C0000DF107008DF8075000F09EF92169B9B153
:1081D000D4E90223581C08BFB2F1FF3F05D0521862
:1081E00043F10003C4E9022335469DF8070000F07F
:1081F000AFF9002DBFD00748214600F02AFFBBE7AA
:108200000D46F2E7013308BFB2F1FF3FB3D0F2E70A
:108210008829002094BF020013B5114B114918683A
:10822000019008231048582200F0E6FA044698B955
:108230000E4A0F4801A900F0AFF9044660B90C4896
:10824000012100F09BFA01230A4A0948194600F06F
:10825000FDF9094B01221A70204602B010BD00BF83
:1082600090BF02008C290020E42900204D830200E9
:1082700040230020FFFF7F008829002030B56AB12D
:1082800003684FF0FF344FF0FF355A614A1E5142E8
:10829000C3E9024551411961002030BD0720FCE7C8
:1082A000F7B5054600240DF1070017460E468DF878
:1082B000074000F029F9D5E90223013308BFB2F1E4
:1082C000FF3F07D1FFF718FF801941F10001C5E911
:1082D000020101249DF8070000F03AF94CB12B6926
:1082E000AF6103B12E6129460020FFF723FF03B0E1
:1082F000F0BD2046FBE737B5054600240DF1070029
:108300008DF8074000F000F9D5E9022301330FBFD3
:10831000B2F1FF3F4FF0FF324FF0FF33C5E90223C8
:1083200018BF01249DF8070000F012F92CB129466E
:108330000120FFF7FFFE03B030BD2046FBE7000041
:10834000014800F038BA00BF402300202DE9F74F64
:10835000804600F01BFA40B1634AD2E9003113F1C4
:10836000807341F10001C2E900310021404600F074
:108370001CFA38B15D4E336823B13068FFF7F6FE62
:10838000002333600121404600F00FFA20B1FFF7CF
:10839000B3FE574BC3E900015648DFF8509101A9DD
:1083A00000F077FA4FF0FF364FF0FF3798B9DFF85B
:1083B00048A14E4F504600F062FE002800F0878032
:1083C000D0E90223591C08BFB2F1FF3F34D1504617
:1083D00000F04FFEEEE70378012B20D0022B09D1ED
:1083E000DFF814A1504600F044FE002877D0C0E921
:1083F0000267F7E753B94168D1E90223013308BFA7
:10840000B2F1FF3F02D03C4800F023FE01A93948F9
:1084100000F06AFA01A9374800F03BFAC6E7416864
:10842000D9F80030994203D10023C9F80030EDE7B4
:10843000314800F027FEE9E7396891B13968D1E9A0
:1084400002018B4208BF82422FD23B68D3E902234C
:10845000013308BFB2F1FF3F03D03968504600F046
:10846000F8FD504600F005FED0E9026B8146FFF7AB
:1084700043FE341A6BEB0105012C75F1000319DB87
:10848000B4F5350F14D3FFF75BFF1C4A02441C48B8
:108490004FF49603002100F0F9F898B93B6813B93E
:1084A000404600F0CBF8C7F8009003B0BDE8F08F6D
:1084B0003246ECE71248002100F06DF94846FFF71C
:1084C00055FE01E00D28F9D000233B6072E7074B11
:1084D0001B68002BE9D1404600F0B4F8E5E7094BF2
:1084E00001221A7092E700BF80290020002A002094
:1084F000F8290020E429002094BF0200FFFFB40007
:10850000402300208829002070B5EFF3108672B652
:108510000C4A946801239CB993600B4B0B4DD3F824
:10852000801029401160C3F88050D3F88410516046
:108530004FF0FF32C3F88420047006B962B670BDF4
:108540000370FAE7042A002000E100E0FC06FFBD0A
:10855000084B9A6810B55AB150B9EFF3108172B652
:10856000054A1C6814605C685460986001B962B682
:1085700010BD00BF042A002000E100E0435882B093
:108580003BB10023435043580193019B012002B0AB
:1085900070471846FBE70000F8B5204B4479204DA2
:1085A00043F824201F4A204B05EBC4049B1A227970
:1085B000DB081B0432B143F002001C49FFF744FA08
:1085C0000820F8BD02680C88C2F8084590F90460DC
:1085D0008A7804795201002ED2B219DB14498F191E
:1085E00087F800230122760904F01F0402FA04F43C
:1085F00041F82640427905EBC201012445F83200DA
:108600000C7143F003000B49FFF71EFA0020D8E776
:10861000094904F00F040A55ECE700BF182A0020AE
:10862000102A0020B0BD0200E8BD0200A0BF020079
:1086300000E100E0C2BF020014ED00E00368012287
:108640001A607047036801225A60704773B501F1E0
:108650005005AD000068ADB24FF480348C40002668
:10866000C0F80843C0F84843465101F5A871455980
:10867000019522F07F42019D40F82120C0F844433B
:108680000BB1C0F8044302B070BD00002DE9F74FF4
:108690000D4622F07F4402684FF4803705F1500602
:1086A0008F408046B60002EB8500C2F84873B6B230
:1086B000C2F80873D2F8041599464FF0000BD0F8B1
:1086C0004035C0F8401542F806B05B1A9259009246
:1086D00023F07F43012B009A4FEA850A0CD1264BE9
:1086E0004FF4806043F001039847D8F8003043F816
:1086F00006B09B590193019BD8F80010D1F804658E
:10870000C1F84473A31B23F07F43012B1CD11A4BE8
:1087100005F5A875013443F0010341F825404FF4F5
:1087200080609847D8F80030D3F804359E4209D1CC
:10873000D8F800300020C3F84473C3F8047303B0C2
:10874000BDE8F08F0D20FAE78A44C9F1FF13CAF89B
:108750004045D1F80405221A013A22F07F4203F580
:108760007F439342EED3002AE2D10134CAF8404558
:10877000D1F804359842DAE7E0BF0200036802222C
:10878000C3F8442309B1C3F80423704700684FF4C9
:108790008271FFF7F3BE4FF4803303FA01F10368EF
:1087A000C3F84813C3F808137047503189000068B4
:1087B00089B2FFF7E3BE0368D3F8040570470000F1
:1087C00090F90430002B09DB5A09012103F01F0343
:1087D00001FA03F34032024941F82230704700BFEA
:1087E00000E100E0024B034A1B681068184700BF15
:1087F000182A0020102A002010B561B1B2FBF3F452
:1088000003FB1424A4B244B9C0E90014846082813B
:10881000C381204610BD0E20FCE70920FAE737B5DA
:1088200050E8013F9DB2C48925448489A54228BFF0
:108830002D1B0489A54202BFBFF32F8F002207E042
:10884000C5EA030540E80154002CE9D14FF00102CC
:108850008DF803200193019B9DF803200B6002F02B
:10886000FF0322B10B880068184403B030BD1846DE
:10887000FBE70A884B889A4209D150E8012FC2EAE7
:10888000024240E80123002BF7D10120704700206D
:10889000704737B550E8023F1FFAA3F5C488A542D8
:1088A00002BFBFF32F8F00220DE0C48925448489C5
:1088B000A54228BF2D1BC3EA054540E80254002C01
:1088C000E8D14FF001028DF803200193019B9DF840
:1088D00003200B6002F0FF0322B14B8800681844AC
:1088E00003B030BD1846FBE70A884B889A4209D18D
:1088F00050E8022FC2EA224240E80223002BF7D1BF
:10890000012070470020704701F01F024B09012130
:10891000914000EB830000F01EB801F01F0301221C
:108920009A404B0900EB8300D14300F02CB84B096F
:1089300001F01F0150F82300C84000F0010070470B
:1089400010B5034653E8000F0A4643E8002494F0AC
:10895000000FF7D110BD10B5034653E8002F42EACF
:10896000010043E8000494F0000FF6D110BD10B5EB
:10897000034653E8000F00EA010243E8002494F0A4
:10898000000FF6D110BD10B5034653E8002F02EAE0
:10899000010043E8000494F0000FF6D110BD10B5BB
:1089A000034653E8002F02EB010043E8000494F073
:1089B000000FF6D110BD10B5034653E8002FA2EB0F
:1089C000010043E8000494F0000FF6D110BD01212E
:1089D000FFF7C1BF0021FFF7CABF10B590B1D0E9C2
:1089E000012301689B1ADBB20A60013BDBB2FF2B5B
:1089F000026802D10020107110BD11684C1C146077
:108A00000B70F2E70E20F7E737B5054600240DF1AD
:108A100007008DF80740FFF777FD2A686B6811683B
:108A200099420ED9481E106011F8014CEB68298A52
:108A300001FB0434AB6811791B1ADBB2994238BFD1
:108A400013719DF80700FFF783FD204603B030BD8A
:108A500037B5054600230DF107000C468DF80730A9
:108A6000FFF752FD2A681368591C1160E968641AFF
:108A7000298AB4FBF1F41C709DF80700FFF768FD2C
:108A800003B030BD826810B504462AB1436901685D
:108A9000006998470023A36010BD0EB403B5039985
:108AA00021B104AB01AA019300F076F802B05DF8A1
:108AB00004EB03B070470A2938B504460D4602D1CD
:108AC0000D21FFF7F8FFA3682268591CA160D55457
:108AD000D4E901329A4204D32046BDE83840FFF77A
:108AE000D1BF38BD2DE9F84F9846DDE90A43154658
:108AF00082460F460A464FF00109AA420FD2C145ED
:108B000038BFC14613F0010B01D16CB90024012616
:108B1000B8F1010F1BD908F1FF386E43F8E709F1EE
:108B20000109B2FBF5F2E8E79B070ED5B8F1000F9B
:108B30000CBF30262026A145E9D2013C31465046E3
:108B4000FFF7B9FF002CF6D1E0E72026F3E7B7FBEB
:108B5000F6F39D42E1D9DFF83C80B7FBF6F35046CF
:108B600018F8031006FB1377FFF7A5FF3346AB4257
:108B7000B6FBF5F6F1D2BBF1000F02D00CB1A14566
:108B800001D3BDE8F88F20215046013CFFF793FF49
:108B9000F4E700BFE6BF02002DE9F74F0546174690
:108BA0008846002900F0428118F8011B49B92B7B47
:108BB000002B00F03B81284603B0BDE8F04FFFF7E3
:108BC00061BF252940F0B780002698F800302D2B92
:108BD000424608F1010823D0302B24D02B2B25D07E
:108BE00000242A2B02F1010123D13B681A1D1B68C6
:108BF0003A601C440A4613782E2B26D101324FF0DE
:108C0000000A104610F8011BA1F1300CBCF1090F4D
:108C10001DD80A2303FB0A13A3F1300A0246F0E72A
:108C200046F00106D1E746F00206CEE746F004061C
:108C3000CBE711F8013CA3F130000928DBD80A2268
:108C400002FB0434303C0A46CBE74FF0000A12F82E
:108C5000011B01F0FB0068289046F8D0782909D85C
:108C60006F290CD8632962D022D8252963D05829CE
:108C700000F0888098F80030002B95D197E7703984
:108C80000829F7D801A353F821F000BF078E02008E
:108C9000758C0200758C0200958D0200758C0200A7
:108CA000738D0200758C0200758C0200858D0200A8
:108CB000642901D06929DDD13A68D2F80090111DEC
:108CC00089EAE9723960A2EBE9724FF0010B092AD7
:108CD00035DCD34538BFD3462CB1B9F1000F01DBE9
:108CE000720700D5013CB30702D5BAF1000F03D0DB
:108CF000F00701D44CBB0024B9F1000F2DDAC9F103
:108D000000092D212846FFF7D6FE06F00302022AAD
:108D100004D1BAF1000F01D11CBB0024CDE90046FB
:108D200053460A2249462846FFF7DCFEA2E73B6885
:108D30001A1D19783A602846FFF7BDFE9AE70A2304
:108D40000BF1010BB2FBF3F2C1E7A345D4D2202112
:108D50002846013CFFF7AFFECCE77107D5D52B21A4
:108D6000D0E7A345DAD230212846013CFFF7A3FE25
:108D7000D2E73968CDE900460A1D3A6053460A2217
:108D80000968D0E739680A1D3A60CDE900465346C4
:108D90001022F5E73B681A1D3A6016F00106D3F879
:108DA000009028D1B9F1000F03D0484602F09DFF92
:108DB0000646B44200D904BB09F1FF3919F8011F76
:108DC00000293FF457AF2846FFF775FEF6E728461F
:108DD0000136FFF770FE19F806100029F7D1A642F8
:108DE000BFF448AF002C3FF445AF20212846013C9A
:108DF000FFF761FEF3E70026EDE720212846013C5E
:108E0000FFF759FED5E73B681A1D3A603021284626
:108E10001C68FFF750FE78212846FFF74CFE002221
:108E20000823CDE90032214610227CE703B0BDE8DB
:108E3000F08F00BF2DE9F84FB0F806A04579D2F8C1
:108E400000B09DF828900AFB05F5043D88460BEB21
:108E50000301A94203F1040488BFA5EB030BB4FB93
:108E6000FAF607460AFB1644C2F800B04EB9AAEB60
:108E700004055D4528BF5D46BBF1000F04D1BDE888
:108E8000F88F3F68013EF1E7043408EB06003C44EC
:108E90002A46B9F1000F0DD02146ABEB050B02F0CD
:108EA000C8FEDA452E443F6855464FF0000428BFFF
:108EB0005D46E1E701462046EFE7FFF78EBDF8B5D6
:108EC00046790146721E0546002393422D6803D35E
:108ED0000024A64202D8F8BD0133F6E70F68284601
:108EE000FFF7B6FD01343946F3E72DE9F843068A6A
:108EF000CD1C0746FFF788FD043E35440446B5FB0C
:108F0000F6F5F0B14FF48073EDB28380C680013D79
:108F1000076081464FF00008A84512D23846FFF797
:108F200073FD064648B163790133637108F10108A6
:108F3000C9F8000007608146EEE72046FFF7BFFF53
:108F400034462046BDE8F88301210430FFF727BDF1
:108F500010B5012104460430FFF72DFD10F0FF0F7E
:108F600004D12046BDE81040FFF7A9BF10BD1FB5D2
:108F700003920022009203AAFFF75CFF05B05DF8A0
:108F800004FB1FB503920122009203AAFFF752FFD0
:108F900005B05DF804FB41DF70470000064B10B5DB
:108FA00000241C70054B1C60BFF35F8F044905480B
:108FB00000F039F8204610BD242A0020282A00207D
:108FC00000C002001C2A002007B500230DF1070095
:108FD0008DF80730FFF798FAF1EE103A23F09F036F
:108FE000E1EE103ABFF35F8F094B4022C3F88421B2
:108FF0009DF80700FFF7ACFA02F056FC20B1FFF72E
:10900000CAFF03B05DF804FB20BF40BF20BFF8E7F4
:1090100000E100E0836800225A60C3E904229A60FC
:10902000DA601A6070470B684A684360934208BF71
:109030000023016008BF43607047436843B1026882
:10904000916852680B449342436004BF002343601D
:10905000704770B5446806460D46206818B1B3687D
:109060002946984718B923682B60256070BD24688D
:10907000F3E74368186808B102681A6070474368EC
:10908000186870474368186800B97047884203D170
:1090900002681A600120704703460068F4E7000088
:1090A00010B50D49A1F59472914201D800200FE04E
:1090B0008C1AE30F03EBE4035B1002EBC30452F8DA
:1090C0003330834205D802D204F10802ECE760682D
:1090D00010BD2146E8E700BF0CC5020008B5FFF748
:1090E000DFFF024B002808BF184608BDCFC30200AF
:1090F000034B1868A0F1080358425841704700BF5D
:1091000030010010064B1B68082B06D1054B1B686D
:10911000052B02D8044AD05C70470020704700BF7E
:10912000300100103401001012C50200024AD2F8CA
:109130000034002BFBD0704700E0014010B5FFF772
:10914000D7FF40B14FF080430022C3F80C21C3F891
:109150001021C3F83825FFF7CBFF002846D04FF089
:109160008052614BD2F80414C3F82015D2F80814C9
:10917000C3F82415D2F80C14C3F82815D2F810142B
:10918000C3F82C15D2F81414C3F83015D2F81814FB
:10919000C3F83415D2F81C14C3F84015D2F82014C3
:1091A000C3F84415D2F82414C3F84815D2F828148B
:1091B000C3F84C15D2F82C14C3F85015D2F830145B
:1091C000C3F85415D2F83414C3F86015D2F8381423
:1091D000C3F86415D2F83C14C3F86815D2F84014EB
:1091E000C3F86C15D2F84424C3F87025FFF78AFF42
:1091F00010B13E4B3E4A1A60FFF784FF18B13D4B59
:10920000FB22C3F81825FFF77DFF48B13A493B4BD5
:109210000A681B6822F00F0203F00F0313430B6070
:10922000FFF770FF18B1364B4FF400721A60FFF76A
:109230005FFF48B14FF08043D3F80024D20744BF0A
:109240006FF00102C3F800242E4AD2F8883043F4AC
:109250007003C2F88830BFF34F8FBFF36F8F2A4B74
:109260001B68082B0ED1294B1B68052B02D8284AF6
:10927000D35C3BB14FF01023D3F808224FF080436A
:10928000C3F858254FF01023D3F80022002A03DB3F
:10929000D3F80432002B22DA1E490123C1F8043529
:1092A000FFF744FF4FF010201224C0F80042FFF7F0
:1092B0003DFFC0F80442FFF739FF0023C1F8043531
:1092C000FFF734FFBFF34F8F0E49134BCA6802F408
:1092D000E0621343CB60BFF34F8F00BFFDE70F4B3E
:1092E0000F4A1A6010BD00BF00C000408C560040FD
:1092F0004881030000F00040E40E004058020010D6
:109300004096024000ED00E03001001034010010F2
:109310000CC5020000E001400400FA0548230020CB
:109320000090D003074B1B5C1F2B86BF064903F040
:109330001F034FF0A041012202FA03F3C1F80C35DC
:10934000704700BF18C5020000030050074B1B5CAC
:109350001F2B86BF064903F01F034FF0A0410122D7
:1093600002FA03F3C1F80835704700BF18C50200C0
:109370000003005008B50020FFF7E8FF0120FFF7C9
:10938000E5FF0220FFF7E2FFBDE808400320FFF7FA
:10939000DDBFC20710B504460CD54FF0A043032231
:1093A000C3F83427C3F83827C3F83C27C3F840274D
:1093B000FFF7E0FFA3070AD54FF0A0430C22C3F844
:1093C0002C27C3F83027C3F86027C3F8642710BDE3
:1093D00038B5074C051E04F1080318BF1C46236866
:1093E0002BB11A6822605B6828469847F7E738BDBA
:1093F000342A002020B9054B01225A70FFF7E8BF3C
:10940000012802D1014A9070F8E770472C2A002009
:1094100020B9034B01225A70FFF7DABF704700BF33
:109420002C2A002038B50E4C2378B3B90D48636060
:10943000A3602361E36000F0E5F8054602F034FA2A
:1094400008B900F0EBF801232370074BD3F8003480
:109450000BB10123A370284638BD8525F5E700BF71
:109460002C2A0020F59302000000014037B50D4C76
:1094700000230DF107008DF80730FFF745F8E3688A
:10948000013BE360E36833B9074BD3F8005415B9E7
:1094900000F0D6F8A5709DF80700FFF759F803B063
:1094A00030BD00BF2C2A002000000140012813B568
:1094B0000CD0032820D038B9124B0122C3F88020E9
:1094C000BFF34F8FBFF36F8F02B010BD0E4C002360
:1094D0000DF107008DF80730FFF716F823780BB968
:1094E000FFF7A0FFE3689DF807000133E360012365
:1094F000A370FFF72DF8E7E700F090F8FFF7B6FF4D
:10950000E2E700BF00E100E02C2A00201FB503784D
:109510008DF800304368019383688DF80830C36884
:10952000054A0393054B684653F8213052F8211041
:10953000984705B05DF804FB402A0020482A002027
:109540001FB503788DF800304368019383688DF868
:109550000830C368054A0393054B684653F8213029
:1095600052F82110984705B05DF804FB402A00200E
:10957000482A0020F0B5194B90F800C0DFF86CE0E5
:1095800043F82C20164B16460A6943F82C204B7FD3
:109590000EF80C300C4607460FCC89B06D460FC54F
:1095A00094E80F0085E80F001EF80C30CDF810C0CD
:1095B0004BB1002E0B4A694608BF3246381D00F0F9
:1095C0000BFE09B0F0BD002E074A694608BF3246BF
:1095D00007F10C0000F0D8FBF3E700BF482A002099
:1095E000402A00200D95020041950200502A0020DB
:1095F00000F18040002382B0036003680193019B67
:1096000002B07047044A137923B901211060918098
:109610001846704785207047542A0020074B1A6867
:10962000D20704D4C02283F8002301221A604FF02D
:1096300080430122C3F81825704700BF00E100E015
:109640004FF0804208B50223C2F808334FF482700D
:10965000FFF7CEFF034B01211960D2F81834DB036A
:10966000FBD408BD0C000040124B1B6810B573B151
:109670004FF48070FFF7BCFF4FF080430122C3F826
:1096800008230D4B587910B95A711B6898470B4B3A
:109690001B6873B14FF48270FFF7AAFF4FF080434D
:1096A0000222C3F80823044BBDE810401B680120C8
:1096B000184710BD00010040542A0020040100405A
:1096C00000F1804000F5C040002382B003600368D1
:1096D0000193019B02B0704703681F2B83BF03F007
:1096E0001F03036001484FF0A04070470003005083
:1096F00007B5019001A8FFF7EFFF019B00EB830086
:10970000D0F8003723F44033C0F80037D0F80037E2
:1097100043EA0141C0F8001703B05DF804FB000004
:10972000054B4FF0FF32072843F8202084BFC018B4
:1097300080F85820704700BF5C2A002038B51E4CC6
:1097400094F86A30ABBB4FF6FF71FF205A09012A2B
:1097500014BF4FF0FF320A4603F01F05EA40D2075C
:1097600048BFE21803F1010348BF82F83000302BF4
:10977000ECD10021C8B2FFF7D3FF01310C29F9D198
:10978000062200210D4802F07DFA0D4BC02283F81D
:10979000062340221A604FF4BE70FFF791FF094B79
:1097A0004FF00042C3F80423012384F86A300020FC
:1097B00038BD0820FCE700BF5C2A0020C02A00203A
:1097C00000E100E000600040034B93F86A000038BD
:1097D00018BF0120704700BF5C2A0020F7B53B4E40
:1097E0003318054693F93030002B6CDA8B78C3F3CD
:1097F0004003002B0BBF082400240C2008208442C7
:1098000002D1042003B0F0BD56F82470013743D1D3
:10981000701946F8242080F8304013B9331983F8C2
:1098200058508B785A0717D4D80737D501A8019517
:10983000FFF752FF019B00EB8300D0F8003723F0C5
:109840000203C0F800372248EA0805F007070123A1
:10985000BB40875C3B4383548B780A7813F0020348
:1098600028D0A40004F1804404F5C0442D02D4F8AB
:10987000103523F44F3323F44073C4F81035120429
:10988000D4F8103505F47C5502F4403215431D43DD
:10989000C4F810550020B5E70134B0E701A84A78B4
:1098A0000195FFF719FF019B03F5E073920040F863
:1098B0002320C8E7083C344494F8605045EA8212FB
:1098C00084F86020E6E708209CE700BF5C2A0020BF
:1098D000C02A002073B5224C2618054696F9302080
:1098E000072A1ADD224492F858309B09032B0FD126
:1098F000019001A8FFF7F0FE019BD0F81015D940A8
:1099000001F0010102312846FFF7F2FE02B070BDFE
:10991000012B0CBF02210321F5E7D3B2072BF5D8A9
:10992000930003F1804303F5C043D3F8100540F0E2
:109930000100C3F8100502F14000800080B2FFF77B
:10994000BFFE0029E2D096F9303054F82330002BC6
:10995000DCD0012303FA02F2024BC3F80423D5E75B
:109960005C2A0020006000400E4B034493F9302035
:10997000072A02DD0021FFF7BBBED3B2072B10D8A8
:10998000930003F1804303F5C043D3F8101521F091
:109990000101C3F81015012303FA02F2024BC3F8C8
:1099A000082370475C2A00200060004007B5019042
:1099B00001A8FFF791FE019BD0F81005D84000F0F8
:1099C000010003B05DF804FB2DE9FF470024CDE959
:1099D0000244584D4FF48072012102F1804303F597
:1099E000C04390B21B68012B06D1D5F804330B425B
:1099F00002D0FFF765FE0C430432B2F5907F4FEAC8
:109A00004101EAD14C4B1B68012B11D14FF4BE70C0
:109A1000FFF756FE4FF0A04344F00044D3F8202552
:109A20000292C3F82025D3F820280392C3F82028F7
:109A300014F0FF0F1AD0414F00250126344210D0F8
:109A4000AB0003F1804303F5C043D3F81005D3F80E
:109A5000101557F8253023B1C1F30141C0F305209B
:109A600098470135082D4FEA4606E7D1002C59DA10
:109A7000324D334C334E4FF00008012716F9013BAD
:109A80005A1C3CD0C3F3C20104A801445FFA83F915
:109A900011F8081C03F03F0203F0070307FA03F371
:109AA00019422CD001A80192FFF716FE019B03F585
:109AB000E07350F82330C3F3014ABAF1020F1046A5
:109AC0000CBF03210221FFF713FE01A80192FFF74B
:109AD00003FE019B07FA03F3C0F82035AB1893F996
:109AE000303055F8233053B14FEA9911032904D08F
:109AF000BAF1020F19D1012901D11046984708F196
:109B00000108B8F1040FB9D14FF0A043D3F82025D4
:109B10000292C3F82025D4F820350393C4F82035E9
:109B20001343A7D104B0BDE8F087BAF1030FE6D123
:109B30000229E1E7006000407C6100405C2A0020CF
:109B400000030050BC2A0020014B1B68184700BFCF
:109B5000C82A00200E4B984237B50C4602D0002090
:109B600003B030BD00230DF107008DF80730FEF77C
:109B7000CBFC084B1D7915B901221C601A719DF8A8
:109B80000700FEF7E5FC002DE9D01120E8E700BF53
:109B900000200040C82A0020034B984201BF034B1D
:109BA00000221A601A71704700200040C82A002065
:109BB0000023435082B043580193019B02B0704789
:109BC0000A4610B54FF48E71FFF7F2FF136A9168E1
:109BD000C95C136A01331362C0F81C1510BD8B6990
:109BE0000A4610B54FF4847123B9FFF7E1FFD0F8AE
:109BF000183510BDFFF7DCFF536AD168D0F818059F
:109C0000C854536A01335362F3E700001FB50123C0
:109C10008DF80030044BCDE90110D3E900126846FD
:109C2000904705B05DF804FBD02A002030B54C48C1
:109C3000D0F8043313F4007F85B005464DD0D0F83A
:109C40002431002B49D04FF49271FFF7B1FF4FF44C
:109C50000173C0F80833434B93F829200AB9012255
:109C600042603F4902228DF80020D1F88024C1F8DB
:109C7000802403929A690292DA6801920022C3E971
:109C800006226846D3E9001290473548D0F81C31C7
:109C90005BB134494A690B6A9A420A464AD991F83B
:109CA0002830002B46D1FFF78BFF2D48D0F84431E8
:109CB0008BB14FF4A271FFF77BFF2A4B93F8292059
:109CC0000AB1012202609A692AB10022586AD96851
:109CD0009A61FFF79BFF05B030BDD5F804335B07F1
:109CE000D3D5D5F80831002BCFD01E4C1C482146C7
:109CF000FFF775FF636AA2699A422346C5D1E269FC
:109D0000E1684AB12369E3600023606AA261E3610C
:109D10006362FFF77BFFB8E794F829200AB90122B4
:109D20006A600F4A4FF40170C2F808030022586AB3
:109D30009A61EEE70A484FF48E71FFF739FF5369D5
:109D4000002BB2D051690291002391688DF8003048
:109D5000019153616846D2E900139847A5E700BF17
:109D600000200040D02A00201F2886BF00F01F00DE
:109D7000044B4FF0A04300F5E070022243F820208E
:109D8000704700BF000300502DE9F843614B05798F
:109D900091462C2202FB0532064692F82A200C46F8
:109DA0009846002A40F0B1805B490068FFF7D2FE78
:109DB0000746002840F0AB8021684A1C10D01F29BC
:109DC00087BF564A01F01F030B464FF0A042012007
:109DD000984003F5E073C2F80805032042F8230019
:109DE0006068431C0DD01F288BBF00F01F03034683
:109DF0004A4A4FF0A04203F5E0734FF0000C42F8DE
:109E000023C03368A269C3F8242594F814C0627D86
:109E1000BCF1010F4CEA0202C3F86C25C3F814052B
:109E2000C3F80C152BD1A168481C0DD01F298BBF7E
:109E300001F01F020A4639484FF0A04002F5E072D7
:109E40004FF0000C40F822C0E068421C13D01F28DD
:109E500087BF324A00F01F0C84464FF0A0424FF0FB
:109E6000010E0EFA0CFE0CF5E07CC2F808E54FF08E
:109E7000030E42F82CE0C3F80805C3F810152C2394
:109E80006B4308EB0302C2F80490226948F80320F0
:109E9000B9F1000F21D03068247F4FF48E71FFF7A5
:109EA00087FE4FF4A2713068FFF782FE32681C4BC8
:109EB000C2F80433110B42F307326301002ADBB20C
:109EC0001EDB1848841884F800330123520901F07E
:109ED0001F0103FA01F140F8221033680422C3F88D
:109EE00000252C2303FB05830022C3E9062283F807
:109EF00029205A61012283F82A203846BDE8F883D8
:109F0000094A01F00F015354E7E70827F5E7112745
:109F1000F3E700BFD02A00202D9C02000003005070
:109F20008000020000E100E014ED00E02DE9F041C6
:109F300003680479284D0022C3F800252C2202FB77
:109F4000045201465268A2B1244AC3F808231A0BEE
:109F500043F30733002B0CDB02F01F005B090122E7
:109F6000824020331E4840F82320BFF34F8FBFF3B9
:109F70006F8F0B68D3F80C05D3F81485D3F80865F8
:109F8000D3F810754FF0FF329042C3F81425C3F890
:109F90000C25C3F80825C3F8102501D0FFF7E4FE0F
:109FA000B8F1FF3F02D04046FFF7DEFE7A1C02D038
:109FB0003846FFF7D9FE731C02D03046FFF7D4FEB7
:109FC0000868FFF7E9FD2C2303FB0454002384F801
:109FD0002A306360BDE8F081D02A002084020200AC
:109FE00000E100E02DE9F047204F90F804904FF099
:109FF0002C0808FB097405466669002E34D162619D
:10A000000068A16026624FF48E7184F82860FFF723
:10A01000CFFD2868012383602146FFF7D1FD6368E7
:10A02000A0468BB92868D4F814A0236A9A4511D8A1
:10A030002A68D2F81C31002BFBD00123D3602C23DB
:10A0400003FB097300225A613046BDE8F08794F89B
:10A0500028303BB9D0F81C31002BF8D04146FFF72F
:10A06000AFFDE2E70F26EAE71126EDE7D02A002050
:10A070000023435082B043580193019B02B07047C4
:10A080001FB501238DF80030044BCDE90110D3E951
:10A0900000126846904705B05DF804FBFC2A0020DA
:10A0A0001F2886BF00F01F00044B4FF0A04300F5AF
:10A0B000E070022243F82020704700BF00030050E8
:10A0C0007FB5434AD2F82461002E60D010464FF489
:10A0D0009271FFF7CDFF02238DF80030D2F8803463
:10A0E000C2F880340393D2F83C350293394BDA68D6
:10A0F00001920022C3E906226846D3E90012904784
:10A100003348D0F8443173B14FF4A271FFF7B0FF78
:10A11000304B9A693AB10022C3E90622D968D0F8D7
:10A120003C05FFF7ADFF2A48D0F82031ABB14FF422
:10A130009071FFF79DFF0123C360264B5A6962B1FE
:10A14000D0F84C150291002299688DF800200191F9
:10A150005A616846D3E9001290471D48D0F858313B
:10A160009BB14FF4AC71FFF783FF1A4B5A6962B190
:10A17000D0F84C150291002299688DF800200191C9
:10A180005A616846D3E90012904704B070BDD2F816
:10A190001031002BB4D04FF488711046FFF768FFE0
:10A1A0000C4BD2F83C0599698842A9D1DC69D96881
:10A1B00064B1D2F8005225F02005C2F800521A69A5
:10A1C0009C61DA60DE61FFF75BFF99E79C61FAE76B
:10A1D00000200040FC2A00202DE9F843674B067957
:10A1E0009146242202FB0632044692F820200D46B6
:10A1F0009846002A40F0BE8061490068FFF7AAFC3B
:10A200000746002840F0B8802868421C10D01F285C
:10A2100087BF5C4A00F01F0303464FF0A0420121B4
:10A22000994003F5E073C2F80815032142F82310A2
:10A2300069684B1C0DD01F298BBF01F01F030B4613
:10A24000504A4FF0A04203F5E0734FF0000C42F883
:10A2500023C02368AA69C3F8242595F814C06A7D31
:10A26000BCF1010F4CEA0202C3F86C25C3F80C05DF
:10A27000C3F814152BD1A968481C0DD01F298BBF1A
:10A2800001F01F020A463F484FF0A04002F5E0727D
:10A290004FF0000C40F822C0E868421C13D01F2881
:10A2A00087BF384A00F01F0C84464FF0A0424FF0A1
:10A2B000010E0EFA0CFE0CF5E07CC2F808E54FF03A
:10A2C000030E42F82CE0C3F80805C3F81015242348
:10A2D000734308EB0302C2F804902A6948F803208C
:10A2E000B9F1000F30D020682A7F4FF48871FFF752
:10A2F000BFFE20684FF49071FFF7BAFE20684FF45C
:10A300009271FFF7B5FE20684FF4A271FFF7B0FE1F
:10A310004FF4AC712068FFF7ABFE23681A49C3F80D
:10A320000413190B43F307335201002BD2B21CDB89
:10A330001648C51885F8002301225B0901F01F01AA
:10A3400002FA01F140F8231023680822C3F800251F
:10A35000242303FB06830022C3E906225A6101225B
:10A3600083F820203846BDE8F883094B01F00F013F
:10A370005A54E9E70827F5E71127F3E7FC2A0020FC
:10A38000C1A00200000300501003420000E100E001
:10A3900014ED00E02DE9F0413D4E057904682423D9
:10A3A00003FB056302465B68ABB13A4BC4F8083364
:10A3B00044F30733002B4FEA14310CDB01F01F008C
:10A3C0005B09012181402033334840F82310BFF35B
:10A3D0004F8FBFF36F8FD4F8003223F02003C4F8FF
:10A3E0000032242303FB05639B6933B14FF4A27150
:10A3F0002046FFF73DFE012363604FF4AC71204619
:10A40000FFF736FE0123E360242303FB0563D4F842
:10A4100058110029FBD0996919B1D4F844110029C9
:10A42000F5D00023C4F800351368D3F80C05D3F831
:10A430001485D3F80815D3F810754FF0FF32904209
:10A44000C3F80C25C3F81425C3F80825C3F8102554
:10A4500001D0FFF725FEB8F1FF3F02D04046FFF7DD
:10A460001FFE7A1C02D03846FFF71AFE4B1C02D0A2
:10A470000846FFF715FE2046FFF78EFB242303FB5B
:10A480000565002385F820306B60BDE8F08100BFD2
:10A49000FC2A00201003420000E100E001F06043CC
:10A4A000B3F1005F2DE9F041064638D11E4B077924
:10A4B000242505FB073598466C69002C31D16A616B
:10A4C0000068A9604FF49071FFF7D2FD4FF4AC71B2
:10A4D0003068FFF7CDFD33686A69A968C3F8441591
:10A4E000C3F8482501229A606A68AAB9D3F82021E6
:10A4F000D3F858411AB9002CF8D00F2407E0002CEB
:10A50000FBD10122DA60D3F85821002AFBD02423A2
:10A5100003FB078700237B612046BDE8F081102400
:10A52000FAE71124F8E700BFFC2A002072DF704729
:10A5300073DF704776DF70477ADF70477CDF7047E4
:10A540007FDF70478FDF7047B1DF7047FDF782BD57
:10A5500008B5064B01211878FFF7EAFF08B1FDF7AF
:10A5600079FDBDE808400020FEF7DCBE6423002032
:10A570000388212B13B5044654D007D8112B30D0B3
:10A58000132B47D0102B0CD002B010BD522B51D042
:10A59000562B01D03B2BF7D1A0881321FFF7CAFF20
:10A5A0001AE0284B28482949C01AC008000440F086
:10A5B0000300FDF749FA0120FEF7B4FE0020FEF784
:10A5C000C5FE234BA1882348198000F0E1FF08B1A4
:10A5D000FDF740FDFDF7FCFC0028D5D0FDF73AFD66
:10A5E000D2E7184B18481C49C01AC008000440F0B4
:10A5F0000300FDF729FA0120FEF7A8FE144B4FF6E1
:10A60000FF721A80FDF7FAFC08B1FDF723FDFFF792
:10A610009FFFB9E70E4800231A4685210088FFF7FF
:10A620008FFFD9E7002301A98088ADF80430FFF738
:10A6300089FFD1E7064800231A4619460088FFF72C
:10A6400083FFC9E7B0BD0200D8BD02003EC50200CD
:10A65000662300208C2B002048C5020008B5037833
:10A660004BB9054B3B211888FFF764FF18B1BDE8D3
:10A670000840FDF7EFBC08BD662300200B2807B596
:10A680001BD1124B12480191C01AC0080004114995
:10A6900040F00300FDF7D8F90F4B019A0F491888D5
:10A6A00001F05AF830F008020CD043F20202904256
:10A6B00008D043F20142904204D003B05DF804EBAD
:10A6C000FDF7C8BC03B05DF804FB00BFB0BD0200DD
:10A6D000D8BD020055C5020066230020742B00205F
:10A6E00010B50A4B0A4CE41AE408240444F00304AD
:10A6F00002203AB1FEF716FE06492046BDE810409A
:10A70000FDF7A2B9FEF722FE0349F6E7B0BD02004D
:10A71000D8BD02006FC5020080C50200FDF79ABCDB
:10A7200000B54FF48041A7B00020FCF7F5FF08B159
:10A73000FDF790FCFCF730FF0120FEF72AFEFDF745
:10A740006BFD08B1FDF786FC6A4840F23332012107
:10A75000FDF7E8FB08B1FDF77DFCFEF71FFC08B133
:10A76000FDF778FC01F062F808B1FDF773FC0023F7
:10A7700017A90120179301F0E1F808B1FDF76AFC71
:10A7800017A801F08DF908B1FDF764FC11235A48B0
:10A790008DF8203001F0A9FA574982B208A8FFF7D6
:10A7A000CDFE08B1FDF756FC0822002117A801F0E4
:10A7B00069FA524A4FF0C87317A8CDE91723FFF77B
:10A7C000BBFE08B1FDF746FC4D48002100F0D8FD66
:10A7D00008B1FDF73FFC002308934A484A4B179302
:10A7E00017A900F0C3FE08B1FDF734FC474B4848F9
:10A7F000089308A900F042FF08B1FDF72BFC41F2D5
:10A800002353ADF80430424B424C9B7C8DF806300C
:10A810003C22002108A801F035FA02238DF82030EF
:10A820003C2240F20163002117A8ADF8223001F06C
:10A8300029FA22460123ADF86C3052F8041B01AB13
:10A8400008A81C9300F0F0F808B1FDF703FC324AA9
:10A85000A16817A800F0E8F808B1FDF7FBFB182283
:10A86000002102A801F00EFA00230122ADF81430F5
:10A8700003934FF480738DF80820ADF81C30254900
:10A880002648402302AA0493FFF750FE08B1FDF7C3
:10A89000E1FB1C22002117A801F0F4F900234FF47A
:10A8A000A022CDE91732ADF86A304FF4A0328DF80E
:10A8B0006C301B4B19921C9303221A4B8DF86820A5
:10A8C00017A81D9300F078FB08B1FDF7C3FB164BEA
:10A8D00016481749C01AC008000440F00300FDF7ED
:10A8E000B3F8FFF735FEFCF769FF0028FBD1FEF750
:10A8F0006BFBF8E74C23002092C502005000A0003B
:10A90000602B00208C2B00204DA50200E1A6020048
:10A91000742B002054230020602300206423002097
:10A920005DA602001DA70200B0BD0200D8BD020056
:10A93000A0C502006DDF704779DF70477DDF70478B
:10A9400064DF70472DE9F04F85B000250E9CBDF8FF
:10A950003CB0B4F800A00191074690461E46A946B7
:10A960003A884A450DDC45B12388013BA3EB0A0335
:10A970009BB2FF2B3AD806F80A30002005B0BDE89C
:10A98000F08F7A6852F82900039000220DF10B0134
:10A9900003A8FFF7D5FF0028F0D19DF80B20424512
:10A9A00021D12288002D14BF0020022002EB0801D3
:10A9B000014459451ADC3DB9013292B2019B228013
:10A9C000B35422880132228022880DF10B013244D7
:10A9D00003A8FFF7B5FF0028D0D121889DF80B20F0
:10A9E0000A442280012509F10109B9E70C20C5E7D5
:10A9F0002DE9F341089FBDF824801546CDE9007884
:10AA0000022204461E46FFF79DFF50B9334610222E
:10AA100029462046CDE9087802B0BDE8F041FFF7AD
:10AA200091BF02B0BDE8F0812DE9F04F00231788F7
:10AA3000138090F82D3085B006460D46144653B36A
:10AA4000082F01D80C2027E102A8FFF773FF002888
:10AA500040F0228123880822EA54238801339BB2E4
:10AA60001B222380EA542088013080B220800622F5
:10AA70000DF10901284401F0DCF823889DF8082035
:10AA800006339BB212F0FE0218BF01222380EA5463
:10AA9000238801332380B378FBB123880433BB427E
:10AAA000D0D802A8FFF748FF002840F0F58023889F
:10AAB0000322EA54238801339BB219222380EA54EB
:10AAC0002388BDF8082001339BB2E9182380EA549B
:10AAD000120A4A70238802332380F2789AB12388BD
:10AAE000D91CB942AED80221E954238801339BB264
:10AAF00001212380E95423880B449BB22380EA542C
:10AB000023880B4423807268AAB12388D91CB942D8
:10AB100098D8022192F90020E954238801339BB28E
:10AB20000A212380E954238801339BB22380EA540D
:10AB30002388013323803389002B40F0A180338A9E
:10AB40005BB1CDE900472B460722032106F1100037
:10AB5000FFF74EFF002840F09F80338B5BB1CDE9BB
:10AB600000472B461522142106F11800FFF740FF7D
:10AB7000002840F09180326A002A40F09080D6F898
:10AB80002480B8F1000F30D0B8F804302188981C28
:10AB90008A1C0244BA423FF655AFFE283FF652AF38
:10ABA00003336B54238801339BB2FF222380EA5482
:10ABB000238801339BB22380B8F80020EA54E918B7
:10ABC000120A4A702088023080B22080B8F804202F
:10ABD0005AB1D8F8081000296BD0284401F029F8A0
:10ABE0002388B8F804201344238096F82C30002BD7
:10ABF00040F09A80307800284ED03388012B58D00E
:10AC0000228802F1020CBC453FF61CAF012805D199
:10AC10007378023313449F42FFF414AF023FBF1A0C
:10AC2000BFB202A905EB0C00ADF80870FFF786FE75
:10AC300090BB3178BDF80830022900F0BA807278F4
:10AC40009A4202D3BB4240F2B280012940F0B38065
:10AC5000974293B2C0F0AF80ADF808300821BDF83C
:10AC60000830FE2B3FF6EEAE22880133AB5422882B
:10AC7000013292B22280A9542288134423800BE02F
:10AC8000CDE900472B460622022106F10800FFF716
:10AC9000AFFE00283FF453AF05B0BDE8F08FB4F825
:10ACA00000C00CF10603BB423FF6CCAE118805296B
:10ACB00001D80720F0E76FF4486E01EB0E039BB25A
:10ACC0004FF27D3E7345F4D95388052BF1D96FF4CB
:10ACD0004860181880B27045EBD94FF6FF7081427A
:10ACE00003D0834201D09942E3D8052305F80C3004
:10ACF000238801339BB212212380E9542388013336
:10AD00009BB223801188E954E818090A417023880E
:10AD100002339BB223805288EA54E918120A4A701F
:10AD20002388023323802AE7B36A002BC1D04FF077
:10AD300000094FF00C0A4FF0160B96F82C305FFA12
:10AD400089F293427FF656AFB16A0AFB02F201EB39
:10AD50000208B8F80430981CFE283FF673AE20882D
:10AD600003332B54238801339BB2238005F803B0AF
:10AD7000238801339BB223808A5AEA54E918120AC5
:10AD80004A702088023080B22080B8F804205AB17E
:10AD9000D8F8081000298CD0284400F04AFF2388F6
:10ADA000B8F804201344238009F10109C5E70921FB
:10ADB00055E7BB42FBD9ADF808704FE775DF704728
:10ADC00076DF70477ADF70477BDF7047034B1A8866
:10ADD00082420CBF18460020704700BFB42B0020F1
:10ADE000024B9B6903B11847704700BF982B0020A6
:10ADF00073B585B22846FFF7E9FF044670B1164ED9
:10AE0000027A337B9A420BD200F10A012846FFF7FF
:10AE1000D5FFE8B1112801D0FFF7E2FF02B070BD05
:10AE200000230372337C43B13B212846FFF7C8FF60
:10AE300030F0080301D0FFF7D3FF7369002BEDD08A
:10AE400000228DF80420ADF8065001A89847E5E7E8
:10AE5000237A01332372E1E7982B002037B50B46A4
:10AE6000497A0F4A71B9D2E901141D7A0246002DC0
:10AE700018BF21465868FDF713FA08B1FFF7B0FF75
:10AE800003B030BD002119725369002BF8D00122A4
:10AE9000ADF806008DF8042001A89847F0E700BF40
:10AEA000982B00204B8802889A4213D842889A42F5
:10AEB00010D380888A8840F2F313984294BF031A13
:10AEC000C31A934206D800F2F310904234BF002018
:10AED00001207047002070470388122B70B501468F
:10AEE00059D004D8102B1ED0112B44D070BD502B3C
:10AEF000FCD12F4BC288DB899A42F7D1038A022BFF
:10AF0000F4D186883046FFF761FF05460028EDD072
:10AF100001F1120000F03FF938BB6868FDF7EBF96A
:10AF20000028E3D009E0C37B012BDFD14FF6FF708F
:10AF3000FFF74CFF054620B90420BDE87040FFF73D
:10AF40004FBF1C4A8E880680002303721368C0F826
:10AF50000A305368C0F80E3010310A30FFF7A2FFF4
:10AF6000134B6872DB89002BC0D129463046BDE8FF
:10AF70007040FFF773BF8088FFF728FF0446002862
:10AF8000B4D04068FDF7B7F908B1FFF729FF4FF6D5
:10AF9000FF732380AAE786883046FFF717FF054630
:10AFA0000028A3D008310A30FFF77CFF6872DCE785
:10AFB000982B0020C82B0020F8B5064648B305465C
:10AFC0000FCD154F3C460FC495E8070084E80700F5
:10AFD0003068124C3C60B0B1FFF7F4FEC0B9326883
:10AFE00013682360536863600D480E4A4FF6FF7381
:10AFF00003800D4B40F8043F0021FDF73FF9002886
:10B0000018BF032004E02046FFF7DEFE0028EBD047
:10B01000F8BD0E20FCE700BF982B0020C82B0020B5
:10B02000B42B0020F1AD0200D02B00200AB1FDF7B7
:10B030006BBCFDF772BC73B50191019C06466CB107
:10B0400000252C46294601A8FDF771FC18B106EB36
:10B05000440301349D800135142DF3D13046346012
:10B0600002B070BD2DE9F04703888488103B8CB096
:10B0700005460A2B1FD8DFE803F0063F1E1E1E1EE2
:10B080001E1E1E604400314EB368DB43009371689E
:10B090006846FDF778FC009901A8FFF7CCFF0DF199
:10B0A00008094FF00008019B984507D3132C13D9CA
:10B0B0000420FCF7CFFF0CB0BDE8F08739F802ABF5
:10B0C00000270137514606EB8700FDF726FC1E2FAF
:10B0D000F7D108F10108E6E71D482146FDF714FC09
:10B0E0001C482146FDF710FCEB7B022BE3D11A48EC
:10B0F0002146FDF709FCDEE715482146FDF70DFC6A
:10B10000D9E7027A15483F2A4FEA1215214694BF23
:10B1100000220122FFF78AFF022D94BF00220122A4
:10B120000F482146FFF782FF012D0E4894BF0022F1
:10B1300001222146FFF77AFFBDE7037A002BBAD13F
:10B14000427A0648C2F3C0022146F3E7F02B002002
:10B15000F82B0020F42B0020FC2B0020082C0020D2
:10B16000042C0020002C0020AADF704700230138A7
:10B170000B70042806D8DFE800F00306080A0C006C
:10B1800011230B7070472123FBE73123F9E71223CA
:10B19000F7E72223F5E7007800F001007047F0B5EB
:10B1A0008B7891B0012B0C4638BF01238DF80E30FF
:10B1B00005460B88ADF80C30002116466846032280
:10B1C00000F060FD607C6946FFF7D0FFA07C0DF1C8
:10B1D0000101FFF7CBFFE27B237B217D43EAC20322
:10B1E000227C43EA02139DF80220002922F0190272
:10B1F00003F0190314BF02210121134361F3420339
:10B200001C22002109A88DF8023000F03BFD637B71
:10B2100013F0300F15D002AF03220021384600F0A2
:10B2200031FDE07C0DF10901FFF7A0FF11238DF83E
:10B2300008309DF80A300E97012262F342038DF820
:10B240000A30637B8DF824301422A37B8DF82530DF
:10B25000002104A800F016FD03AB0493A388ADF809
:10B260001C30A368CDF814D01BB1E288ADF81820CB
:10B270000893A369002B31D001AF03220021384687
:10B2800000F000FDA3691A88ADF82C205A88ADF8AB
:10B290002E205A680D97187B0A923946FFF766FFF1
:10B2A000A3690DF10501587BFFF760FFA269917A50
:10B2B000137A43EAC103D17A927B43EA01139DF8E2
:10B2C0000610002A03F0190321F0190114BF02220D
:10B2D00001220B4362F342038DF80630E36903B1A8
:10B2E0000C93334604AA09A92846FFF73DFF11B085
:10B2F000F0BD90DF7047A5DF7047B5DF70470000F5
:10B300007FB50023ADF80810ADF80A106A4602A90F
:10B31000064603930093ADF80430FFF7EAFF0546B5
:10B3200000B3124B124CE41AE408FDF7D7FE2404D4
:10B3300044F0010403460F4932462046FCF791FBD6
:10B34000BDF80020BDF8023052EA030103D00A49DB
:10B350002046FCF786FBBDF804201AB107492046B9
:10B36000FCF776FB284604B070BD00BFB0BD0200FC
:10B37000F8BD0200B8C5020002C6020041C60200C4
:10B3800078B14FF0171303601B2303711723C38099
:10B39000038141F61B3200230161438182811846FB
:10B3A00070470E207047000013B5034680880C4696
:10B3B000B8B91A88242A00F0958014D8112A71D0BF
:10B3C000232A00F09D80102A3BD0A37A4BB1E1885C
:10B3D0000020FFF790FF002840F098804FF4807322
:10B3E000638102B010BD3A2A64D0552AEDD1DB88C2
:10B3F000C988A072172B38BF17238B4228BF0B4672
:10B400002381FFF77AFF60B1FDF768FE484B494999
:10B41000024649481B1ADB081B0443F00100FCF7F5
:10B4200017FBE37A002BD0D12369002BCDD040F657
:10B43000772200922289ADF8042069462046984779
:10B44000C3E7DB7B0A790A73012B13D0022B14D0DC
:10B45000E18823898B4205D20020FFF74CFF70B9A9
:10B460000123E372217B637B8B42AED20020FFF786
:10B4700047FFAAE70B88E380EAE74B88FBE7112840
:10B4800002D10123A372EDE7FDF728FE284B2B49DB
:10B49000024629481B1ADB081B0443F00100FCF795
:10B4A000D7FADFE71723CB800B8141F61B334881A6
:10B4B0008B818AE75B89CA88934228BF1346172B82
:10B4C0000A6938BF17230B814AB1C97A39B140F6EE
:10B4D00077210091ADF8043069462046904700235B
:10B4E000638172E71A7A0B694A73002B3FF46DAFE0
:10B4F0004DF67A218DF8050000918DF804209CE727
:10B50000197A237B994228BF1946B0E711283FF4E6
:10B5100068AFFDF7E3FD064B0849024606481B1AD3
:10B52000DB081B0443F00100FCF792FA59E700BF67
:10B53000F8BD0200C8C60200B0BD020097C60200F6
:10B54000B0DF704766DF704710B5002104464088C1
:10B55000FFF7F8FF034608B9237210BD112801D187
:10B560000123F9E76368BDE81040184760B159B19D
:10B570000378DE2B0AD00B684360DE2303704FF69E
:10B58000FF734380002070470E20704708207047EB
:10B5900028B10378DE2B04D14180002070470E20B3
:10B5A000704708207047F0B5054685B00C46F1B1EC
:10B5B000E8B10B78DE2B1AD182884B889A4204D1ED
:10B5C0000B7A13B10846FFF7BFFF2B88112B32D03F
:10B5D000512B0ED0012B0AD12B7A012B07D1A98830
:10B5E0006288914203D123722046FFF7ADFF05B078
:10B5F000F0BDAE886388B342F9D1AF79022FF6D19E
:10B60000AD7B2B1F022BF2D800211022684600F0E0
:10B6100039FB052D14BF4FF4C07300236946304633
:10B620008DF80070ADF80430FFF78AFF0028DED0F7
:10B6300063689847DBE76388AA889A4204BF4FF69D
:10B64000FF736380D3E7A8DF7047AEDF704762DF28
:10B6500070470288502A10B40DD1C4884A88944299
:10B6600009D1028A012A06D14B6923B1827C5DF897
:10B67000044B808818475DF8044B7047F0B50B68A1
:10B6800043618FB0334B02AA044603F110071646FC
:10B6900018685968154603C50833BB422A46F7D1D6
:10B6A00004F112013046FFF7D2FF00284FD1A37CEE
:10B6B0008DF80630224641F2235301A90120ADF84E
:10B6C0000430FFF7C0FF002841D10146202206A820
:10B6D00000F0D8FA41F22453ADF81830A37C8DF86D
:10B6E0001A309DF82530224623F0120301254FF031
:10B6F000011643F0120332F80A0B079606A98DF8DB
:10B7000025308DF829508DF82B50FFF748FDF0B902
:10B710000146202206A800F0B5FA41F22553ADF803
:10B720001830A37C8DF81A309DF8253007962246F4
:10B7300023F00A0343F00A0332F8020B8DF8253098
:10B7400006A98DF829508DF82A50FFF728FD0FB073
:10B75000F0BD00BF04C7020070B588B00D468DF87B
:10B7600007201022044601260DEB02000021ADF84F
:10B770000E6000F087FA6B89ADF810300DF1070309
:10B78000079304A90DF10E0320468DF8126006936D
:10B79000FFF75BFF08B070BD10DF704713B50446BC
:10B7A00009496846FDF73FFC019808B902B010BD91
:10B7B000D0E900212046904718B16846FDF73DFCCE
:10B7C000F2E71120F2E700BF20C7020013B50446DC
:10B7D00007496846FDF727FC019B0BB902B010BD75
:10B7E0002046D3E9002190476846FDF726FCF3E7A1
:10B7F00038C702000B4991F816335A09EC2313415C
:10B80000DB0706D5084B9A683AB94FF480030B6002
:10B81000704742F20200FCF71DBC1A6842F4800235
:10B820001A60704700E100E0042A0020F7B5194FC4
:10B830003C7864BB184E012520463570FFF7AEFFFB
:10B84000112821D02046FFF7C1FF144B8DF803408B
:10B85000186801900DF10300FCF756FE104901A88D
:10B86000FFF79AFF0446B0FA80F0400938709DF85F
:10B870000300FCF76DFE3CB90A4B34701C70FFF7F7
:10B88000B9FF2846FFF7A2FF204603B0F0BD082409
:10B89000FAE700BF6D2C00206C2C00201CC70200B2
:10B8A000718002006E2C0020014B1878704700BF99
:10B8B0006D2C002007B508496846FDF7B4FB019BD5
:10B8C00013B903B05DF804FBD3E900209047684644
:10B8D000FDF7B3FBF3E700BF2CC70200FFF7EABF99
:10B8E00060DF704769DF704761DF704730B5114B2B
:10B8F0001B7891B0E3B1104D34240DF1020103A87F
:10B90000ADF80240FFF7F0FF70B9294601A8FDF736
:10B910008AFB029B002BF0D003A8D3E900219047BB
:10B9200001A8FDF78AFBF4E7052801D0FCF792FB9C
:10B9300011B030BD6F2C00207CC9020030B5054627
:10B9400085B00C46002900F099804D4B0B600C220D
:10B95000002101A800F096F901238DF80630226835
:10B960008DF80450062301A92020ADF80830FFF718
:10B97000B9FF60B1FDF7B2FB424B43490246434871
:10B980001B1ADB081B0443F00100FCF761F80C22D2
:10B99000002101A800F076F901238DF80530226816
:10B9A000002301A94020ADF80630FFF79BFF60B1EE
:10B9B000FDF794FB334B3649024634481B1ADB082B
:10B9C0001B0443F00100FCF743F80C22002101A8FE
:10B9D00000F058F90A2322688DF8043001A90120EB
:10B9E000FFF780FF60B1FDF779FB264B294902463E
:10B9F00026481B1ADB081B0443F00100FCF728F85B
:10BA00000C22002101A800F03DF94FF4B063226838
:10BA1000019301A9A120FFF765FF60B1FDF75EFB6F
:10BA2000184B1D49024619481B1ADB081B0443F03A
:10BA30000100FCF70DF80C22002101A800F022F90A
:10BA40009DF8043022686FF3000301A9A0208DF84F
:10BA50000430FFF747FF034668B1FDF73FFB094B92
:10BA60000E49024609481B1ADB081B0443F001007B
:10BA7000FBF7EEFF0023184605B030BD0E23FAE7B2
:10BA80000023002008BE020044C70200B0BD02002F
:10BA90008AC70200D6C7020022C8020073C802008B
:10BAA00073B505460668FFF71BFF2B68B3420446D3
:10BAB0001DD91A481A4B1B491B1ADB081B0443F0FB
:10BAC00002000190FBF7C0FF2B681749019832462E
:10BAD000FBF7C7FF4FF080532A68D3F80C311349A6
:10BAE00001989B0203F100539A1AFBF7B1FF2CB99E
:10BAF0000F4B01221A70204602B070BD2046FDF7A0
:10BB0000EDFA074B0B49024604481B1ADB081B04DD
:10BB100043F00100FBF79CFFEDE700BFB0BD020062
:10BB200008BE0200C6C80200F5C8020026C902000D
:10BB30006F2C002050C902004BDF70471FB50D4C21
:10BB400001A8FFF7F9FF70B9214602A8FDF76BFACB
:10BB5000039B002BF4D00198D3E90021904702A861
:10BB6000FDF76BFAF4E7052801D0FCF773FA04B08F
:10BB700010BD00BF94C902007F2805D8034B185C94
:10BB8000034B5B5C1840704700207047ACC9020053
:10BB90002CCA0200A0F16103192B98BF203870470E
:10BBA000A0F14103192B98BF203070477F2805D89A
:10BBB000034B185C034B5B5C1840704700207047D8
:10BBC000ACC902002CCA0200A0F16103192B98BF76
:10BBD00020387047A0F14103192B98BF20307047DF
:10BBE0007F299ABF017001206FF02E0070475AB173
:10BBF0000A787F2A0AD800B10260002119605960D2
:10BC0000501A18BF01207047002070476FF02E00B7
:10BC10007047000008B5034B5B689B681B6898473A
:10BC200008BD00BF6823002008B50921FFF7F2FF17
:10BC300008BD844640EA010313F0030F18D184467F
:10BC4000202A0BD32DE9F007B1E8F807A0E8F807A0
:10BC5000A2F12002202AF7D2BDE8F007042A07D378
:10BC600051F8043B40F8043BA2F10402042AF7D245
:10BC7000002A05D011F8013B00F8013B013AF9D147
:10BC8000604670478446002A2DD010F0030F04D080
:10BC900000F8011B013A26D0F7E7C9B241EA0121B9
:10BCA00041EA0141202A12D3A2F120022DE9F0033A
:10BCB0000B460C460D460E460F4688468946A0E8C0
:10BCC000FA03203AFBD2BDE8F00320320BD0042A5D
:10BCD00005D340F8041B043A05D0042AF9D200F831
:10BCE000011B013AFBD16046704700F1010110F0E1
:10BCF000030F11D010F8012B002A23D010F0030FEE
:10BD00000AD010F8012B002A1CD010F0030F03D02A
:10BD100010F8012B002A15D02DE970004FF00132E8
:10BD20004FF0803350F8044BA4EB020525EA0405DC
:10BD30001D4000D1F6E7A0F1040070BC10F8012B03
:0CBD4000002AFBD1A0EB010070470000BE
:08BD4C00119402000000000048
:10BD540065B0020000000000A9B30200602B0020BF
:10BD6400D9AE020000000000A7B502008C2B002011
:10BD740053B60200742B002071A5020000000000DD
:08BD8400AD9402000000000074
:10BD8C00EDB80200000000003DBB02000000000006
:10BD9C00C02300208824002090240020C8230020E9
:04BDAC00180000007B
:10BDB00022C502000000000028C5020000000000AB
:10BDC0002FC502000000000033C502000000000083
:10BDD00038C502000000000086BE02000000030318
:10BDE0005CBF02000000000085BF020000000000F0
:10BDF0001CC5020000000000F7C60200000003039B
:10BE000014C70200000003036DC902000000030311
:10BE100088C9020000000303F6BF02000000000012
:08BE20000CC00200000000004C
:10BE280058BE02000000000064BE02001423002077
:10BE3800FFFFFFFFFFFFFFFFFFFFFFFFFFFFFFFF0A
:10BE480000000000000000000000D601060100000C
:10BE58000175020065750200A174020075617274B3
:10BE68005F6C6F675F6261636B656E6400426163FC
:10BE78006B656E647320666C7573686564006170C9
:10BE880070000000B02800207F000000302900204A
:10BE98001B5B306D002573001B5B313B33316D003C
:10BEA80025734C6F67732064726F70706564202807
:10BEB80025642925730D0A003C25733E2025733A15
:10BEC8002000202530327800202020007C002563C7
:10BED800001B5B313B33306D001B5B313B33326DF4
:10BEE800001B5B313B33336D001B5B313B33346DDF
:10BEF800001B5B313B33356D001B5B313B33366DCB
:10BF0800001B5B313B33376D007761726E696E677A
:10BF180000696E666F0064656275670098BE02000E
:10BF2800D9BE0200A0BE0200E1BE0200E9BE0200C6
:10BF3800F1BE0200F9BE020001BF020009BF020003
:10BF48000000000072BF020011BF020019BF02000A
:10BF58001EBF02006170705F627574746F6E0000BE
:10BF680020230020466174616C206572726F720034
:10BF780053797374656D20726573657400617070B0
:10BF88005F74696D65720000010006000000000022
:10BF98007C290020E180020052544320696E7374AA
:10BFA800616E636520616C726561647920696E6990
:10BFB8007469616C697A65642E005254433A206949
:10BFC8006E697469616C697A65642E00000000000E
:10BFD80000000000000000000338FDD87047303131
:10BFE8003233343536373839414243444546707721
:10BFF800725F6D676D74000054BD020054BD02008D
:10C0080004000000736F72746C697374004E5246BA
:10C018005F53554343455353004E52465F45525272
:10C028004F525F5356435F48414E444C45525F4D13
:10C03800495353494E47004E52465F4552524F525C
:10C048005F534F46544445564943455F4E4F545FEE
:10C05800454E41424C4544004E52465F4552524F70
:10C06800525F494E5445524E414C004E52465F4530
:10C0780052524F525F4E4F5F4D454D004E52465FF4
:10C088004552524F525F4E4F545F464F554E4400F3
:10C098004E52465F4552524F525F4E4F545F535572
:10C0A80050504F52544544004E52465F4552524FED
:10C0B800525F494E56414C49445F504152414D00F0
:10C0C8004E52465F4552524F525F494E56414C4977
:10C0D800445F5354415445004E52465F4552524FB7
:10C0E800525F494E56414C49445F4C454E4754486F
:10C0F800004E52465F4552524F525F494E56414C90
:10C1080049445F464C414753004E52465F455252A0
:10C118004F525F494E56414C49445F444154410097
:10C128004E52465F4552524F525F444154415F530D
:10C13800495A45004E52465F4552524F525F544944
:10C148004D454F5554004E52465F4552524F525F2F
:10C158004E554C4C004E52465F4552524F525F4628
:10C168004F5242494444454E004E52465F45525252
:10C178004F525F494E56414C49445F414444520036
:10C188004E52465F4552524F525F42555359004EE8
:10C1980052465F4552524F525F434F4E4E5F434F98
:10C1A800554E54004E52465F4552524F525F5245CB
:10C1B800534F5552434553004E52465F4552524FD6
:10C1C800525F4D4F44554C455F4E4F545F494E4961
:10C1D8005449414C495A4544004E52465F455252D3
:10C1E8004F525F4D555445585F494E49545F46413B
:10C1F800494C4544004E52465F4552524F525F4D9E
:10C20800555445585F4C4F434B5F4641494C454454
:10C21800004E52465F4552524F525F4D5554455855
:10C228005F554E4C4F434B5F4641494C4544004E89
:10C2380052465F4552524F525F4D555445585F43E1
:10C248004F4E445F494E49545F4641494C4544006E
:10C258004E52465F4552524F525F4D4F44554C45E2
:10C268005F414C52454144595F494E495449414CFC
:10C27800495A4544004E52465F4552524F525F5309
:10C28800544F524147455F46554C4C004E52465F0D
:10C298004552524F525F4150495F4E4F545F494D8E
:10C2A800504C454D454E544544004E52465F45520C
:10C2B800524F525F464541545552455F4E4F545F69
:10C2C800454E41424C4544004E52465F4552524FFE
:10C2D800525F494F5F50454E44494E47004E5246C3
:10C2E8005F4552524F525F4452565F5457495F451B
:10C2F80052525F4F56455252554E004E52465F4578
:10C3080052524F525F4452565F5457495F455252FA
:10C318005F414E41434B004E52465F4552524F5289
:10C328005F4452565F5457495F4552525F444E41ED
:10C33800434B004E52465F4552524F525F424C4566
:10C348005F495053505F52585F504B545F54525599
:10C358004E4341544544004E52465F4552524F5257
:10C368005F424C455F495053505F4348414E4E45EC
:10C378004C5F414C52454144595F455849535453C9
:10C38800004E52465F4552524F525F424C455F49FC
:10C398005053505F4C494E4B5F444953434F4E4EA8
:10C3A8004543544544004E52465F4552524F525FF2
:10C3B800424C455F495053505F504545525F524586
:10C3C8004A454354454400556E6B6E6F776E206541
:10C3D80072726F7220636F646500000000000000D5
:10C3E80015C002000100000021C002000200000088
:10C3F8003FC002000300000060C00200040000000B
:10C4080073C002000500000084C00200060000009E
:10C4180098C0020007000000B0C002000800000039
:10C42800C8C0020009000000E0C002000A000000C5
:10C43800F9C002000B00000011C102000C0000004E
:10C4480028C102000D0000003CC102000E000000DF
:10C458004EC102000F0000005DC102001000000084
:10C4680071C102001100000088C102001200000022
:10C4780097C1020013000000ACC102008000000058
:10C48800C0C1020081000000E1C10200820000007A
:10C49800FDC102008300000019C2020084000000F0
:10C4A80037C202008500000058C202008600000062
:10C4B8007DC202009000000094C2020091000000BA
:10C4C800B2C2020092000000D0C202000082000046
:10C4D800E5C202000182000003C3020002820000DC
:10C4E8001FC30200008400003BC302000184000057
:10C4F8005FC302000284000089C3020003840000B5
:10C50800AEC30200000000000101010000000000AD
:10C518000D0E0F10636C6F636B00434C4F434B0061
:10C528004750494F5445005052530055415254000A
:10C53800554152544500436F6E6E656374656400DF
:10C54800446973636F6E6E65637465640053656EEA
:10C558006420627574746F6E2073746174652063EF
:10C5680068616E67652E005265636569766564204B
:10C578004C4544204F4E21005265636569766564D9
:10C58800204C4544204F464621004E6F7264696333
:10C598005F426C696E6B7900426C696E6B792065DD
:10C5A80078616D706C6520737461727465642E00B7
:10C5B80073645F626C655F6761705F646174615F1B
:10C5C8006C656E6774685F7570646174652829208E
:10C5D800287265717565737429206F6E20636F6E9C
:10C5E8006E656374696F6E20307825782072657483
:10C5F80075726E65642025732E0054686520726517
:10C60800717565737465642054582F525820706191
:10C61800636B6574206C656E677468206973207439
:10C628006F6F206C6F6E672062792025752F2575D6
:10C63800206F63746574732E005468652072657189
:10C6480075657374656420636F6D62696E61746982
:10C658006F6E206F6620545820616E6420525820F7
:10C668007061636B6574206C656E677468732069AC
:10C678007320746F6F206C6F6E6720627920257548
:10C68800206D6963726F7365636F6E64732E0073D8
:10C69800645F626C655F67617474635F6578636823
:10C6A800616E67655F6D74755F72657175657374CA
:10C6B80028292072657475726E65642025732E00B2
:10C6C80073645F626C655F67617474735F657863D8
:10C6D80068616E67655F6D74755F7265706C7928E7
:10C6E800292072657475726E65642025732E006E3C
:10C6F80072665F626C655F676174740023D1BCEA1F
:10C708005F782315DEEF1212000000006E72665F7C
:10C71800736468000100000784BD020084BD020044
:10C72800080000008CBD02009CBD0200080000004B
:10C7380084BD02008CBD02000800000073645F62C3
:10C748006C655F6366675F7365742829207265741A
:10C7580075726E6564202573207768656E20617434
:10C7680074656D7074696E6720746F2073657420CA
:10C77800424C455F434F4E4E5F4346475F474150EB
:10C788002E0073645F626C655F6366675F736574D0
:10C7980028292072657475726E6564202573207768
:10C7A80068656E20617474656D7074696E67207455
:10C7B8006F2073657420424C455F4741505F434684
:10C7C800475F524F4C455F434F554E542E0073649C
:10C7D8005F626C655F6366675F73657428292072A2
:10C7E800657475726E6564202573207768656E20A0
:10C7F800617474656D7074696E6720746F207365F9
:10C808007420424C455F434F4D4D4F4E5F43464762
:10C818005F56535F555549442E0073645F626C65DB
:10C828005F6366675F736574282920726574757223
:10C838006E6564202573207768656E206174746561
:10C848006D7074696E6720746F2073657420424C34
:10C85800455F47415454535F4346475F41545452E0
:10C868005F5441425F53495A452E0073645F626CBE
:10C87800655F6366675F73657428292072657475E0
:10C88800726E6564202573207768656E2061747404
:10C89800656D7074696E6720746F207365742042CB
:10C8A8004C455F47415454535F4346475F53455295
:10C8B800564943455F4348414E4745442E00496E1B
:10C8C80073756666696369656E742052414D2061AF
:10C8D8006C6C6F636174656420666F722074686540
:10C8E80020536F66744465766963652E00436861FA
:10C8F8006E6765207468652052414D2073746172BB
:10C9080074206C6F636174696F6E2066726F6D203E
:10C918003078257820746F20307825782E004D6186
:10C9280078696D756D2052414D2073697A6520666E
:10C938006F72206170706C69636174696F6E2069D1
:10C948007320307825782E0073645F626C655F65AC
:10C958006E61626C6528292072657475726E6564F3
:10C968002025732E006E72665F7364685F626C6563
:10C978000000000054BD020084BD02000800000051
:10C988006E72665F7364685F736F63004CBD02000C
:10C9980054BD02000800000043000000504F5349F6
:10C9A800580000002020202020202020206828284F
:10C9B800282820202020202020202020202020205F
:10C9C80020202020481010101010101010101010E7
:10C9D80010101010848484848484848484841010C7
:10C9E80010101010108181818181810101010101E4
:10C9F8000101010101010101010101010101011010
:10CA080010101010108282828282820202020202B8
:10CA180002020202020202020202020202020210E0
:10CA280010101020000703200417020108571040B7
:10CA380080000000A0C90200A4CA0200B8CB02000E
:10CA480053756E004D6F6E00547565005765640030
:10CA58005468750046726900536174000000000054
:10CA68004A616E00466562004D6172004170720055
:10CA78004D6179004A756E004A756C004175670012
:10CA8800536570004F6374004E6F76004465630011
:10CA980000000000414D00504D000000DCCB0200BA
:10CAA800D8CB0200D8CB0200D8CB0200D8CB0200EA
:10CAB800D8CB0200D8CB0200D8CB0200D8CB0200DA
:10CAC800D8CB0200FFFFFFFFFFFFFFFFFFFFFFFFC5
