:020000022000DC
:10700000000004205D730200457302004773020014
:10701000497302004B7302004D7302000000000030
:107020000000000000000000000000004F7302009C
:1070300051730200000000005373020055730200F8
:107040003D97020057730200D99B0200577302005C
:107050005773020057730200599A020057730200D7
:1070600057730200577302005773020057730200F0
:1070700057730200577302005773020057730200E0
:1070800057730200458702005773020057730200CE
:107090005773020057730200D9BF020057730200F2
:1070A00057730200577302005773020057730200B0
:1070B0005773020057730200000000000000000038
:1070C0005773020057730200577302005773020090
:1070D0005773020057730200577302005773020080
:1070E000577302005773020057730200000000003C
:1070F00000000000577302000000000057730200F8
:10710000000000000000000000000000000000007F
:10711000000000000000000000000000000000006F
:10712000000000000000000000000000000000005F
:10713000000000000000000000000000000000004F
:10714000000000000000000000000000000000003F
:10715000000000000000000000000000000000002F
:10716000000000000000000000000000000000001F
:10717000000000000000000000000000000000000F
:1071800000000000000000000000000000000000FF
:1071900000000000000000000000000000000000EF
:1071A00000000000000000000000000000000000DF
:1071B00000000000000000000000000000000000CF
:1071C00000000000000000000000000000000000BF
:1071D00000000000000000000000000000000000AF
:1071E000000000000000000000000000000000009F
:1071F000000000000000000000000000000000008F
:10720000314932480A1A02D0072291438D4630494B
:1072100030480A1A06D00722914381F309880222D6
:1072200082F314882C482D492D4A00F03CF82D4853
:107230002D492E4A00F037F82D482E492E4A00F0ED
:1072400032F82E482E492F4A00F02DF82E482F49AB
:107250002F4A00F028F82F482F49304A00F023F831
:107260002F483049304A00F01EF83048304900229B
:1072700000F024F82F483049002200F01FF82F4A70
:1072800090471F481F49884205D00268043003B464
:10729000904703BCF7E700208646EC46002000211B
:1072A000274A9047FEE7884207D0521A05D0037854
:1072B00001300B700131013AF9D17047884202D098
:1072C00002700130FAE770470000042000E003205C
:1072D000000004200000042004D60200C81D002085
:1072E00018240020B8730200B8730200FCC4020026
:1072F00004D60200C81D0020C81D002040C60200A0
:1073000040C6020040C6020040C6020040C602005D
:1073100040C6020040C6020040C6020004D6020079
:1073200054DC020018240020182400201824002017
:107330009C2E00209C2E00209C2E00208573020095
:10734000BDA80200FEE7FEE7FEE7FEE7FEE7FEE778
:10735000FEE7FEE7FEE7FEE700F002B8FFF7FCBF3E
:107360000F484FF00701884385460E4880470E4876
:10737000016841F470010160BFF34F8FBFF36F8F5D
:10738000FFF73EBF09480A490A4A884207D0521A05
:1073900005D0037801300B700131013AF9D1704703
:1073A000000004201192020088ED00E040C60200B7
:0873B000C81D0020C81D0020CB
:1073B800F0B595B01D46164608460C4601F070FD1E
:1073C8001A9B0D93CDE9086500252B46082205A9CF
:1073D80020460A958DF82C500C9501F07EFD079BF0
:1073E8000293069B03939DF814308DF8115003F017
:1073F8000302012A1DD1BDF81420059DC3F3C20361
:10740800C2F383168DF81030B20008230EA9204667
:1074180001F063FDC5F3952508AB0093324602AB36
:107428000EA9284600F0BAFB204601F03DFD15B034
:10743800F0BD022AF8D1BDF81650C3F3C203C5F354
:1074480089158DF810300827082D2E4628BF0826E4
:107458003B4632460EA9204601F03FFDAD1B08AB66
:1074680002AA31460EA8374400F0FCFB002DEBD1F0
:10747800DAE70000014B01221A70704759240020F6
:107488007047000070B5124D06460FCD88B06C46A7
:107498000FC495E80F00002E84E80F004FF0FF336B
:1074A8004FF00602CDE90023CDE90233094A0A4824
:1074B8004FF0EB7308BF00226946069302F0C0F84C
:1074C80008B100F097FD054B1E7008B070BD00BFF5
:1074D80040C602007D740200C81D00201824002048
:1074E80007B5044B0093044A4023FFF761FF03B03C
:1074F8005DF804FB057502001924002038B50D4B12
:107508000D4D002018700D4804782D5DD2B21C4630
:1075180065B1043003F006F808B100F06BFD084BC4
:107528001A7812B12378002BFBD038BD0C3002F04A
:107538009DFDF1E759240020F02A0020C81D0020F5
:107548001824002008B50848084A0378D35C3BB1E2
:10755800043002F063FFBDE808400020FFF792BF47
:107568000C3002F027FDF6E7C81D0020F02A0020A5
:107578000120FFF787BF000008B5FFF7F9FF0448AF
:10758800042100F075FA034B01225A7108BD00BFAF
:1075980030C60200DC1D0020037813F0040216D068
:1075A80003F00303012B03D0022B09D001207047FD
:1075B8000A6800880232C0F3831002440A60F5E7C3
:1075C8000B684288023303EB92130B60EEE7104618
:1075D800704700002DE9F04F87B000230446861C51
:1075E8000DF107000F4615468DF8073000F038FFFB
:1075F800404A51683960936803F580735B1A924674
:1076080002F21C4702F5836902F21448B3421AD306
:107618000020002D69D004F00F039B0143F00503FF
:1076280063F30F00DAF80430DAB203321E444AF882
:1076380022009DF80700CAF8046000F035FF012019
:1076480007B0BDE8F08F0121384601F054F94846EB
:1076580001F069F9404601F066F9DAF8080002908D
:10766800C0B203300AEB800002A9FFF795FF029B26
:1076780030BBDAB20AEB8202D16803919A1C01335B
:10768800DBB20AEB83030292D3F80CB001F00303D8
:10769800012B22D0022B15D08346404601F046F933
:1076A80010B1029BCAF808305946384601F023F950
:1076B800DAF80830DAF8042003F580739B1AA5E796
:1076C800D8B2CEE7BDF80E30C3F3891303334FEABF
:1076D8001B4B02EB93030293DFE7BDF80C30C3F3B7
:1076E80083134FEA1B4B1344F5E7A40544F0060047
:1076F80098E700BF2C250020064B074810B500224C
:107708001A7001F086FB044610B9044801F0E8FC41
:10771800204610BD2C250020DCC5020094C60200BE
:1077280030B50A4C71B10A4A0A49121BD208002323
:107738009A4201D1002030BD31F82350854202D051
:107748000133F5E7034654F83300F4E744C5020073
:10775800DCC50200C81D0020094B013903EBC0003D
:10776800032909D8DFE801F00A020406042070475B
:1077780000797047407970470020704702207047B1
:1077880044C5020070470000034BD3E90130C31A17
:1077980058425841704700BF2C2500202DE9F04180
:1077A80086B0FFF7F1FF0546002840F0E680744CEC
:1077B800C4F81804BFF34F8FA3680293DBB20333F6
:1077C80004EB830002A9FFF7E7FE029B18B1D4F887
:1077D8001824002A55D0DAB2991C013304EB82022E
:1077E800DBB204EB8303D268DB68049302F0030383
:1077F800022B039202914FD1BDF80E306148C3F3BA
:107808008917502F3E4628BF502666F38F1306F17E
:107818000801ADF80E3001F014FB0546002800F011
:10782800978001F03DFB002303A90822284601F0B8
:107838004AFB0299CB43DBB20133C9B20331B6EB41
:10784800830F4FEA830804EB810122D908234246BB
:10785800A6EB0806284601F036FBF6B24A4908F1BD
:1078680008033246284601F02EFB029B033703EB40
:1078780097070297D4F81834002B41D1D4F8106434
:1078880051E062689A4299D8A260284606B0BDE8DD
:10789800F08108233246E5E7012B59D1BDF80C30B9
:1078A8003848C3F38311062928BF062161F38913D9
:1078B80002318900ADF80C3001F0C3FA0546002802
:1078C80046D001F0EDFA0023082203A9284601F06A
:1078D800FAFA0026BDF80C20C2F38312B3009642D0
:1078E80003F10803C6D202994A1CC9B203310292B5
:1078F80004EB81010422284601F0E5FA0136E9E7A4
:10790800284601F0D1FAFFF73FFF80F00100C5B229
:10791800BBE7F3685B7923B1336829461B683046B7
:107928009847F3681E68002EF3D1284601F0BCFA88
:107938000DF107008DF8076000F092FDD4F81834B7
:107948000BB9029BA3609DF8070000F0ADFDDAE7D4
:10795800D4F8104454B90D4B0D480E49C01AC0084C
:10796800000440F0020000F05FF8CCE723682046EE
:107978009B689847E3681C68ECE7002585E700BF2B
:107988002C250020DCC502003825002044C5020053
:107998006CC502007DC602002DE9F34704460E4679
:1079A800924601A9012218469946FFF713FE1C4F7B
:1079B80010B3019D4FF00008AA1CC84508EB02014E
:1079C80025D11848002100F067FF80F3100000045B
:1079D80040EA1440E4006B1C04F03804DBB2EDB25A
:1079E80044F0010407EB8303033544EA881444EAAE
:1079F8008624D86047F825403B781BB1FFF7CEFEB8
:107A08000028FBD1FFF7BEFE02B0BDE8F087C9B27F
:107A180007EB81015AF82830CB6008F10108CCE760
:107A28002C2500204829002000231A46FFF7B4BF60
:107A380007B50123019201AAFFF7AEFF03B05DF875
:107A480004FB07B5CDE9002302236A46FFF7A4FF2C
:107A580003B05DF804FB1FB5CDE90123069B039332
:107A680001AA0323FFF798FF05B05DF804FB0000A7
:107A780030B50F49D1F8102403460020144634B914
:107A8800DC6820714AB9C1F81034226030BDE4685E
:107A98002579854206D02468F1E7D268116821600B
:107AA8001360F3E701300A28E8D14FF0FF30EDE723
:107AB8002C250020084A38B50123D2F81044137049
:107AC8001D4604B938BDE3685D71236820465B68CC
:107AD8009847E3681C68F4E72C25002007B503469F
:107AE8000846197A052911D05B7A2BB1094A0A4947
:107AF800019000F07EFF01980849019000F079FF9D
:107B0800019803B05DF804EB00F068BF002AF8D0D4
:107B1800F2E700BFA0C60200A5C60200C5C6020063
:107B280030B5C38885B004460D4633B1144A009277
:107B38001449154A284600F05CFF217A05291DD012
:107B4800637A4BB1A088FFF707FE104B104953F832
:107B58002020284600F04DFF227A0E4BA08853F8CB
:107B6800222003920021FFF7DBFD039A0A4903460E
:107B7800284605B0BDE8304000F03BBF05B030BD39
:107B8800A0C60200B0C60200A8C602002CC70200A8
:107B9800A5C6020050C70200C8C602002DE9F0437E
:107BA80085B01F460C9D002395F80C902B73064654
:107BB8000C46904629463846FFF7B2FFB8F1060F43
:107BC80009D8DFE808F00412181F283340003146AE
:107BD800284600F00EFF002229463846FFF77EFFB0
:107BE80085F80C9005B0BDE8F08322683146284638
:107BF80000F0FFFEEFE7D4E900233146284600F005
:107C0800F8FEE8E7A36800933146D4E90023284644
:107C180000F0EFFEDFE7E3680193A36800933146C5
:107C2800D4E90023284600F0E4FED4E72369029350
:107C3800E3680193A36800933146D4E900232846FA
:107C480000F0D7FEC7E76369039323690293E368EB
:107C58000193A36800933146D4E90023284600F035
:107C6800C8FEB8E708292DE9F74F80460E461746A3
:107C78001C463CD8002593F80C901D7319461046F5
:107C8800FFF74EFFDFF888A0DFF888B0AE4231D9A1
:107C980018F805205946204600F0ABFE0135082D9E
:107CA800F4D11949194DDFF870A0204600F0A1FE63
:107CB8004FF0000B5E4522D918F80B207E2A05D814
:107CC8001046019204F02AFB019A00B92E2251466F
:107CD800204600F08EFE0BF1010BBBF1080FE9D135
:107CE800012221463846FFF7F9FE84F80C9003B0CC
:107CF800BDE8F08F5146204600F07BFECEE72946CE
:107D0800204600F076FEE6E7DCC60200DAC602008E
:107D1800D8C60200D2C60200DEC60200C30710B5EC
:107D280007D4F023054A4008145C23401943115432
:107D380010BD0901C9B20F23F4E700BFF8290020DC
:107D480030B5094B1C78094B196800239C4202DCAA
:107D58000022104630BD11F83350854201EBC302B2
:107D6800F7D00133F2E700BFE4290020182A0020E9
:107D780013B504460191FFF7E3FF38B143682BB10F
:107D88000199204602B0BDE81040184702B010BD66
:107D9800034B044819680022490800F051BA00BF93
:107DA800E8290020E81D002010B5C0B2FFF7C8FF81
:107DB8000446007801F03EFE63785A1E5342534150
:107DC800834208D1044BD3E90023134303D1BDE810
:107DD8001040FFF7DDBF10BDF029002037B543087C
:107DE800354AD35CC2074CBF1B0903F00F03044696
:107DF8000D46042B35D8DFE803F003252C383C006A
:107E080079B30121FFF78AFF00230DF107008DF8F0
:107E1800073000F025FB0120A4F12003C4F1200164
:107E2800264A20FA01F100FA03F30B43A040D2E9F5
:107E3800004120430B43C2E900039DF8070000F00E
:107E480033FB0EE0002918BF02212046FFF766FF2A
:107E580007E041B10321FFF761FF01212046FFF749
:107E680087FF03B030BD0121EFE70029F9D10421D4
:107E7800EBE709B10321E8E7FFF750FF2946204661
:107E8800FFF776FF0DF107008DF8075000F0E8FACC
:107E98000120A4F12003C4F12001084A20FA01F1CD
:107EA80000FA03F30B43A040D2E9004124EA0000A2
:107EB80021EA0303BFE700BFF8290020F0290020CA
:107EC8002DE9F041124E134F00243378A34208DC09
:107ED800114BD3E90023134318D0BDE8F041FFF755
:107EE80057BF3D6805EBC40815F8340001F0A2FD42
:107EF80098F801305A1E53425341181A41424141E1
:107F080015F83400FFF76AFF0134DEE7BDE8F081B9
:107F1800E4290020182A0020F0290020092AF7B5B2
:107F280005460C4616463CD901F0B4FCD8B11E4BA8
:107F38001E481D601E4B1F4F1C701F4B0021202226
:107F48001E6004F04CFA1D4B00200021C3E900011B
:107F5800013CE4B20326FF2C0BD1194A1948002131
:107F680000F05CF903E001F04FFC0028DFD003B01B
:107F7800F0BD9DF8063015F834008DF8046005EB67
:107F8800C40223F007038DF8063001A993788DF811
:107F980005303A4601F088FC013CE4B20028DAD00A
:107FA800E5E70720E3E700BF182A0020F8290020AA
:107FB800E4290020B17D0200E8290020F0290020F2
:107FC800C97E020070C7020070B5084D084E002433
:107FD8002B789C4201D3002070BD3368012113F82F
:107FE800340001F0DDFC0134F2E700BFE429002091
:107FF800182A00201FB50021039001AA44F20100AD
:10800800CDE9011100F004F805B05DF804FB0000AB
:1080180010B572B6FFF74EFDFFF7C0FB0028FBD185
:10802800104B114C1149E41AE408240444F00100EF
:10803800FFF7FAFC0E4B1B68DB0700D500BE0D49A5
:1080480044F00200FFF7F0FCBFF34F8F0A490B4BD7
:10805800CA6802F4E0621343CB60BFF34F8F00BFDE
:10806800FDE700BF44C502006CC5020074C70200EA
:10807800F0ED00E080C7020000ED00E00400FA0522
:10808800D0E90223D1E90201994208BF90422CBFEE
:10809800012000207047000008B50B4800F037FBAE
:1080A8000A4B0B49D3E900231218D1E9000143F127
:1080B80000038B4208BF824203D212F1807243F15F
:1080C80000031046194608BD081E0020202A00207B
:1080D800982A002037B505460C460A4801A900F041
:1080E8004AFB60B10570446001A9064800F06DFBC9
:1080F80018B1054800F010FB002003B030BD042083
:10810800FBE700BF842A0020081E0020284B73B517
:108118001E7804461EB90026304602B070BD0028FD
:10812800F9D0FFF7B9FFD4E90223994208BF90427A
:1081380038D300230DF107008DF8073000F090F9CF
:1081480023692BB94FF0FF324FF0FF33C4E9022304
:108158009DF8070000F0A8F9D4E9053098470025F4
:108168000DF107008DF8075000F07AF92169B9B1CF
:10817800D4E90223581C08BFB2F1FF3F05D05218BA
:1081880043F10003C4E9022335469DF8070000F0D7
:108198008BF9002DBFD00748214600F0C0FFBBE790
:1081A8000D46F2E7013308BFB2F1FF3FB3D0F2E763
:1081B800282A00209CC7020013B5114B11491868E2
:1081C800019008231048582200F0C2FA044698B9D2
:1081D8000E4A0F4801A900F08BF9044660B90C4813
:1081E800012100F077FA01230A4A0948194600F0EC
:1081F800D9F9094B01221A70204602B010BD00BF00
:1082080098C702002C2A0020842A0020AD82020090
:10821800081E0020FFFF7F00282A002030B56AB121
:1082280003684FF0FF344FF0FF355A614A1E514240
:10823800C3E9024551411961002030BD0720FCE720
:10824800F7B5054600240DF1070017460E468DF8D0
:10825800074000F005F9D5E90223013308BFB2F160
:10826800FF3F07D1FFF718FF801941F10001C5E969
:10827800020101249DF8070000F016F94CB12B69A2
:10828800AF6103B12E6129460020FFF723FF03B039
:10829800F0BD2046FBE70000014800F038BA00BFF7
:1082A800081E00202DE9F74F804600F01BFA40B168
:1082B800634AD2E9003113F1807341F10001C2E948
:1082C80000310021404600F01CFA38B15D4E336899
:1082D80023B13068FFF71AFF0023336001214046BD
:1082E80000F00FFA20B1FFF7D7FE574BC3E90001A2
:1082F8005648DFF8509101A900F077FA4FF0FF36A1
:108308004FF0FF3798B9DFF848A14E4F504600F0BC
:108318001CFF002800F08780D0E90223591C08BF01
:10832800B2F1FF3F34D1504600F009FFEEE7037881
:10833800012B20D0022B09D1DFF814A1504600F000
:10834800FEFE002877D0C0E90267F7E753B9416815
:10835800D1E90223013308BFB2F1FF3F02D03C4804
:1083680000F0DDFE01A9394800F06AFA01A9374892
:1083780000F03BFAC6E74168D9F80030994203D1CA
:108388000023C9F80030EDE7314800F0E1FEE9E7E5
:10839800396891B13968D1E902018B4208BF82423C
:1083A8002FD23B68D3E90223013308BFB2F1FF3F64
:1083B80003D03968504600F0B2FE504600F0BFFEC8
:1083C800D0E9026B8146FFF767FE341A6BEB0105B3
:1083D800012C75F1000319DBB4F5350F14D3FFF741
:1083E8005BFF1C4A02441C484FF49603002100F02E
:1083F800F9F898B93B6813B9404600F0CBF8C7F8CC
:10840800009003B0BDE8F08F3246ECE71248002137
:1084180000F06DF94846FFF779FE01E00D28F9D024
:1084280000233B6072E7074B1B68002BE9D14046ED
:1084380000F0B4F8E5E7094B01221A7092E700BF93
:10844800202A0020A02A0020982A0020842A002020
:108458009CC70200FFFFB400081E0020282A002045
:1084680070B5EFF3108672B60C4A946801239CB974
:1084780093600B4B0B4DD3F8801029401160C3F863
:108488008050D3F8841051604FF0FF32C3F8842035
:10849800047006B962B670BD0370FAE7A42A00201A
:1084A80000E100E0FC06FFBD084B9A6810B55AB120
:1084B80050B9EFF3108172B6054A1C6814605C6805
:1084C8005460986001B962B610BD00BFA42A0020AC
:1084D80000E100E0435882B03BB1002343504358C9
:1084E8000193019B012002B070471846FBE700008A
:1084F800F8B5204B4479204D43F824201F4A204BDF
:1085080005EBC4049B1A2279DB081B0432B143F043
:1085180002001C49FFF788FA0820F8BD02680C8899
:10852800C2F8084590F904608A7804795201002E4F
:10853800D2B219DB14498F1987F800230122760972
:1085480004F01F0402FA04F441F82640427905EBCE
:10855800C201012445F832000C7143F003000B49B5
:10856800FFF762FA0020D8E7094904F00F040A551A
:10857800ECE700BFB82A0020B02A002044C502005A
:108588007CC50200A8C7020000E100E0CAC70200DB
:1085980014ED00E0036801221A60704703680122A5
:1085A8005A60704773B501F15005AD000068ADB26F
:1085B8004FF480348C400026C0F80843C0F8484384
:1085C800465101F5A8714559019522F07F42019D58
:1085D80040F82120C0F844430BB1C0F8044302B06E
:1085E80070BD00002DE9F74F0D4622F07F44026868
:1085F8004FF4803705F150068F408046B60002EBF5
:108608008500C2F84873B6B2C2F80873D2F80415E8
:1086180099464FF0000BD0F84035C0F8401542F8A5
:1086280006B05B1A9259009223F07F43012B009AFF
:108638004FEA850A0CD1264B4FF4806043F00103C2
:108648009847D8F8003043F806B09B590193019B2E
:10865800D8F80010D1F80465C1F84473A31B23F0BF
:108668007F43012B1CD11A4B05F5A875013443F043
:10867800010341F825404FF480609847D8F800304E
:10868800D3F804359E4209D1D8F800300020C3F849
:108698004473C3F8047303B0BDE8F08F0D20FAE704
:1086A8008A44C9F1FF13CAF84045D1F80405221AD3
:1086B800013A22F07F4203F57F439342EED3002A2A
:1086C800E2D10134CAF84045D1F804359842DAE7D6
:1086D800E0C7020003680222C3F8442309B1C3F8C3
:1086E8000423704700684FF48271FFF7F3BE4FF41C
:1086F800803303FA01F10368C3F84813C3F8081379
:10870800704750318900006889B2FFF7E3BE0368FB
:10871800D3F804057047000090F90430002B09DBFA
:108728005A09012103F01F0301FA03F340320249F9
:1087380041F82230704700BF00E100E0024B034AD5
:108748001B681068184700BFB82A0020B02A00200C
:1087580010B561B1B2FBF3F403FB1424A4B244B91D
:10876800C0E9001484608281C381204610BD0E20B8
:10877800FCE70920FAE737B550E8013F9DB2C48904
:1087880025448489A54228BF2D1B0489A54202BF20
:10879800BFF32F8F002207E0C5EA030540E8015424
:1087A800002CE9D14FF001028DF803200193019BC1
:1087B8009DF803200B6002F0FF0322B10B880068CC
:1087C800184403B030BD1846FBE70A884B889A4224
:1087D80009D150E8012FC2EA024240E80123002BE8
:1087E800F7D1012070470020704737B550E8023FA5
:1087F8001FFAA3F5C488A54202BFBFF32F8F00223A
:108808000DE0C48925448489A54228BF2D1BC3EAED
:10881800054540E80254002CE8D14FF001028DF8DC
:1088280003200193019B9DF803200B6002F0FF03D6
:1088380022B14B880068184403B030BD1846FBE7E6
:108848000A884B889A4209D150E8022FC2EA22428C
:1088580040E80223002BF7D1012070470020704721
:1088680001F01F024B090121914000EB830000F049
:108878001EB801F01F0301229A404B0900EB830048
:10888800D14300F02CB84B0901F01F0150F8230028
:10889800C84000F00100704710B5034653E8000FC8
:1088A8000A4643E8002494F0000FF7D110BD10B534
:1088B800034653E8002F42EA010043E8000494F01D
:1088C800000FF6D110BD10B5034653E8000F00EABB
:1088D800010243E8002494F0000FF6D110BD10B552
:1088E800034653E8002F02EA010043E8000494F02D
:1088F800000FF6D110BD10B5034653E8002F02EB68
:10890800010043E8000494F0000FF6D110BD10B543
:10891800034653E8002FA2EB010043E8000494F05B
:10892800000FF6D110BD0121FFF7C1BF0021FFF7ED
:10893800CABF10B590B1D0E9012301689B1ADBB218
:108948000A60013BDBB2FF2B026802D100201071E4
:1089580010BD11684C1C14600B70F2E70E20F7E78D
:1089680037B5054600240DF107008DF80740FFF7DD
:1089780077FD2A686B68116899420ED9481E106005
:1089880011F8014CEB68298A01FB0434AB681179B2
:108998001B1ADBB2994238BF13719DF80700FFF725
:1089A80083FD204603B030BD37B5054600230DF1E1
:1089B80007000C468DF80730FFF752FD2A68136848
:1089C800591C1160E968641A298AB4FBF1F41C7017
:1089D8009DF80700FFF768FD03B030BD826810B549
:1089E80004462AB143690168006998470023A360D7
:1089F80010BD0EB403B5039921B104AB01AA0193CC
:108A080000F076F802B05DF804EB03B070470A296D
:108A180038B504460D4602D10D21FFF7F8FFA368CB
:108A28002268591CA160D554D4E901329A4204D372
:108A38002046BDE83840FFF7D1BF38BD2DE9F84FD3
:108A48009846DDE90A43154682460F460A464FF026
:108A58000109AA420FD2C14538BFC14613F0010B24
:108A680001D16CB900240126B8F1010F1BD908F116
:108A7800FF386E43F8E709F10109B2FBF5F2E8E7C0
:108A88009B070ED5B8F1000F0CBF30262026A14554
:108A9800E9D2013C31465046FFF7B9FF002CF6D128
:108AA800E0E72026F3E7B7FBF6F39D42E1D9DFF8CC
:108AB8003C80B7FBF6F3504618F8031006FB137713
:108AC800FFF7A5FF3346AB42B6FBF5F6F1D2BBF193
:108AD800000F02D00CB1A14501D3BDE8F88F2021C9
:108AE8005046013CFFF793FFF4E700BFE6C70200DA
:108AF8002DE9F74F054617468846002900F04281C0
:108B080018F8011B49B92B7B002B00F03B81284644
:108B180003B0BDE8F04FFFF761BF252940F0B780EB
:108B2800002698F800302D2B424608F1010823D082
:108B3800302B24D02B2B25D000242A2B02F1010125
:108B480023D13B681A1D1B683A601C440A461378F7
:108B58002E2B26D101324FF0000A104610F8011BC7
:108B6800A1F1300CBCF1090F1DD80A2303FB0A132D
:108B7800A3F1300A0246F0E746F00106D1E746F0D5
:108B88000206CEE746F00406CBE711F8013CA3F154
:108B980030000928DBD80A2202FB0434303C0A469C
:108BA800CBE74FF0000A12F8011B01F0FB00682820
:108BB8009046F8D0782909D86F290CD8632962D053
:108BC80022D8252963D0582900F0888098F80030E9
:108BD800002B95D197E770390829F7D801A353F8E6
:108BE80021F000BF678D0200D58B0200D58B0200F3
:108BF800F58C0200D58B0200D38C0200D58B0200C5
:108C0800D58B0200E58C0200642901D06929DDD1E9
:108C18003A68D2F80090111D89EAE9723960A2EB2E
:108C2800E9724FF0010B092A35DCD34538BFD3462A
:108C38002CB1B9F1000F01DB720700D5013CB30775
:108C480002D5BAF1000F03D0F00701D44CBB0024C1
:108C5800B9F1000F2DDAC9F100092D212846FFF7D7
:108C6800D6FE06F00302022A04D1BAF1000F01D1A0
:108C78001CBB0024CDE9004653460A224946284633
:108C8800FFF7DCFEA2E73B681A1D19783A60284610
:108C9800FFF7BDFE9AE70A230BF1010BB2FBF3F2D3
:108CA800C1E7A345D4D220212846013CFFF7AFFEF7
:108CB800CCE77107D5D52B21D0E7A345DAD23021EF
:108CC8002846013CFFF7A3FED2E73968CDE9004604
:108CD8000A1D3A6053460A220968D0E739680A1D16
:108CE8003A60CDE9004653461022F5E73B681A1D65
:108CF8003A6016F00106D3F8009028D1B9F1000FB8
:108D080003D0484603F0C5FB0646B44200D904BB6D
:108D180009F1FF3919F8011F00293FF457AF284618
:108D2800FFF775FEF6E728460136FFF770FE19F8DB
:108D380006100029F7D1A642BFF448AF002C3FF433
:108D480045AF20212846013CFFF761FEF3E70026E6
:108D5800EDE720212846013CFFF759FED5E73B689F
:108D68001A1D3A60302128461C68FFF750FE78210A
:108D78002846FFF74CFE00220823CDE900322146A1
:108D880010227CE703B0BDE8F08F00BF2DE9F84F53
:108D9800B0F806A04579D2F800B09DF828900AFBF3
:108DA80005F5043D88460BEB0301A94203F10404D1
:108DB80088BFA5EB030BB4FBFAF607460AFB16447B
:108DC800C2F800B04EB9AAEB04055D4528BF5D4660
:108DD800BBF1000F04D1BDE8F88F3F68013EF1E711
:108DE800043408EB06003C442A46B9F1000F0DD0C4
:108DF8002146ABEB050B03F0C9FADA452E443F6870
:108E080055464FF0000428BF5D46E1E7014620467D
:108E1800EFE7FFF78EBDF8B546790146721E0546A5
:108E2800002393422D6803D30024A64202D8F8BD3C
:108E38000133F6E70F682846FFF7B6FD01343946D7
:108E4800F3E72DE9F843068ACD1C0746FFF788FDAE
:108E5800043E35440446B5FBF6F5F0B14FF4807393
:108E6800EDB28380C680013D076081464FF000085F
:108E7800A84512D23846FFF773FD064648B1637914
:108E88000133637108F10108C9F8000007608146E1
:108E9800EEE72046FFF7BFFF34462046BDE8F883DB
:108EA80001210430FFF727BD10B501210446043025
:108EB800FFF72DFD10F0FF0F04D12046BDE810404C
:108EC800FFF7A9BF10BD1FB503920022009203AAA5
:108ED800FFF75CFF05B05DF804FB1FB503920122A4
:108EE800009203AAFFF752FF05B05DF804FB41DFCB
:108EF80070470000064B10B500241C70054B1C6021
:108F0800BFF35F8F0449054800F0F3F8204610BD11
:108F1800C42A0020C82A002000C80200BC2A002059
:108F280007B500230DF107008DF80730FFF798FA11
:108F3800F1EE103A23F09F03E1EE103ABFF35F8F92
:108F4800094B4022C3F884219DF80700FFF7ACFACB
:108F580003F024F820B1FFF7CAFF03B05DF804FB63
:108F680020BF40BF20BFF8E700E100E002681368B7
:108F78005268934291BFD01A80680130801888BF28
:108F8800C01A7047036881681A685B688B4234BFEF
:108F980001330023D31A584258417047F7B50023CC
:108FA80004460DF107000D468DF80730FFF758FA13
:108FB8002046FFF7E7FF10B1237C002B3CD1226845
:108FC800A66853685168B14234BF0131002151602D
:108FD80030B11168A068814234BF013100211160AD
:108FE800E2686068511E072920D8DFE801F0041004
:108FF8001F141F1F1F182A78C2542046FFF7B6FFF8
:1090080023689A68824200D29860002415E02A8872
:1090180020F81320F1E72A6840F82320EDE7D5E986
:10902800006700EBC300C0E90067E6E7294602FBDA
:10903800030003F0ABF9E0E704249DF80700FFF70D
:1090480033FA204603B0F0BD036818685B68C31A9A
:1090580058425841704773B5002305460DF1070083
:109068000C4616468DF80730FFF7FAF92846FFF741
:10907800EBFF002832D129680B682EB90A68A86866
:10908800824238BF561C0E60EA686968501E07287D
:109098001ED8DFE800F0040E1D121D1D1D16CB5C46
:1090A800237000249DF80700FFF7FEF9204602B060
:1090B80070BD31F813302380F3E751F82330236073
:1090C800EFE701EBC301D1E90023C4E90023E8E796
:1090D80003FB0211204603F059F9E2E70524E1E712
:1090E800836800225A60C3E904229A60DA601A6031
:1090F80070470B684A684360934208BF00230160C9
:1091080008BF43607047436843B10268916852687A
:109118000B449342436004BF00234360704770B51B
:10912800446806460D46206818B1B3682946984732
:1091380018B923682B60256070BD2468F3E743687D
:10914800186808B102681A60704743681868704761
:109158004368186800B97047884203D102681A60EA
:109168000120704703460068F4E7000010B50D4978
:10917800A1F59472914201D800200FE08C1AE30FF8
:1091880003EBE4035B1002EBC30452F83330834271
:1091980005D802D204F10802ECE7606810BD214648
:1091A800E8E700BF0CCD020008B5FFF7DFFF024B70
:1091B800002808BF184608BDCFCB0200034B18682B
:1091C800A0F1080358425841704700BF3001001011
:1091D800064B1B68082B06D1054B1B68052B02D8CC
:1091E800044AD05C70470020704700BF300100106F
:1091F8003401001012CD0200024AD2F80034002BCC
:10920800FBD0704700E0014010B5FFF7D7FF40B131
:109218004FF080430022C3F80C21C3F81021C3F893
:109228003825FFF7CBFF002846D04FF08052614B1E
:10923800D2F80414C3F82015D2F80814C3F824157A
:10924800D2F80C14C3F82815D2F81014C3F82C154A
:10925800D2F81414C3F83015D2F81814C3F834151A
:10926800D2F81C14C3F84015D2F82014C3F84415DA
:10927800D2F82414C3F84815D2F82814C3F84C15AA
:10928800D2F82C14C3F85015D2F83014C3F854157A
:10929800D2F83414C3F86015D2F83814C3F864153A
:1092A800D2F83C14C3F86815D2F84014C3F86C150A
:1092B800D2F84424C3F87025FFF78AFF10B13E4B5B
:1092C8003E4A1A60FFF784FF18B13D4BFB22C3F8F2
:1092D8001825FFF77DFF48B13A493B4B0A681B68E0
:1092E80022F00F0203F00F0313430B60FFF770FF28
:1092F80018B1364B4FF400721A60FFF75FFF48B1A0
:109308004FF08043D3F80024D20744BF6FF0010226
:10931800C3F800242E4AD2F8883043F47003C2F808
:109328008830BFF34F8FBFF36F8F2A4B1B68082B12
:109338000ED1294B1B68052B02D8284AD35C3BB1B8
:109348004FF01023D3F808224FF08043C3F8582574
:109358004FF01023D3F80022002A03DBD3F804329D
:10936800002B22DA1E490123C1F80435FFF744FF18
:109378004FF010201224C0F80042FFF73DFFC0F85C
:109388000442FFF739FF0023C1F80435FFF734FF23
:10939800BFF34F8F0E49134BCA6802F4E0621343C0
:1093A800CB60BFF34F8F00BFFDE70F4B0F4A1A602A
:1093B80010BD00BF00C000408C560040488103002B
:1093C80000F00040E40E00405802001040960240B1
:1093D80000ED00E030010010340100100CCD020057
:1093E80000E001400400FA05101E00200090D003A0
:1093F800074B1B5C1F2B86BF064903F01F034FF06A
:10940800A041012202FA03F3C1F80C35704700BFEE
:1094180018CD020000030050074B1B5C1F2B86BFB2
:10942800064903F01F034FF0A041012202FA03F39B
:10943800C1F80835704700BF18CD0200000300507E
:1094480008B50020FFF7E8FF0120FFF7E5FF02203D
:10945800FFF7E2FFBDE808400320FFF7DDBFC207C2
:1094680010B504460CD54FF0A0430322C3F83427A7
:10947800C3F83827C3F83C27C3F84027FFF7E0FFB5
:10948800A3070AD54FF0A0430C22C3F82C27C3F832
:109498003027C3F86027C3F8642710BD38B5074CD8
:1094A800051E04F1080318BF1C4623682BB11A686F
:1094B80022605B6828469847F7E738BDD42A002021
:1094C80020B9054B01225A70FFF7E8BF012802D1E5
:1094D800014A9070F8E77047CC2A002020B9034B66
:1094E80001225A70FFF7DABF704700BFCC2A00206C
:1094F80038B50E4C2378B3B90D486360A360236177
:10950800E36000F0E5F8054602F048FD08B900F010
:10951800EBF801232370074BD3F800340BB1012378
:10952800A370284638BD8525F5E700BFCC2A002062
:10953800C99402000000014037B50D4C00230DF11D
:1095480007008DF80730FEF78BFFE368013BE36007
:10955800E36833B9074BD3F8005415B900F0D6F8CF
:10956800A5709DF80700FEF79FFF03B030BD00BF50
:10957800CC2A002000000140012813B50CD0032894
:1095880020D038B9124B0122C3F88020BFF34F8F87
:10959800BFF36F8F02B010BD0E4C00230DF1070012
:1095A8008DF80730FEF75CFF23780BB9FFF7A0FFB3
:1095B800E3689DF807000133E3600123A370FEF719
:1095C80073FFE7E700F090F8FFF7B6FFE2E700BFA8
:1095D80000E100E0CC2A00201FB503788DF80030A8
:1095E8004368019383688DF80830C368054A03937C
:1095F800054B684653F8213052F82110984705B0BA
:109608005DF804FBE02A0020E82A00201FB5037853
:109618008DF800304368019383688DF80830C3687B
:10962800054A0393054B684653F8213052F8211038
:10963800984705B05DF804FBE02A0020E82A0020DE
:10964800F0B5194B90F800C0DFF86CE043F82C2017
:10965800164B16460A6943F82C204B7F0EF80C303F
:109668000C4607460FCC89B06D460FC594E80F002D
:1096780085E80F001EF80C30CDF810C04BB1002E55
:109688000B4A694608BF3246381D00F0E9FD09B0AB
:10969800F0BD002E074A694608BF324607F10C00A4
:1096A80000F0B6FBF3E700BFE82A0020E02A00201C
:1096B800E195020015960200F02A002000F1804092
:1096C800002382B0036003680193019B02B07047D6
:1096D800044A137923B90121106091801846704714
:1096E80085207047F42A0020074B1A68D20704D453
:1096F800C02283F8002301221A604FF08043012220
:10970800C3F81825704700BF00E100E04FF0804221
:1097180008B50223C2F808334FF48270FFF7CEFF72
:10972800034B01211960D2F81834DB03FBD408BDC0
:109738000C000040124B1B6810B573B14FF48070D9
:10974800FFF7BCFF4FF080430122C3F808230D4BFD
:10975800587910B95A711B6898470B4B1B6873B13D
:109768004FF48270FFF7AAFF4FF080430222C3F83C
:109778000823044BBDE810401B680120184710BDA2
:1097880000010040F42A00200401004000F180405C
:1097980000F5C040002382B0036003680193019B79
:1097A80002B0704703681F2B83BF03F01F030360D9
:1097B80001484FF0A04070470003005007B50190E2
:1097C80001A8FFF7EFFF019B00EB8300D0F80037FB
:1097D80023F44033C0F80037D0F8003743EA01419A
:1097E800C0F8001703B05DF804FB0000054B4FF00C
:1097F800FF32072843F8202084BFC01880F858207B
:10980800704700BFFC2A002038B51E4C94F86A3017
:10981800ABBB4FF6FF71FF205A09012A14BF4FF066
:10982800FF320A4603F01F05EA40D20748BFE21894
:1098380003F1010348BF82F83000302BECD100213E
:10984800C8B2FFF7D3FF01310C29F9D10622002154
:109858000D4802F0C4FD0D4BC02283F806234022B8
:109868001A604FF4BE70FFF791FF094B4FF00042AA
:10987800C3F80423012384F86A30002038BD082087
:10988800FCE700BFFC2A0020602B002000E100E07C
:1098980000600040034B93F86A00003818BF0120AD
:1098A800704700BFFC2A0020F7B53B4E3318054629
:1098B80093F93030002B6CDA8B78C3F34003002B1C
:1098C8000BBF082400240C200820844202D1042065
:1098D80003B0F0BD56F82470013743D1701946F82B
:1098E800242080F8304013B9331983F858508B7806
:1098F8005A0717D4D80737D501A80195FFF752FFA3
:10990800019B00EB8300D0F8003723F00203C0F876
:1099180000372248EA0805F007070123BB40875CA7
:109928003B4383548B780A7813F0020328D0A400B1
:1099380004F1804404F5C0442D02D4F8103523F412
:109948004F3323F44073C4F810351204D4F810359B
:1099580005F47C5502F4403215431D43C4F81055F4
:109968000020B5E70134B0E701A84A780195FFF770
:1099780019FF019B03F5E073920040F82320C8E724
:10998800083C344494F8605045EA821284F8602018
:10999800E6E708209CE700BFFC2A0020602B002097
:1099A80073B5224C2618054696F93020072A1ADD89
:1099B800224492F858309B09032B0FD1019001A83B
:1099C800FFF7F0FE019BD0F81015D94001F0010116
:1099D80002312846FFF7F2FE02B070BD012B0CBF22
:1099E80002210321F5E7D3B2072BF5D8930003F141
:1099F800804303F5C043D3F8100540F00100C3F8D5
:109A0800100502F14000800080B2FFF7BFFE002978
:109A1800E2D096F9303054F82330002BDCD0012303
:109A280003FA02F2024BC3F80423D5E7FC2A00200C
:109A38000060004007B5019001A8FFF7B3FE019B45
:109A4800D0F81005D84000F0010003B05DF804FB21
:109A58002DE9FF470024CDE90244584D4FF48072A8
:109A6800012102F1804303F5C04390B21B68012B2A
:109A780006D1D5F804330B4202D0FFF787FE0C431A
:109A88000432B2F5907F4FEA4101EAD14C4B1B6892
:109A9800012B11D14FF4BE70FFF778FE4FF0A043B1
:109AA80044F00044D3F820250292C3F82025D3F8C7
:109AB80020280392C3F8202814F0FF0F1AD0414F32
:109AC80000250126344210D0AB0003F1804303F592
:109AD800C043D3F81005D3F8101557F8253023B133
:109AE800C1F30141C0F3052098470135082D4FEA1D
:109AF8004606E7D1002C59DA324D334C334E4FF03D
:109B08000008012716F9013B5A1C3CD0C3F3C201D7
:109B180004A801445FFA83F911F8081C03F03F0216
:109B280003F0070307FA03F319422CD001A80192A6
:109B3800FFF738FE019B03F5E07350F82330C3F3B9
:109B4800014ABAF1020F10460CBF03210221FFF7A8
:109B580035FE01A80192FFF725FE019B07FA03F3E2
:109B6800C0F82035AB1893F9303055F8233053B18D
:109B78004FEA9911032904D0BAF1020F19D101292A
:109B880001D11046984708F10108B8F1040FB9D17E
:109B98004FF0A043D3F820250292C3F82025D4F82B
:109BA80020350393C4F820351343A7D104B0BDE88A
:109BB800F087BAF1030FE6D10229E1E7006000401F
:109BC8007C610040FC2A0020000300505C2B002030
:109BD800014B1B68184700BF682B00200E4B9842AA
:109BE80037B50C4602D0002003B030BD00230DF17C
:109BF80007008DF80730FEF733FC084B1D7915B9BF
:109C080001221C601A719DF80700FEF74DFC002D1B
:109C1800E9D01120E8E700BF00200040682B0020B1
:109C2800034B984201BF034B00221A601A71704718
:109C380000200040682B00200023435082B0435886
:109C48000193019B02B070470A4610B54FF48E711C
:109C5800FFF7F2FF136A9168C95C136A0133136254
:109C6800C0F81C1510BD8B690A4610B54FF48471F5
:109C780023B9FFF7E1FFD0F8183510BDFFF7DCFF77
:109C8800536AD168D0F81805C854536A013353622F
:109C9800F3E700001FB501238DF80030044BCDE930
:109CA8000110D3E900126846904705B05DF804FB3F
:109CB800702B002030B54C48D0F8043313F4007FE3
:109CC80085B005464DD0D0F82431002B49D04FF44B
:109CD8009271FFF7B1FF4FF40173C0F80833434B9B
:109CE80093F829200AB9012242603F4902228DF8DF
:109CF8000020D1F88024C1F8802403929A69029246
:109D0800DA6801920022C3E906226846D3E9001204
:109D180090473548D0F81C315BB134494A690B6A21
:109D28009A420A464AD991F82830002B46D1FFF7C3
:109D38008BFF2D48D0F844318BB14FF4A271FFF757
:109D48007BFF2A4B93F829200AB1012202609A6905
:109D58002AB10022586AD9689A61FFF79BFF05B0BB
:109D680030BDD5F804335B07D3D5D5F80831002BBF
:109D7800CFD01E4C1C482146FFF775FF636AA269C5
:109D88009A422346C5D1E269E1684AB12369E36092
:109D98000023606AA261E3616362FFF77BFFB8E7B3
:109DA80094F829200AB901226A600F4A4FF4017019
:109DB800C2F808030022586A9A61EEE70A484FF48D
:109DC8008E71FFF739FF5369002BB2D051690291A8
:109DD800002391688DF80030019153616846D2E9FB
:109DE80000139847A5E700BF00200040702B002013
:109DF8001F2886BF00F01F00044B4FF0A04300F55A
:109E0800E070022243F82020704700BF0003005092
:109E18002DE9F843614B057991462C2202FB053266
:109E2800064692F82A200C469846002A40F0B1804F
:109E38005B490068FFF7D2FE0746002840F0AB8078
:109E480021684A1C10D01F2987BF564A01F01F03FA
:109E58000B464FF0A0420120984003F5E073C2F88A
:109E68000805032042F823006068431C0DD01F2812
:109E78008BBF00F01F0303464A4A4FF0A04203F588
:109E8800E0734FF0000C42F823C03368A269C3F8AE
:109E9800242594F814C0627DBCF1010F4CEA02023B
:109EA800C3F86C25C3F81405C3F80C152BD1A168A9
:109EB800481C0DD01F298BBF01F01F020A463948E4
:109EC8004FF0A04002F5E0724FF0000C40F822C0BD
:109ED800E068421C13D01F2887BF324A00F01F0CCD
:109EE80084464FF0A0424FF0010E0EFA0CFE0CF51E
:109EF800E07CC2F808E54FF0030E42F82CE0C3F806
:109F08000805C3F810152C236B4308EB0302C2F8AD
:109F18000490226948F80320B9F1000F21D0306875
:109F2800247F4FF48E71FFF787FE4FF4A2713068DB
:109F3800FFF782FE32681C4BC2F80433110B42F360
:109F480007326301002ADBB21EDB1848841884F844
:109F580000330123520901F01F0103FA01F140F80F
:109F6800221033680422C3F800252C2303FB058341
:109F78000022C3E9062283F829205A61012283F8C6
:109F88002A203846BDE8F883094A01F00F015354E6
:109F9800E7E70827F5E71127F3E700BF702B002054
:109FA800BD9C0200000300508000020000E100E0B8
:109FB80014ED00E02DE9F04103680479284D0022F2
:109FC800C3F800252C2202FB045201465268A2B1B4
:109FD800244AC3F808231A0B43F30733002B0CDB7E
:109FE80002F01F005B090122824020331E4840F81E
:109FF8002320BFF34F8FBFF36F8F0B68D3F80C0587
:10A00800D3F81485D3F80865D3F810754FF0FF32EC
:10A018009042C3F81425C3F80C25C3F80825C3F8E3
:10A02800102501D0FFF7E4FEB8F1FF3F02D040460B
:10A03800FFF7DEFE7A1C02D03846FFF7D9FE731C04
:10A0480002D03046FFF7D4FE0868FFF7E9FD2C235D
:10A0580003FB0454002384F82A306360BDE8F081D0
:10A06800702B00208402020000E100E02DE9F04797
:10A07800204F90F804904FF02C0808FB097405460F
:10A088006669002E34D162610068A16026624FF4CF
:10A098008E7184F82860FFF7CFFD2868012383605C
:10A0A8002146FFF7D1FD6368A0468BB92868D4F82C
:10A0B80014A0236A9A4511D82A68D2F81C31002BBB
:10A0C800FBD00123D3602C2303FB097300225A61C0
:10A0D8003046BDE8F08794F828303BB9D0F81C31F9
:10A0E800002BF8D04146FFF7AFFDE2E70F26EAE77D
:10A0F8001126EDE7702B00200023435082B043580F
:10A108000193019B02B070471FB501238DF8003001
:10A11800044BCDE90110D3E900126846904705B019
:10A128005DF804FB9C2B00201F2886BF00F01F0051
:10A13800044B4FF0A04300F5E070022243F82020C2
:10A14800704700BF000300507FB5434AD2F824612E
:10A15800002E60D010464FF49271FFF7CDFF022316
:10A168008DF80030D2F88034C2F880340393D2F8E6
:10A178003C350293394BDA6801920022C3E9062282
:10A188006846D3E9001290473348D0F8443173B198
:10A198004FF4A271FFF7B0FF304B9A693AB1002231
:10A1A800C3E90622D968D0F83C05FFF7ADFF2A4875
:10A1B800D0F82031ABB14FF49071FFF79DFF012328
:10A1C800C360264B5A6962B1D0F84C15029100223F
:10A1D80099688DF8002001915A616846D3E9001208
:10A1E80090471D48D0F858319BB14FF4AC71FFF738
:10A1F80083FF1A4B5A6962B1D0F84C1502910022BC
:10A2080099688DF8002001915A616846D3E90012D7
:10A21800904704B070BDD2F81031002BB4D04FF481
:10A2280088711046FFF768FF0C4BD2F83C05996916
:10A238008842A9D1DC69D96864B1D2F8005225F006
:10A248002005C2F800521A699C61DA60DE61FFF7E6
:10A258005BFF99E79C61FAE7002000409C2B0020F7
:10A268002DE9F843674B06799146242202FB063212
:10A27800044692F820200D469846002A40F0BE80F9
:10A2880061490068FFF7AAFC0746002840F0B8803B
:10A298002868421C10D01F2887BF5C4A00F01F03A3
:10A2A80003464FF0A0420121994003F5E073C2F83C
:10A2B8000815032142F8231069684B1C0DD01F298B
:10A2C8008BBF01F01F030B46504A4FF0A04203F525
:10A2D800E0734FF0000C42F823C02368AA69C3F862
:10A2E800242595F814C06A7DBCF1010F4CEA0202DE
:10A2F800C3F86C25C3F80C05C3F814152BD1A9684D
:10A30800481C0DD01F298BBF01F01F020A463F4889
:10A318004FF0A04002F5E0724FF0000C40F822C068
:10A32800E868421C13D01F2887BF384A00F01F0C6A
:10A3380084464FF0A0424FF0010E0EFA0CFE0CF5C9
:10A34800E07CC2F808E54FF0030E42F82CE0C3F8B1
:10A358000805C3F810152423734308EB0302C2F859
:10A3680004902A6948F80320B9F1000F30D020681A
:10A378002A7F4FF48871FFF7BFFE20684FF4907171
:10A38800FFF7BAFE20684FF49271FFF7B5FE206818
:10A398004FF4A271FFF7B0FE4FF4AC712068FFF7DD
:10A3A800ABFE23681A49C3F80413190B43F30733A8
:10A3B8005201002BD2B21CDB1648C51885F80023C1
:10A3C80001225B0901F01F0102FA01F140F8231094
:10A3D80023680822C3F80025242303FB06830022F0
:10A3E800C3E906225A61012283F820203846BDE8D5
:10A3F800F883094B01F00F015A54E9E70827F5E7FC
:10A408001127F3E79C2B002051A102000003005004
:10A418001003420000E100E014ED00E02DE9F041F6
:10A428003D4E05790468242303FB056302465B68F7
:10A43800ABB13A4BC4F8083344F30733002B4FEA67
:10A4480014310CDB01F01F005B090121814020332E
:10A45800334840F82310BFF34F8FBFF36F8FD4F802
:10A46800003223F02003C4F80032242303FB0563E1
:10A478009B6933B14FF4A2712046FFF73DFE0123DB
:10A4880063604FF4AC712046FFF736FE0123E360AA
:10A49800242303FB0563D4F858110029FBD09969DC
:10A4A80019B1D4F844110029F5D00023C4F80035B7
:10A4B8001368D3F80C05D3F81485D3F80815D3F826
:10A4C80010754FF0FF329042C3F80C25C3F81425DD
:10A4D800C3F80825C3F8102501D0FFF725FEB8F109
:10A4E800FF3F02D04046FFF71FFE7A1C02D03846D5
:10A4F800FFF71AFE4B1C02D00846FFF715FE204650
:10A50800FFF78EFB242303FB0565002385F8203025
:10A518006B60BDE8F08100BF9C2B00201003420057
:10A5280000E100E001F06043B3F1005F2DE9F04184
:10A53800064638D11E4B0779242505FB0735984672
:10A548006C69002C31D16A610068A9604FF4907180
:10A55800FFF7D2FD4FF4AC713068FFF7CDFD3368DB
:10A568006A69A968C3F84415C3F8482501229A60A6
:10A578006A68AAB9D3F82021D3F858411AB9002C2F
:10A58800F8D00F2407E0002CFBD10122DA60D3F8C1
:10A598005821002AFBD0242303FB078700237B6173
:10A5A8002046BDE8F0811024FAE71124F8E700BF3F
:10A5B8009C2B0020032811D8012A0AD101290FD188
:10A5C80000F10E02D2B20D4B00EB40001A540020ED
:10A5D80070470129F7D0022904D049B107207047F4
:10A5E8000022F8E7054B00EB400018444270EEE704
:10A5F800024B00EB400018448270E8E7C02B0020B3
:10A6080008B5012202210020FFF7D4FF08B107286E
:10A6180010D1072202210120FFF7CCFF08B107283B
:10A6280008D100210A220846FFF7C4FF10B1072805
:10A6380008BF002008BD00000388102B10B502D009
:10A64800112B1ED010BD1A4C2168B1B90122084641
:10A65800FFF7B0FF08B1072824D107220221012003
:10A66800FFF7A8FF08B107281CD104220221002007
:10A67800FFF7A0FF08B1072814D12368013323602E
:10A68800E0E70B4A1368013B1360002BDAD1FFF7B0
:10A69800B7FF0028D6D0074B1B68002BD2D0BDE8E7
:10A6A80010401847034B1B68002BE6D09847E4E797
:10A6B800D02B0020CC2B002075DF704776DF704749
:10A6C8008FDF7047FDF796BC0146014801F0C3BA19
:10A6D800602D002008B5074801F0E8F908B1FDF73A
:10A6E80089FC0120FEF798FEBDE808400020FEF72F
:10A6F8007FBE00BF8C2D00200388212B13B5044694
:10A7080048D007D8112B2ED01F2B39D0102B0AD0A8
:10A7180002B010BD3B2B01D0562BF9D1A0881321D4
:10A72800FFF7CCFF31E01F4B1F482049C01AC00873
:10A73800000440F00300FDF777F9A1881C480022C7
:10A7480001F096FB08B1FDF755FCA188194800F007
:10A7580017FC08B1FDF74EFC0120FEF749FE00206A
:10A76800FEF75AFED4E70F4B0F481349C01AC0082A
:10A77800000440F00300FDF757F9FFF7ABFFC7E708
:10A7880000F108018088FFF797FF0028C0D0FDF787
:10A7980031FCBDE7002301A98088ADF80430FFF73C
:10A7A8008FFFF2E744C502006CC502003ECD0200EF
:10A7B800602D0020341E002049CD02000378052BAF
:10A7C80003D1406808B1FDF715BC70470B2807B5E1
:10A7D8000BD11048019101F01BFB019A50B143F2D3
:10A7E8000202904213D0082811D003B05DF804EBA0
:10A7F800FDF700BC084B09480949C01AC008000405
:10A8080040F0030003B05DF804EBFDF711B903B0A5
:10A818005DF804FB602D002044C502006CC50200F1
:10A8280057CD020070B50D78012D06460C4602D0B2
:10A83800022D1ED070BD0A1D1948498801F018FB69
:10A848001848194B628819491B1ADB081B0443F086
:10A858000300FDF7EDF8FDF7B7FB08B1FDF7CAFBFC
:10A86800304601F0ADFA0028E4D0BDE87040FDF7AD
:10A87800C1BB0C4B0C480A790D49C01AC00800042A
:10A8880040F00300FDF7D4F8237928461BB1BDE852
:10A898007040FEF7ADBDBDE87040FEF7BDBD00BF1E
:10A8A800602D002044C502006CC502006ECD020078
:10A8B800A1CD02001FB54FF480410020FCF71CFF1A
:10A8C80008B1FDF797FBFCF757FEFDF775FC08B1DB
:10A8D800FDF790FB0120FEF7C2FD3E4840F23332FF
:10A8E8000121FDF71BFB08B1FDF784FBFEF702FB16
:10A8F80008B1FDF77FFB01F013FB08B1FDF77AFB08
:10A90800002369460120009301F092FB08B1FDF78E
:10A9180071FB684601F03EFC08B1FDF76BFB1022A5
:10A928000021684601F05BFD01232B4A2B488DF876
:10A93800043069468DF80C3001F068F808B1FDF76D
:10A9480059FB26480022012101F048F808B1FDF71B
:10A9580051FB234A2148002101F012F808B1FDF704
:10A9680049FB2048002100F0D9FC08B1FDF742FB63
:10A9780008220021684601F032FD1B4C1B4B009356
:10A988006846019400F0BEFA08B1FDF733FB184B96
:10A998001848CDE900346946174B029301F0AEF927
:10A9A80008B1FDF727FB154B15481649C01AC00812
:10A9B800000440F00300FDF737F8FFF78BFE002096
:10A9C800FEF716FDFCF7EAFE0028FBD1FEF7A8FA11
:10A9D800F8E700BF141E0020C5A702008C2D002038
:10A9E800FCCD0200782D00201C1E0020D1A60200FC
:10A9F8002DA80200602D0020CDA6020044C502004B
:10AA08006CC50200C7CD020030B5C8B1F2B1002450
:10AA1800651C8D4206DA1588A54212D805196D788D
:10AA28009D420ED1A14211D9005D48B1013880B2D2
:10AA380030B10234A3B210FA84F4A14206DB1380C9
:10AA480030BD055D01352C44A4B2E1E70020F7E7ED
:10AA5800F7B500230646ADF80630144612B90020B3
:10AA680003B0F0BD09230DF10602FFF7CDFFBDF8D5
:10AA780006700546002FF2D00028F0D0204601F0DD
:10AA880008FDA8420246EAD1F119204601F04BFC24
:10AA9800B0FA80F04009E3E70AB1FDF7E1BEFDF73F
:10AAA800E8BE73B50191019C06466CB100252C46A1
:10AAB800294601A8FDF7E7FE18B106EB4403013467
:10AAC8009D800135142DF3D13046346002B070BD3D
:10AAD8002DE9F04703888488103B8CB005460A2B83
:10AAE8001FD8DFE803F0063F1E1E1E1E1E1E1E6036
:10AAF8004400314EB368DB43009371686846FDF744
:10AB0800EEFE009901A8FFF7CCFF0DF108094FF000
:10AB18000008019B984507D3132C13D90420FDF78F
:10AB280069FA0CB0BDE8F08739F802AB00270137A5
:10AB3800514606EB8700FDF79CFE1E2FF7D108F162
:10AB48000108E6E71D482146FDF78AFE1C48214614
:10AB5800FDF786FEEB7B022BE3D11A482146FDF771
:10AB68007FFEDEE715482146FDF783FED9E7027A26
:10AB780015483F2A4FEA1215214694BF00220122A8
:10AB8800FFF78AFF022D94BF002201220F482146B9
:10AB9800FFF782FF012D0E4894BF002201222146B3
:10ABA800FFF77AFFBDE7037A002BBAD1427A06484D
:10ABB800C2F3C0022146F3E7F42D0020FC2D00204B
:10ABC800F82D0020002E00200C2E0020082E00203A
:10ABD800042E002030B50B4B19680B4B0022914214
:10ABE80001D1002009E09D788478A54206D11D880E
:10ABF8000488A54202D1054B186830BD01320433E0
:10AC0800EDE700BF782E00207C2E0020702E00205B
:10AC18002DE9F84F90F8C6A24FF0760B04460AFBD0
:10AC28000B0088469146FFF7D5FF074670B3D4F866
:10AC3800CC52052D2AD804EBC5165A46A6F8D2924E
:10AC48000BFB0A4106F5357001F0A0FBB8F1000FC7
:10AC580014BF0023022386F8D0320D4BC6F84C737C
:10AC68001A6801359542C4F8CC521D460ED104F538
:10AC780034760027F36F304698472B6801379F4298
:10AC880006F18006F6D30023C4F8CC32BDE8F88F6D
:10AC9800782E002030B5A1B004460D467C22002154
:10ACA80001A801F09CFB03238DF80430044BADF898
:10ACB80006501B6802940BB101A8984721B030BD1B
:10ACC800702E00202DE9F041074691F8C602762340
:10ACD8004FF00008A0B081F8C88200FB03100C46B2
:10ACE8001546FFF777FF064660B17C22414601A86A
:10ACF80001F075FB01238DF80430ADF8065002977A
:10AD080001A8B04729462046FFF7C4FF20B0BDE898
:10AD1800F081000030B58BB0044620220D4602A811
:10AD2800002101F05CFB04220DEB0200002101F080
:10AD380056FB94F8C53294F8C62213B3013B76212A
:10AD4800DBB25143122000FB031323445B8A013317
:10AD58009BB2ADF80430762303FB024202A91389A3
:10AD6800ADF8063003238DF80830019BCDE9054383
:10AD7800064B0493064B2A46186800F0D3FC0BB028
:10AD880030BD762303FB0243DB88E2E7CDAC02004B
:10AD9800942E0020F0B5044689B020220D4668465E
:10ADA800002101F01CFB94F8C7321E4A01331268D7
:10ADB800DBB2934284F8C7324FF000022BD294F8EA
:10ADC800C632194F84F8C5220133DBB2762113FB52
:10ADD80001F057F8237084F8C6322618275001FB73
:10ADE800034332711B68CDF81230104B02930222D4
:10ADF8000F4B8DF800200122ADF81020186803943D
:10AE08002A46694600F08EFC18B12A462146FFF70B
:10AE180059FF09B0F0BD84F8C82229462046FFF73B
:10AE280039FFF6E7782E00207C2E0020CDAC0200FA
:10AE3800942E00202DE9F047044688B00D461646AA
:10AE480000212022684601F0CAFA94F8C62294F834
:10AE5800C512762312FB03F2A018122790F804C03B
:10AE680017FB012301F1010E0A33E645234411D0F3
:10AE780004F11C0900F1220E0CF1FF389144CAB20A
:10AE880094450BD988451B890ED102899A421BD15A
:10AE9800002312E01B890289934215D101232B70EC
:10AEA800002008B0BDE8F08707FB01FA01333EF83F
:10AEB8000A2093421DD109EB0A0394F8C5220132F6
:10AEC80084F8C5220131DAE701339BB2ADF81030BE
:10AED8000A4B029300210A4B297004218DF80010B7
:10AEE800ADF81220186803943246694600F01AFC3F
:10AEF800D7E7013A9BB292B2E8E700BFCDAC0200B7
:10AF0800942E002010B570B1026862B1436853B145
:10AF1800064900200860064901240C7005490A60AA
:10AF2800054A136010BD0E20FCE700BF782E0020F4
:10AF3800742E0020702E0020942E002010B5044698
:10AF480080B10C4B1B787BB1FFF744FE70B90A4AFD
:10AF58001368052B0CD80949246841F823400133AC
:10AF6800136010BD0E20FCE70820FAE70020F8E780
:10AF78000420F6E7742E0020782E00207C2E002076
:10AF8800F0B50D468BB0044600283BD0204B1B780B
:10AF9800002B39D01F4B1B68002B35D090F8C812F6
:10AFA800002933D14FF4BA621B4F019101F017FA0F
:10AFB8000199202202A801F012FA3868294600F007
:10AFC80051FCE8B9154BC4F8CC0284F8C502A4F8C2
:10AFD800C6021868206002238DF808300126104B3D
:10AFE800CDF81A00A4F8CA523868ADF818602A4695
:10AFF80002A90594049300F095FB08B984F8C86287
:10B008000BB0F0BD0E20FBE70820F9E71120F7E7A9
:10B01800742E0020782E0020942E00207C2E0020F4
:10B02800CDAC02002DE9FF410C46054660B159B18F
:10B03800904B1B7843B10388322B64D007D8112B6F
:10B0480000F00A81302B20D004B0BDE8F081332B0A
:10B05800FAD18288B1F8CA329342F5D1C68891F8FC
:10B06800C6C291F8C572002E00F0C080762101FB9F
:10B078000C4C00239CF804108DF80F307B1C8B427D
:10B0880000F0E48084F8C532A2E08388B1F8CA22CF
:10B098009A42D9D1C3886BBB91F8C632762202FB9B
:10B0A80003130269C3F8062091F8C432827A134464
:10B0B800062B0CDC81F8C432A9882046FFF72AFE4B
:10B0C8000028C1D0AA882146FFF7FCFDBCE706236B
:10B0D80081F8C4326848694B6949C01AC00800043D
:10B0E80040F002000190FCF79FFC66490198FCF7CC
:10B0F8009BFCE1E700212046FFF78AFDA98820464E
:10B10800FFF748FEA0E78288B1F8CA329A429BD17D
:10B11800C388002B58D191F8C672762317FB03F722
:10B1280001EB0708837A98F804603344062B26DC81
:10B1380088F80430334603EBC30207EB420205F1FB
:10B148000C062244002198F80400834206F10A06FE
:10B1580002F1120227D31222013B02FB034394F8A7
:10B16800C62276213B4401FB0242598A138999423F
:10B178002AD2062828D0A98884F8C5029DE7062384
:10B1880088F804303C483D4BCA5B3F49C01AC008A8
:10B19800000440F002000190FCF74AFC3B4901988A
:10B1A800FCF742FCC6E73046013350F80ACD42F8B6
:10B1B80008CCD0F804C042F804CC00891080518033
:10B1C8009180D1801181BEE7002384F8C532AA8816
:10B1D8000DF10F012046FFF72DFE00287FF472AF16
:10B1E8009DF80F30002B3FF42FAF32E0762303FB9E
:10B1F8000CF1122303FB0713B0F80AE02344764549
:10B20800BFF434AFC189A1F52451082908D8DFE873
:10B2180001F014170507070707071A0081899982A3
:10B22800998A39B1D98A29B1198B19B1598B002951
:10B238007FF41CAF01360630E1E78189D982EFE758
:10B2480081891983ECE781895983E9E701238DF81E
:10B258000F30AA8801214EE7B1F8CA3282889A4293
:10B2680001BF002381F8C8324FF6FF73A1F8CA3234
:10B27800EAE600BF742E002084C5020044C502001F
:10B288000ACE020029CE02006ECE0200B4CE020021
:10B2980090DF7047A5DF7047B5DF70477FB50023A3
:10B2A800ADF80810ADF80A106A4602A906460393DD
:10B2B8000093ADF80430FFF7EBFF054600B3124BDF
:10B2C800124CE41AE408FDF76FFF240444F001046B
:10B2D80003460F4932462046FCF7B3FBBDF8002071
:10B2E800BDF8023052EA030103D00A492046FCF7B0
:10B2F800A8FBBDF804201AB107492046FCF798FBC3
:10B30800284604B070BD00BF44C50200A4C50200B1
:10B318001ACF020064CF0200A3CF020078B14FF029
:10B32800171303601B2303711723C380038141F69E
:10B338001B320023016143818281184670470E2029
:10B348007047000013B5034680880C46B8B91A88C0
:10B35800242A00F0958014D8112A71D0232A00F0ED
:10B368009D80102A3BD0A37A4BB1E1880020FFF7DB
:10B3780091FF002840F098804FF48073638102B0F9
:10B3880010BD3A2A64D0552AEDD1DB88C988A0724D
:10B39800172B38BF17238B4228BF0B462381FFF793
:10B3A8007BFF60B1FDF700FF484B49490246494819
:10B3B8001B1ADB081B0443F00100FCF739FBE37A96
:10B3C800002BD0D12369002BCDD040F677220092F4
:10B3D8002289ADF80420694620469847C3E7DB7BFD
:10B3E8000A790A73012B13D0022B14D0E188238920
:10B3F8008B4205D20020FFF74DFF70B90123E3729D
:10B40800217B637B8B42AED20020FFF747FFAAE780
:10B418000B88E380EAE74B88FBE7112802D1012378
:10B42800A372EDE7FDF7C0FE284B2B4902462948D9
:10B438001B1ADB081B0443F00100FCF7F9FADFE7ED
:10B448001723CB800B8141F61B3348818B818AE718
:10B458005B89CA88934228BF1346172B0A6938BFED
:10B4680017230B814AB1C97A39B140F67721009187
:10B47800ADF804306946204690470023638172E79F
:10B488001A7A0B694A73002B3FF46DAF4DF67A2197
:10B498008DF8050000918DF804209CE7197A237B2C
:10B4A800994228BF1946B0E711283FF468AFFDF765
:10B4B8007BFE064B0849024606481B1ADB081B049C
:10B4C80043F00100FCF7B4FA59E700BFA4C5020035
:10B4D8002AD0020044C50200F9CF02009BDF704762
:10B4E8009DDF70479EDF7047A1DF7047A3DF70477D
:10B4F800AEDF704730B5048800239AB2944206D96B
:10B50800456835F813508D4203F10103F5D1104613
:10B5180030BD8B6910B50C461988102912D8023134
:10B52800FDF78FFC606078B1A16900230222FDF766
:10B53800CAFCA26960681288E1690223FDF7C3FCAE
:10B54800002010BD0920FCE70420FAE710B50C46DE
:10B55800C98A10290AD8FDF774FC606040B1E28AF4
:10B56800A1690023FDF7AFFC002010BD0920FCE70E
:10B578000420FAE7F0B58BB0002204460DF106016D
:10B58800C068124EFDF767FD142502460AB10BB0DC
:10B59800F0BDBDF80670A36805FB073702A9384659
:10B5A800FDF759FD38B10022E0680DF10601FDF7FD
:10B5B80052FD0246EAE79DF8083056F8233013B1E9
:10B5C8000398FDF728FC0022E8E700BFD8D0020066
:10B5D800F7B505460C4C0D480092241AE4082404DB
:10B5E8000B460F4616460A492A7844F00100FCF734
:10B5F80032FAAB6833B1E9683A46304603B0BDE881
:10B60800F040184703B0F0BDACC5020044C50200C5
:10B6180066D00200F0B58FB00D46012206A9064695
:10B62800FDF719FD044690B99DF81830052B65D82B
:10B63800DFE803F0030F1C24292EBDF82A20BDF8EB
:10B6480028102846FFF750FF0446112C40D10FB0B0
:10B65800F0BD02A90798BDF82E200C910023FDF734
:10B668003CFC0AA92846FFF741FFEDE7BDF8281082
:10B678000DF12A022846FFF731FFE5E70AA9284617
:10B68800FFF72EFFE0E70AA92846FFF72BFFDBE7C5
:10B698000DF1060402AB214607980D930222002300
:10B6A800FDF71BFCBDF806200D9907980C940223A2
:10B6B800FDF713FC0AA92846BDF80670FFF718FF26
:10B6C80004460028C1D1BDF80630BB4218BF0C247F
:10B6D8009DF818200F4B53F8223013B10798FDF747
:10B6E8009AFB002206A93046FDF7B5FC002CAED027
:10B6F8002246294606A8FFF76BFFA8E70648074B2E
:10B7080007491B1ADB081B0443F00200FCF78CF9FD
:10B71800DEE700BFD8D0020044C50200ACC5020075
:10B72800B0D002002DE9F8430F461446054620B96B
:10B738004FF00E084046BDE8F8830029F8D0FFF71F
:10B7480019FF3B78052B6AD821462846FFF7D2FE19
:10B758002B88834263D014264643A8683044FDF7FB
:10B7680073FC002860D03B78052B3BD8DFE803F05A
:10B778000311171E242A7A8A398A2046FFF7B4FE55
:10B78800112851D058B3024621463846FFF720FF0A
:10B7980025E007F110012046FFF7A8FEF0E7398AF7
:10B7A80007F112022046FFF799FEE9E707F11001B9
:10B7B8002046FFF795FEE3E707F110012046FFF763
:10B7C80091FEDDE7BB6907F110012046B3F8008060
:10B7D800FFF78EFE30BBBB691B8843450DD14FF088
:10B7E8000008A7E71B4B1C481C49C01AC0080004E6
:10B7F80040F00200FCF718F9F1E70C20C3E72869CC
:10B80800002895D0394698478046A0B192E73B7802
:10B8180059F82330BBB17868FDF7FDFA13E04FF013
:10B82800070887E71128AED10D4A3B7852F8233034
:10B838009146002BE3D1A86839463044FDF7AEFBAA
:10B8480080460028E3D1A86821463044FFF7E2FE8D
:10B8580070E700BF44C50200ACC50200B0D00200CA
:10B86800D8D00200F8B50D46044678B3FFF782FE3B
:10B8780029462046FFF73EFE2288824211D000204A
:10B88800F8BD616831F81310814203F101030BD050
:10B89800208800234FF6FF769AB282420BD3042009
:10B8A800EEE700234FF6FF7099B28A42E9D8206983
:10B8B800FDF7AFFAECE761685A0001EB43078A5AD3
:10B8C800B24203F10103E7D13D80D8E70E20D7E764
:10B8D80037B50C4608B301B30588112D15D18188F9
:10B8E8002046FFF707FE2388ADF80600834214D0F0
:10B8F800112D14D163684FF6FF7223F810200DF153
:10B908000601E068FDF74AFB07E0A5F130031F2BAD
:10B91800E5D9A5F150031F2BE1D903B030BDA368C9
:10B92800142202FB0030FFF775FEF6E78ADF704746
:10B938008BDF70478CDF704730B590F8233089B0C3
:10B9480004460D46D3B190F82C300193FFF7F0FF71
:10B958001422002103A800F042FD019B04F12402F7
:10B9680004F12E01A81CFFF7E5FF05238DF80C3024
:10B97800049018B1E36B0BB103A8984709B030BD28
:10B9880070B51546044618B312B319BB104600F03B
:10B9980080FD0138C0B21F281ED894F820600EB16F
:10B9A800042014E02946204600F04CFD78B194F8B4
:10B9B8002000431C84F8203004EB4014284600F093
:10B9C80068FD29460246204600F0E0FC304670BD7E
:10B9D8000E20FCE70720FAE70C20F8E768B1CB0651
:10B9E8000DD011F0010116BF012380F8211080F855
:10B9F800213080F82220002070470E207047072051
:10BA0800704790F82E00C0F3C000704738B50D4657
:10BA18000446002843D0C2630021232200F0DFFC43
:10BA280065B32B7984F823302B7B84F82C302B6872
:10BA3800D3B104F12E0203F10C0153F8040B42F8C0
:10BA4800040B8B42F9D11B881380AA680AB31068CB
:10BA5800516804F1240303C304F1400323661F2340
:10BA6800A4F86430002038BDE28DA38602F0E3021A
:10BA780042F48272E2850B4A2263E6E7E38DA586EB
:10BA880003F0E30343F48273E385064B236384F8EE
:10BA98002350054A4FF0C873C4E90923DCE70E2098
:10BAA800E1E700BFA00050000600180010B50446EA
:10BAB80086B048B31422002101A800F090FCFFF7DB
:10BAC80037FF2046FFF79DFF30B1E36B23B101221A
:10BAD8008DF8042001A8984704F1600104F12E00B4
:10BAE800FFF724FF044630F008000BD00748084B46
:10BAF80008491B1ADB081B0443F001002246FBF728
:10BB080097FF204606B010BD0E20FBE744C5020093
:10BB180094C50200F0D002002DE9F04F054687B029
:10BB280035F8083B1B2B06460C4678D01D2B14D045
:10BB3800102B2FD11422002101A800F050FC06235D
:10BB48008DF80430B388ADF80C3004F12E0305935A
:10BB5800E36B0295F3B101A875E01422002101A856
:10BB680000F03DFC04F12E0320460593FFF749FF42
:10BB780004F1600888B102238DF8043001A8E36B52
:10BB88000295984741460020FFF7D0FE29462046F7
:10BB9800FFF7D2FE07B0BDE8F08F94F8210094F8C3
:10BBA800229088B394F820A0B6F824B0274604EB76
:10BBB8004A1A574518D10020034601220295B9F1C7
:10BBC800000F24D09A4226D100238DF8043029464C
:10BBD8002046FFF7B1FEE36B0BB101A89847414639
:10BBE8000020FFF7A3FED5E73A46306A5946FEF72C
:10BBF8002FFF20370028DCD09DF80C3043F00103DC
:10BC08008DF80C300123D8E703460246D6E710B179
:10BC18008DF80490DBE703238DF80430DBE714226A
:10BC2800002101A800F0DBFB327A012AB2D1E36BD4
:10BC3800002BAFD004212E348DF8041005948DF814
:10BC480008200DEB01009847A4E762DF7047CB6836
:10BC580003B1184770472DE9F0430A7885B00346C9
:10BC6800002A39D18C8841F22350844234D18C790E
:10BC7800187C844230D101208DF8040091F808E046
:10BC88004888BDF80C60BDF80A50BDF80840ADF80A
:10BC980006001746104641F2245841F225598645B8
:10BCA8001DD80FB1ADF80C601AB1ADF80A50ADF857
:10BCB800084019884FF6FF72914209D05A683AB97C
:10BCC8005A882AB90298BDF80C20C3F80200DA8015
:10BCD8009A6801A91846904705B0BDE8F083B1F805
:10BCE8000EC0C44506D0CC4501D1CE8A012701300B
:10BCF8001231D4E7CD8A0C8B0122F8E7F0B5194A46
:10BD080087B002AD04460B4602F1100C2F461068AE
:10BD180051682E4603C6083262453546F7D1FCB154
:10BD2800F3B11968E1B15A68D2B100209B68A160EB
:10BD38004FF6FF75C4E900506261E36004F1100139
:10BD48003846FFF782FF48B9237C8DF8063001A8F2
:10BD580041F22353ADF80430FFF7F0F807B0F0BD17
:10BD68000E20FBE727D102001FB503460846D9B1CC
:10BD7800D3B11A88112A19D0392A15D109889A8875
:10BD88008A4211D15C8981888C420DD1D9890129D7
:10BD98000AD11B7C8DF8083002218DF804108368C5
:10BDA800ADF8062001A9984704B010BD9A880B8801
:10BDB8009A4202BF4FF6FF720023C1E90023F3E75E
:10BDC80000B58BB0E8B102884FF6FF739A421AD0DB
:10BDD8000E49CDE904104188ADF81A104FF400312E
:10BDE800079101A9012308914069ADF8043002A91F
:10BDF8008DF808308DF81830FFF794FC0BB05DF81B
:10BE080004FB0E20FAE70820F8E700BF57BC020041
:10BE180010B58AB004468DF8071010B302884FF6A3
:10BE2800FF739A421FD02022002102A800F0D7FAFF
:10BE380001238DF808300D4B22886069CDE9043460
:10BE4800E388ADF81A300DF1070308934FF48033F7
:10BE5800079302A902238DF81830FFF763FC0AB094
:10BE680010BD0E20FBE70820F9E700BF57BC020011
:10BE780048B1018022B11368C0F802309388C380AA
:10BE88004069FFF7EFBC0E20704710DF70470000D5
:10BE980013B5044609496846FDF72BF9019808B916
:10BEA80002B010BDD0E900212046904718B168467D
:10BEB800FDF729F9F2E71120F2E700BF44D10200AB
:10BEC80013B5044607496846FDF713F9019B0BB9FA
:10BED80002B010BD2046D3E9002190476846FDF71F
:10BEE80012F9F3E75CD102000B4991F816335A09AD
:10BEF800EC231341DB0706D5084B9A683AB94FF48F
:10BF080080030B60704742F20200FCF773B81A68AE
:10BF180042F480021A60704700E100E0A42A002081
:10BF2800F7B5194F3C7864BB184E0125204635708B
:10BF3800FFF7AEFF112821D02046FFF7C1FF144BB1
:10BF48008DF80340186801900DF10300FCF788FA9A
:10BF5800104901A8FFF799FF0446B0FA80F040099C
:10BF680038709DF80300FCF79FFA3CB90A4B34700F
:10BF78001C70FFF7B9FF2846FFF7A2FF204603B061
:10BF8800F0BD0824FAE700BF992E0020982E002063
:10BF98003FD10200198002009A2E0020014B187828
:10BFA800704700BF992E002007B508496846FDF77D
:10BFB800A0F8019B13B903B05DF804FBD3E9002096
:10BFC80090476846FDF79FF8F3E700BF50D102009D
:10BFD800FFF7EABF60DF704769DF704761DF7047CE
:10BFE80030B5114B1B7891B0E3B1104D34240DF1ED
:10BFF800020103A8ADF80240FFF7F0FF70B9294627
:10C0080001A8FDF776F8029B002BF0D003A8D3E92E
:10C018000021904701A8FDF776F8F4E7052801D03C
:10C02800FBF7E8FF11B030BD9B2E0020A0D3020023
:10C0380030B5054685B00C46002900F099804D4B77
:10C048000B600C22002101A800F0C9F901238DF82A
:10C05800063022688DF80450062301A92020ADF887
:10C068000830FFF7B9FF60B1FDF79EF8424B43492E
:10C07800024643481B1ADB081B0443F00100FBF788
:10C08800D7FC0C22002101A800F0A9F900238DF8A3
:10C098000530226840F2011301A94020ADF80630AE
:10C0A800FFF79AFF60B1FDF77FF8334B3549024639
:10C0B80033481B1ADB081B0443F00100FBF7B8FCEC
:10C0C8000C22002101A800F08AF90A2322688DF8C1
:10C0D800043001A90120FFF77FFF60B1FDF764F884
:10C0E800254B2949024626481B1ADB081B0443F046
:10C0F8000100FBF79DFC0C22002101A800F06FF95C
:10C10800F8232268019301A9A120FFF765FF60B118
:10C11800FDF74AF8184B1D49024619481B1ADB0857
:10C128001B0443F00100FBF783FC0C22002101A84B
:10C1380000F055F99DF8043022686FF3000301A957
:10C14800A0208DF80430FFF747FF034668B1FDF7DC
:10C158002BF8094B0E49024609481B1ADB081B0439
:10C1680043F00100FBF764FC0023184605B030BD1E
:10C178000E23FAE7C81D0020BCC5020068D10200E2
:10C1880044C50200AED10200FAD1020046D2020034
:10C1980097D2020073B505460668FFF71BFF2B68A8
:10C1A800B34204461DD91A481A4B1B491B1ADB080F
:10C1B8001B0443F002000190FBF736FC2B6817497B
:10C1C80001983246FBF73DFC4FF080532A68D3F8BC
:10C1D8000C31134901989B0203F100539A1AFBF79B
:10C1E80027FC2CB90F4B01221A70204602B070BDF3
:10C1F8002046FCF7D9FF074B0B49024604481B1A97
:10C20800DB081B0443F00100FBF712FCEDE700BF5D
:10C2180044C50200BCC50200EAD2020019D30200DC
:10C228004AD302009B2E002074D302004BDF7047D4
:10C238001FB50D4C01A8FFF7F9FF70B9214602A8F8
:10C24800FCF757FF039B002BF4D00198D3E900219A
:10C25800904702A8FCF757FFF4E7052801D0FBF741
:10C26800C9FE04B010BD00BFB8D302007F2805D8AE
:10C27800034B185C034B5B5C184070470020704709
:10C28800D0D3020050D40200A0F16103192B98BF4B
:10C2980020387047A0F14103192B98BF2030704710
:10C2A8007F2805D8034B185C034B5B5C184070472C
:10C2B80000207047D0D3020050D40200A0F16103DF
:10C2C800192B98BF20387047A0F14103192B98BF4C
:10C2D800203070477F299ABF017001206FF02E002F
:10C2E80070475AB10A787F2A0AD800B10260002143
:10C2F80019605960501A18BF012070470020704714
:10C308006FF02E007047000008B5034B5B689B6810
:10C318001B68984708BD00BF0424002008B5092100
:10C32800FFF7F2FF08BD7AB370B414460F2A15D987
:10C3380002460B4640EA010515F0030F01D0013C07
:10C348000EE0194610460432043306680D68AE4202
:10C3580004D110461946043C042CF2D8013C0ED0F6
:10C368000A4603460444114618460133013206784A
:10C378000D78AE4203D118461146A342F3D1007896
:10C388000B78C01A70BC704700207047844640EA9A
:10C39800010313F0030F18D18446202A0BD32DE98B
:10C3A800F007B1E8F807A0E8F807A2F12002202A70
:10C3B800F7D2BDE8F007042A07D351F8043B40F848
:10C3C800043BA2F10402042AF7D2002A05D011F88E
:10C3D800013B00F8013B013AF9D1604670478446B9
:10C3E800002A2DD010F0030F04D000F8011B013AE9
:10C3F80026D0F7E7C9B241EA012141EA0141202AE2
:10C4080012D3A2F120022DE9F0030B460C460D468B
:10C418000E460F4688468946A0E8FA03203AFBD222
:10C42800BDE8F00320320BD0042A05D340F8041BE2
:10C43800043A05D0042AF9D200F8011B013AFBD1CD
:10C448006046704710F0030F19D111F0030F16D191
:10C458002DE970004FF001364FF0803350F8044B4F
:10C4680051F8045BAC4205D1A4EB060525EA0405A6
:10C478001D40F3D0A0F10400A1F1040170BC10F834
:10C48800012B11F8013BD21A01D1002BF7D110462C
:10C49800704700F1010110F0030F11D010F8012BC3
:10C4A800002A23D010F0030F0AD010F8012B002A1D
:10C4B8001CD010F0030F03D010F8012B002A15D060
:10C4C8002DE970004FF001324FF0803350F8044BE3
:10C4D800A4EB020525EA04051D4000D1F6E7A0F10A
:10C4E800040070BC10F8012B002AFBD1A0EB01005E
:04C4F8007047000089
:08C4FC00E594020000000000BD
:10C50400D9AA02000000000041A6020000000000B9
:10C51400D9B802001C1E00202DB00200341E0020D9
:10C524004DB30200782D002021BB02008C2D002089
:10C5340071BD0200602D002001A702000000000070
:10C5440022CD02000000000028CD020000000000FF
:10C554002FCD02000000000033CD020000000000D7
:10C5640038CD0200000000008EC602000000030364
:10C5740064C70200000000008DC702000000000034
:10C584000ECF0200000003031DD1020000000303CC
:10C5940014D10200000003031CCD020000000000BF
:10C5A40059D0020000000303CBD0020000000303B3
:10C5B40037D102000000030391D3020000000303FB
:10C5C400ACD3020000000303F6C702000000000021
:08C5D4000CC802000000000089
:10C5DC005C240020242500202C250020642400202D
:10C5EC0018000000D42B00209C2C0020A42C002030
:08C5FC00DC2B002018000000F8
:10C60400A82C0020A42C002001000000020000003F
:04C614000100000021
:08C61800819502000000000002
:10C62000E9BF02000000000039C202000000000063
:10C6300060C60200000000006CC60200DC1D002085
:10C64000FFFFFFFFFFFFFFFFFFFFFFFFFFFFFFFFFA
:10C6500000000000000000000000D60106010000FC
:10C66000E97402004D7502008974020075617274EC
:10C670005F6C6F675F6261636B656E6400426163EC
:10C680006B656E647320666C7573686564006170B9
:10C69000700000004C2900207F000000CC29002001
:10C6A0001B5B306D002573001B5B313B33316D002C
:10C6B00025734C6F67732064726F707065642028F7
:10C6C00025642925730D0A003C25733E2025733A05
:10C6D0002000202530327800202020007C002563B7
:10C6E000001B5B313B33306D001B5B313B33326DE4
:10C6F000001B5B313B33336D001B5B313B33346DCF
:10C70000001B5B313B33356D001B5B313B33366DBA
:10C71000001B5B313B33376D007761726E696E676A
:10C7200000696E666F00646562756700A0C60200EE
:10C73000E1C60200A8C60200E9C60200F1C6020076
:10C74000F9C6020001C7020009C7020011C70200B2
:10C75000000000007AC7020019C7020021C70200CA
:10C7600026C702006170705F627574746F6E00009E
:10C77000E81D0020466174616C206572726F720062
:10C7800053797374656D20726573657400617070A0
:10C790005F74696D65720000010006000000000012
:10C7A0001C2A00208980020052544320696E737451
:10C7B000616E636520616C726561647920696E6980
:10C7C0007469616C697A65642E005254433A206939
:10C7D0006E697469616C697A65642E0000000000FE
:10C7E0000338FDD870473031323334353637383975
:10C7F0004142434445467077725F6D676D74000037
:10C8000044C5020044C5020004000000736F727446
:10C810006C697374004E52465F53554343455353FE
:10C82000004E52465F4552524F525F5356435F4847
:10C83000414E444C45525F4D495353494E47004E7B
:10C8400052465F4552524F525F534F4654444556ED
:10C850004943455F4E4F545F454E41424C4544006D
:10C860004E52465F4552524F525F494E5445524ECA
:10C87000414C004E52465F4552524F525F4E4F5F01
:10C880004D454D004E52465F4552524F525F4E4FFE
:10C89000545F464F554E44004E52465F4552524FEC
:10C8A000525F4E4F545F535550504F5254454400C1
:10C8B0004E52465F4552524F525F494E56414C4987
:10C8C000445F504152414D004E52465F4552524FD7
:10C8D000525F494E56414C49445F535441544500C0
:10C8E0004E52465F4552524F525F494E56414C4957
:10C8F000445F4C454E475448004E52465F455252A5
:10C900004F525F494E56414C49445F464C41475354
:10C91000004E52465F4552524F525F494E56414C6F
:10C9200049445F44415441004E52465F4552524F84
:10C93000525F444154415F53495A45004E52465F4D
:10C940004552524F525F54494D454F5554004E5237
:10C95000465F4552524F525F4E554C4C004E524628
:10C960005F4552524F525F464F5242494444454EF2
:10C97000004E52465F4552524F525F494E56414C0F
:10C9800049445F41444452004E52465F4552524F23
:10C99000525F42555359004E52465F4552524F52D4
:10C9A0005F434F4E4E5F434F554E54004E52465FCD
:10C9B0004552524F525F5245534F555243455300D3
:10C9C0004E52465F4552524F525F4D4F44554C4573
:10C9D0005F4E4F545F494E495449414C495A454472
:10C9E000004E52465F4552524F525F4D5554455886
:10C9F0005F494E49545F4641494C4544004E5246BA
:10CA00005F4552524F525F4D555445585F4C4F430E
:10CA10004B5F4641494C4544004E52465F45525299
:10CA20004F525F4D555445585F554E4C4F434B5FE9
:10CA30004641494C4544004E52465F4552524F5282
:10CA40005F4D555445585F434F4E445F494E4954DE
:10CA50005F4641494C4544004E52465F4552524F55
:10CA6000525F4D4F44554C455F414C5245414459EE
:10CA70005F494E495449414C495A4544004E52463B
:10CA80005F4552524F525F53544F524147455F46A4
:10CA9000554C4C004E52465F4552524F525F4150EA
:10CAA000495F4E4F545F494D504C454D454E54459E
:10CAB00044004E52465F4552524F525F46454154E4
:10CAC0005552455F4E4F545F454E41424C454400E0
